{
  "_format": "hh-sol-artifact-1",
  "contractName": "InferenceMarketplace",
  "sourceName": "contracts/VInference.sol",
  "abi": [
    {
      "inputs": [],
      "stateMutability": "nonpayable",
      "type": "constructor"
    },
    {
      "inputs": [
        {
          "internalType": "address",
          "name": "owner",
          "type": "address"
        }
      ],
      "name": "OwnableInvalidOwner",
      "type": "error"
    },
    {
      "inputs": [
        {
          "internalType": "address",
          "name": "account",
          "type": "address"
        }
      ],
      "name": "OwnableUnauthorizedAccount",
      "type": "error"
    },
    {
      "inputs": [],
      "name": "ReentrancyGuardReentrantCall",
      "type": "error"
    },
    {
      "anonymous": false,
      "inputs": [
        {
          "indexed": true,
          "internalType": "address",
          "name": "nodeAddress",
          "type": "address"
        }
      ],
      "name": "HeartbeatReceived",
      "type": "event"
    },
    {
      "anonymous": false,
      "inputs": [
        {
          "indexed": true,
          "internalType": "uint256",
          "name": "jobId",
          "type": "uint256"
        },
        {
          "indexed": true,
          "internalType": "address",
          "name": "node",
          "type": "address"
        }
      ],
      "name": "JobAssigned",
      "type": "event"
    },
    {
      "anonymous": false,
      "inputs": [
        {
          "indexed": true,
          "internalType": "uint256",
          "name": "jobId",
          "type": "uint256"
        },
        {
          "indexed": true,
          "internalType": "address",
          "name": "node",
          "type": "address"
        }
      ],
      "name": "JobCompleted",
      "type": "event"
    },
    {
      "anonymous": false,
      "inputs": [
        {
          "indexed": true,
          "internalType": "uint256",
          "name": "jobId",
          "type": "uint256"
        },
        {
          "indexed": false,
          "internalType": "string",
          "name": "reason",
          "type": "string"
        }
      ],
      "name": "JobFailed",
      "type": "event"
    },
    {
      "anonymous": false,
      "inputs": [
        {
          "indexed": true,
          "internalType": "uint256",
          "name": "jobId",
          "type": "uint256"
        },
        {
          "indexed": true,
          "internalType": "address",
          "name": "requester",
          "type": "address"
        },
        {
          "indexed": false,
          "internalType": "enum InferenceMarketplace.HardwareType",
          "name": "hardwareType",
          "type": "uint8"
        }
      ],
      "name": "JobPosted",
      "type": "event"
    },
    {
      "anonymous": false,
      "inputs": [
        {
          "indexed": true,
          "internalType": "address",
          "name": "nodeAddress",
          "type": "address"
        },
        {
          "indexed": false,
          "internalType": "enum InferenceMarketplace.HardwareType",
          "name": "hardwareType",
          "type": "uint8"
        },
        {
          "indexed": false,
          "internalType": "uint256",
          "name": "price",
          "type": "uint256"
        }
      ],
      "name": "MarketplaceNodeRegistered",
      "type": "event"
    },
    {
      "anonymous": false,
      "inputs": [
        {
          "indexed": true,
          "internalType": "address",
          "name": "previousOwner",
          "type": "address"
        },
        {
          "indexed": true,
          "internalType": "address",
          "name": "newOwner",
          "type": "address"
        }
      ],
      "name": "OwnershipTransferred",
      "type": "event"
    },
    {
      "inputs": [],
      "name": "HEARTBEAT_TIMEOUT",
      "outputs": [
        {
          "internalType": "uint256",
          "name": "",
          "type": "uint256"
        }
      ],
      "stateMutability": "view",
      "type": "function"
    },
    {
      "inputs": [
        {
          "internalType": "uint256",
          "name": "_jobId",
          "type": "uint256"
        }
      ],
      "name": "assignJobToNode",
      "outputs": [],
      "stateMutability": "nonpayable",
      "type": "function"
    },
    {
      "inputs": [
        {
          "internalType": "uint256",
          "name": "_jobId",
          "type": "uint256"
        }
      ],
      "name": "completeJob",
      "outputs": [],
      "stateMutability": "nonpayable",
      "type": "function"
    },
    {
      "inputs": [
        {
          "internalType": "uint256",
          "name": "_jobId",
          "type": "uint256"
        },
        {
          "internalType": "string",
          "name": "_reason",
          "type": "string"
        }
      ],
      "name": "failJob",
      "outputs": [],
      "stateMutability": "nonpayable",
      "type": "function"
    },
    {
      "inputs": [
        {
          "internalType": "uint256",
          "name": "_jobId",
          "type": "uint256"
        }
      ],
      "name": "getJob",
      "outputs": [
        {
          "components": [
            {
              "internalType": "uint256",
              "name": "jobId",
              "type": "uint256"
            },
            {
              "internalType": "address",
              "name": "requester",
              "type": "address"
            },
            {
              "internalType": "string",
              "name": "modelCID",
              "type": "string"
            },
            {
              "internalType": "bytes",
              "name": "inputData",
              "type": "bytes"
            },
            {
              "internalType": "enum InferenceMarketplace.HardwareType",
              "name": "requiredHardware",
              "type": "uint8"
            },
            {
              "internalType": "uint256",
              "name": "budget",
              "type": "uint256"
            },
            {
              "internalType": "address",
              "name": "assignedNode",
              "type": "address"
            },
            {
              "internalType": "enum InferenceMarketplace.JobStatus",
              "name": "status",
              "type": "uint8"
            },
            {
              "internalType": "uint256",
              "name": "createdAt",
              "type": "uint256"
            },
            {
              "internalType": "uint256",
              "name": "completedAt",
              "type": "uint256"
            }
          ],
          "internalType": "struct InferenceMarketplace.InferenceJob",
          "name": "",
          "type": "tuple"
        }
      ],
      "stateMutability": "view",
      "type": "function"
    },
    {
      "inputs": [],
      "name": "getJobCount",
      "outputs": [
        {
          "internalType": "uint256",
          "name": "",
          "type": "uint256"
        }
      ],
      "stateMutability": "view",
      "type": "function"
    },
    {
      "inputs": [
        {
          "internalType": "address",
          "name": "_nodeAddress",
          "type": "address"
        }
      ],
      "name": "getMarketplaceNode",
      "outputs": [
        {
          "components": [
            {
              "internalType": "address",
              "name": "nodeAddress",
              "type": "address"
            },
            {
              "internalType": "enum InferenceMarketplace.HardwareType",
              "name": "hardwareType",
              "type": "uint8"
            },
            {
              "internalType": "uint256",
              "name": "pricePerInference",
              "type": "uint256"
            },
            {
              "internalType": "bool",
              "name": "isActive",
              "type": "bool"
            },
            {
              "internalType": "uint256",
              "name": "lastHeartbeat",
              "type": "uint256"
            },
            {
              "internalType": "uint256",
              "name": "jobsCompleted",
              "type": "uint256"
            }
          ],
          "internalType": "struct InferenceMarketplace.MarketplaceNode",
          "name": "",
          "type": "tuple"
        }
      ],
      "stateMutability": "view",
      "type": "function"
    },
    {
      "inputs": [],
      "name": "heartbeat",
      "outputs": [],
      "stateMutability": "nonpayable",
      "type": "function"
    },
    {
      "inputs": [
        {
          "internalType": "address",
          "name": "_nodeAddress",
          "type": "address"
        }
      ],
      "name": "isNodeAlive",
      "outputs": [
        {
          "internalType": "bool",
          "name": "",
          "type": "bool"
        }
      ],
      "stateMutability": "view",
      "type": "function"
    },
    {
      "inputs": [],
      "name": "jobCounter",
      "outputs": [
        {
          "internalType": "uint256",
          "name": "",
          "type": "uint256"
        }
      ],
      "stateMutability": "view",
      "type": "function"
    },
    {
      "inputs": [
        {
          "internalType": "uint256",
          "name": "",
          "type": "uint256"
        }
      ],
      "name": "jobs",
      "outputs": [
        {
          "internalType": "uint256",
          "name": "jobId",
          "type": "uint256"
        },
        {
          "internalType": "address",
          "name": "requester",
          "type": "address"
        },
        {
          "internalType": "string",
          "name": "modelCID",
          "type": "string"
        },
        {
          "internalType": "bytes",
          "name": "inputData",
          "type": "bytes"
        },
        {
          "internalType": "enum InferenceMarketplace.HardwareType",
          "name": "requiredHardware",
          "type": "uint8"
        },
        {
          "internalType": "uint256",
          "name": "budget",
          "type": "uint256"
        },
        {
          "internalType": "address",
          "name": "assignedNode",
          "type": "address"
        },
        {
          "internalType": "enum InferenceMarketplace.JobStatus",
          "name": "status",
          "type": "uint8"
        },
        {
          "internalType": "uint256",
          "name": "createdAt",
          "type": "uint256"
        },
        {
          "internalType": "uint256",
          "name": "completedAt",
          "type": "uint256"
        }
      ],
      "stateMutability": "view",
      "type": "function"
    },
    {
      "inputs": [
        {
          "internalType": "address",
          "name": "",
          "type": "address"
        }
      ],
      "name": "marketplaceNodes",
      "outputs": [
        {
          "internalType": "address",
          "name": "nodeAddress",
          "type": "address"
        },
        {
          "internalType": "enum InferenceMarketplace.HardwareType",
          "name": "hardwareType",
          "type": "uint8"
        },
        {
          "internalType": "uint256",
          "name": "pricePerInference",
          "type": "uint256"
        },
        {
          "internalType": "bool",
          "name": "isActive",
          "type": "bool"
        },
        {
          "internalType": "uint256",
          "name": "lastHeartbeat",
          "type": "uint256"
        },
        {
          "internalType": "uint256",
          "name": "jobsCompleted",
          "type": "uint256"
        }
      ],
      "stateMutability": "view",
      "type": "function"
    },
    {
      "inputs": [],
      "name": "owner",
      "outputs": [
        {
          "internalType": "address",
          "name": "",
          "type": "address"
        }
      ],
      "stateMutability": "view",
      "type": "function"
    },
    {
      "inputs": [
        {
          "internalType": "string",
          "name": "_modelCID",
          "type": "string"
        },
        {
          "internalType": "bytes",
          "name": "_inputData",
          "type": "bytes"
        },
        {
          "internalType": "enum InferenceMarketplace.HardwareType",
          "name": "_requiredHardware",
          "type": "uint8"
        },
        {
          "internalType": "uint256",
          "name": "_budget",
          "type": "uint256"
        }
      ],
      "name": "postJob",
      "outputs": [
        {
          "internalType": "uint256",
          "name": "",
          "type": "uint256"
        }
      ],
      "stateMutability": "nonpayable",
      "type": "function"
    },
    {
      "inputs": [
        {
          "internalType": "enum InferenceMarketplace.HardwareType",
          "name": "_hardwareType",
          "type": "uint8"
        },
        {
          "internalType": "uint256",
          "name": "_pricePerInference",
          "type": "uint256"
        }
      ],
      "name": "registerMarketplaceNode",
      "outputs": [],
      "stateMutability": "nonpayable",
      "type": "function"
    },
    {
      "inputs": [
        {
          "internalType": "address",
          "name": "",
          "type": "address"
        }
      ],
      "name": "registeredMarketplaceNodes",
      "outputs": [
        {
          "internalType": "bool",
          "name": "",
          "type": "bool"
        }
      ],
      "stateMutability": "view",
      "type": "function"
    },
    {
      "inputs": [],
      "name": "renounceOwnership",
      "outputs": [],
      "stateMutability": "nonpayable",
      "type": "function"
    },
    {
      "inputs": [
        {
          "internalType": "address",
          "name": "newOwner",
          "type": "address"
        }
      ],
      "name": "transferOwnership",
      "outputs": [],
      "stateMutability": "nonpayable",
      "type": "function"
    }
  ],
  "bytecode": "0x608060405234801561001057600080fd5b50338061003757604051631e4fbdf760e01b81526000600482015260240160405180910390fd5b6100408161004a565b506001805561009a565b600080546001600160a01b038381166001600160a01b0319831681178455604051919092169283917f8be0079c531659141344cd1fd0a4f28419497f9722a3daafe3b4186f6b6457e09190a35050565b6119ff806100a96000396000f3fe608060405234801561001057600080fd5b50600436106101165760003560e01c8063715018a6116100a2578063b02b4a2f11610071578063b02b4a2f146102a0578063b2a49fb3146102a8578063bf22c457146102bb578063d8e84977146102db578063f2fde38b146102ee57600080fd5b8063715018a61461024a5780638da5cb5b14610252578063a096c3111461026d578063a1c0d32f1461028d57600080fd5b80633defb962116100e95780633defb962146101ac5780633ed8e7eb146101b457806350355d761461021b5780635e39baaa146102245780636d3561e41461023757600080fd5b8063180aedf31461011b57806324239c611461014d578063283700e7146101805780632890e5a414610195575b600080fd5b61012e610129366004611316565b610301565b6040516101449a999897969594939291906113af565b60405180910390f35b61017061015b366004611434565b60046020526000908152604090205460ff1681565b6040519015158152602001610144565b61019361018e366004611478565b61047d565b005b61019e61012c81565b604051908152602001610144565b61019361060d565b6102096101c2366004611434565b6002602081905260009182526040909120805460018201549282015460038301546004909301546001600160a01b03831694600160a01b90930460ff908116949216919086565b604051610144969594939291906114a2565b61019e60055481565b6101936102323660046114e3565b6106af565b61019e6102453660046115eb565b6107f9565b610193610a5e565b6000546040516001600160a01b039091168152602001610144565b61028061027b366004611434565b610a72565b6040516101449190611692565b61019361029b366004611316565b610ba2565b60055461019e565b6101936102b6366004611316565b610cf2565b6102ce6102c9366004611316565b610f6d565b60405161014491906116e7565b6101706102e9366004611434565b611194565b6101936102fc366004611434565b6111ee565b60036020526000908152604090208054600182015460028301805492936001600160a01b0390921692610333906117b4565b80601f016020809104026020016040519081016040528092919081815260200182805461035f906117b4565b80156103ac5780601f10610381576101008083540402835291602001916103ac565b820191906000526020600020905b81548152906001019060200180831161038f57829003601f168201915b5050505050908060030180546103c1906117b4565b80601f01602080910402602001604051908101604052809291908181526020018280546103ed906117b4565b801561043a5780601f1061040f5761010080835404028352916020019161043a565b820191906000526020600020905b81548152906001019060200180831161041d57829003601f168201915b505050506004830154600584015460068501546007860154600890960154949560ff938416959294506001600160a01b03821693600160a01b909204909116918a565b600081116104d25760405162461bcd60e51b815260206004820152601c60248201527f5072696365206d7573742062652067726561746572207468616e20300000000060448201526064015b60405180910390fd5b6040518060c00160405280336001600160a01b031681526020018360038111156104fe576104fe611375565b8152602080820184905260016040808401919091524260608401526000608090930183905233835260028252909120825181546001600160a01b03919091166001600160a01b031982168117835592840151919283916001600160a81b03191617600160a01b83600381111561057657610576611375565b0217905550604082810151600180840191909155606084015160028401805491151560ff199283161790556080850151600385015560a0909401516004938401553360008181526020949094529282902080549094161790925590517f61b0c3814b5d6a7355ce1133588be48c421294c63a70c13b361045d39ad307299061060190859085906117ee565b60405180910390a25050565b3360009081526004602052604090205460ff166106625760405162461bcd60e51b8152602060048201526013602482015272139bd919481b9bdd081c9959da5cdd195c9959606a1b60448201526064016104c9565b336000818152600260208190526040808320426003820155909101805460ff19166001179055517f59db9904863f5c0703e74a4df99bfbad4374b3edb69328a2f7bc4df3485110979190a2565b60055483106106d05760405162461bcd60e51b81526004016104c990611809565b600083815260036020526040902060016006820154600160a01b900460ff16600481111561070057610700611375565b146107405760405162461bcd60e51b815260206004820152601060248201526f129bd8881b9bdd08185cdcda59db995960821b60448201526064016104c9565b60068101546001600160a01b031633148061076557506000546001600160a01b031633145b6107a25760405162461bcd60e51b815260206004820152600e60248201526d139bdd08185d5d1a1bdc9a5e995960921b60448201526064016104c9565b60068101805460ff60a01b1916600360a01b17905560405184907f2bd9ee9604d2aacfdb0cb87e65cb6f7fd811d9038e61b24e3295676cd180c9d1906107eb9086908690611835565b60405180910390a250505050565b600080821161084a5760405162461bcd60e51b815260206004820152601d60248201527f427564676574206d7573742062652067726561746572207468616e203000000060448201526064016104c9565b600085511161089b5760405162461bcd60e51b815260206004820152601960248201527f4d6f64656c204349442063616e6e6f7420626520656d7074790000000000000060448201526064016104c9565b60058054600091826108ac8361187a565b919050559050604051806101400160405280828152602001336001600160a01b031681526020018781526020018681526020018560038111156108f1576108f1611375565b81526020808201869052600060408084018290526060840182905242608085015260a09093018190528481526003825282902083518155908301516001820180546001600160a01b0319166001600160a01b0390921691909117905590820151600282019061096090826118e2565b506060820151600382019061097590826118e2565b50608082015160048201805460ff1916600183600381111561099957610999611375565b021790555060a0820151600582015560c08201516006820180546001600160a01b039092166001600160a01b031983168117825560e0850151926001600160a81b03191617600160a01b8360048111156109f5576109f5611375565b021790555061010082015181600701556101208201518160080155905050336001600160a01b0316817f7aa977574786f7245c84e79819194a8a8e8ee5b6becc318915c33ca916f3b81886604051610a4d91906119a2565b60405180910390a395945050505050565b610a6661122c565b610a706000611259565b565b610aae6040805160c081019091526000808252602082019081526020016000815260200160001515815260200160008152602001600081525090565b6001600160a01b03821660009081526004602052604090205460ff16610b0c5760405162461bcd60e51b8152602060048201526013602482015272139bd919481b9bdd081c9959da5cdd195c9959606a1b60448201526064016104c9565b6001600160a01b03828116600090815260026020908152604091829020825160c0810190935280549384168352919290830190600160a01b900460ff166003811115610b5a57610b5a611375565b6003811115610b6b57610b6b611375565b815260018201546020820152600282015460ff16151560408201526003820154606082015260049091015460809091015292915050565b6005548110610bc35760405162461bcd60e51b81526004016104c990611809565b600081815260036020526040902060016006820154600160a01b900460ff166004811115610bf357610bf3611375565b14610c335760405162461bcd60e51b815260206004820152601060248201526f129bd8881b9bdd08185cdcda59db995960821b60448201526064016104c9565b60068101546001600160a01b03163314610c835760405162461bcd60e51b81526020600482015260116024820152704e6f742061737369676e6564206e6f646560781b60448201526064016104c9565b60068101805460ff60a01b1916600160a11b179055426008820155336000908152600260205260408120600401805491610cbc8361187a565b9091555050604051339083907f16a7286196330eaff0c7db2ec34ead9c6d2d023b356b62ee7ea644c842a84b6790600090a35050565b6005548110610d135760405162461bcd60e51b81526004016104c990611809565b6000818152600360205260408120906006820154600160a01b900460ff166004811115610d4257610d42611375565b14610d865760405162461bcd60e51b81526020600482015260146024820152734a6f62206973206e6f7420617661696c61626c6560601b60448201526064016104c9565b3360009081526004602052604090205460ff16610dde5760405162461bcd60e51b8152602060048201526016602482015275139bd919481a5cc81b9bdd081c9959da5cdd195c995960521b60448201526064016104c9565b336000908152600260208190526040909120015460ff16610e365760405162461bcd60e51b81526020600482015260126024820152714e6f6465206973206e6f742061637469766560701b60448201526064016104c9565b600481015460ff166003811115610e4f57610e4f611375565b33600090815260026020526040902054600160a01b900460ff166003811115610e7a57610e7a611375565b14610ebb5760405162461bcd60e51b8152602060048201526011602482015270090c2e4c8eec2e4ca40dad2e6dac2e8c6d607b1b60448201526064016104c9565b6005810154336000908152600260205260409020600101541115610f185760405162461bcd60e51b8152602060048201526014602482015273141c9a58d948195e18d959591cc8189d5919d95d60621b60448201526064016104c9565b6006810180546001600160a81b0319163360ff60a01b19811691909117600160a01b1790915560405183907f3738a681a43a0b6a554742a08bae57e0215e8a774217dc2e7de6c9411b6d0ddc90600090a35050565b610f756112a9565b6005548210610f965760405162461bcd60e51b81526004016104c990611809565b6000828152600360209081526040918290208251610140810184528154815260018201546001600160a01b0316928101929092526002810180549293919291840191610fe1906117b4565b80601f016020809104026020016040519081016040528092919081815260200182805461100d906117b4565b801561105a5780601f1061102f5761010080835404028352916020019161105a565b820191906000526020600020905b81548152906001019060200180831161103d57829003601f168201915b50505050508152602001600382018054611073906117b4565b80601f016020809104026020016040519081016040528092919081815260200182805461109f906117b4565b80156110ec5780601f106110c1576101008083540402835291602001916110ec565b820191906000526020600020905b8154815290600101906020018083116110cf57829003601f168201915b5050509183525050600482015460209091019060ff16600381111561111357611113611375565b600381111561112457611124611375565b81526005820154602082015260068201546001600160a01b0381166040830152606090910190600160a01b900460ff16600481111561116557611165611375565b600481111561117657611176611375565b81526007820154602082015260089091015460409091015292915050565b6001600160a01b03811660009081526004602052604081205460ff166111bc57506000919050565b6001600160a01b03821660009081526002602052604090206003015461012c906111e690426119b6565b111592915050565b6111f661122c565b6001600160a01b03811661122057604051631e4fbdf760e01b8152600060048201526024016104c9565b61122981611259565b50565b6000546001600160a01b03163314610a705760405163118cdaa760e01b81523360048201526024016104c9565b600080546001600160a01b038381166001600160a01b0319831681178455604051919092169283917f8be0079c531659141344cd1fd0a4f28419497f9722a3daafe3b4186f6b6457e09190a35050565b6040518061014001604052806000815260200160006001600160a01b031681526020016060815260200160608152602001600060038111156112ed576112ed611375565b815260006020820181905260408201819052606082018190526080820181905260a09091015290565b60006020828403121561132857600080fd5b5035919050565b6000815180845260005b8181101561135557602081850181015186830182015201611339565b506000602082860101526020601f19601f83011685010191505092915050565b634e487b7160e01b600052602160045260246000fd5b6004811061139b5761139b611375565b9052565b6005811061139b5761139b611375565b8a81526001600160a01b038a81166020830152610140604083018190526000916113db8483018d61132f565b915083820360608501526113ef828c61132f565b92506113fe608085018b61138b565b60a08401899052871660c08401525061141a60e083018661139f565b610100820193909352610120015298975050505050505050565b60006020828403121561144657600080fd5b81356001600160a01b038116811461145d57600080fd5b9392505050565b80356004811061147357600080fd5b919050565b6000806040838503121561148b57600080fd5b61149483611464565b946020939093013593505050565b6001600160a01b038716815260c081016114bf602083018861138b565b60408201959095529215156060840152608083019190915260a09091015292915050565b6000806000604084860312156114f857600080fd5b83359250602084013567ffffffffffffffff8082111561151757600080fd5b818601915086601f83011261152b57600080fd5b81358181111561153a57600080fd5b87602082850101111561154c57600080fd5b6020830194508093505050509250925092565b634e487b7160e01b600052604160045260246000fd5b600067ffffffffffffffff808411156115905761159061155f565b604051601f8501601f19908116603f011681019082821181831017156115b8576115b861155f565b816040528093508581528686860111156115d157600080fd5b858560208301376000602087830101525050509392505050565b6000806000806080858703121561160157600080fd5b843567ffffffffffffffff8082111561161957600080fd5b818701915087601f83011261162d57600080fd5b61163c88833560208501611575565b9550602087013591508082111561165257600080fd5b508501601f8101871361166457600080fd5b61167387823560208401611575565b93505061168260408601611464565b9396929550929360600135925050565b81516001600160a01b0316815260208083015160c08301916116b69084018261138b565b50604083015160408301526060830151151560608301526080830151608083015260a083015160a083015292915050565b60208152815160208201526000602083015161170e60408401826001600160a01b03169052565b50604083015161014080606085015261172b61016085018361132f565b91506060850151601f19858403016080860152611748838261132f565b925050608085015161175d60a086018261138b565b5060a085015160c085015260c085015161178260e08601826001600160a01b03169052565b5060e08501516101006117978187018361139f565b860151610120868101919091529095015193019290925250919050565b600181811c908216806117c857607f821691505b6020821081036117e857634e487b7160e01b600052602260045260246000fd5b50919050565b604081016117fc828561138b565b8260208301529392505050565b602080825260129082015271129bd888191bd95cc81b9bdd08195e1a5cdd60721b604082015260600190565b60208152816020820152818360408301376000818301604090810191909152601f909201601f19160101919050565b634e487b7160e01b600052601160045260246000fd5b60006001820161188c5761188c611864565b5060010190565b601f8211156118dd57600081815260208120601f850160051c810160208610156118ba5750805b601f850160051c820191505b818110156118d9578281556001016118c6565b5050505b505050565b815167ffffffffffffffff8111156118fc576118fc61155f565b6119108161190a84546117b4565b84611893565b602080601f831160018114611945576000841561192d5750858301515b600019600386901b1c1916600185901b1785556118d9565b600085815260208120601f198616915b8281101561197457888601518255948401946001909101908401611955565b50858210156119925787850151600019600388901b60f8161c191681555b5050505050600190811b01905550565b602081016119b0828461138b565b92915050565b818103818111156119b0576119b061186456fea2646970667358221220294e3446ecb6e5135d26052d7f74c56d6fd108e2ce0b280478e7eaa10cc641ab64736f6c63430008140033",
  "linkReferences": {},
  "deployedLinkReferences": {}
}