{
  "_format": "hh-sol-artifact-1",
  "contractName": "InferenceEscrow",
  "sourceName": "contracts/VInference.sol",
  "abi": [
    {
      "inputs": [
        {
          "internalType": "address",
          "name": "_paymentToken",
          "type": "address"
        },
        {
          "internalType": "address",
          "name": "_verifier",
          "type": "address"
        },
        {
          "internalType": "address",
          "name": "_feeRecipient",
          "type": "address"
        }
      ],
      "stateMutability": "nonpayable",
      "type": "constructor"
    },
    {
      "inputs": [
        {
          "internalType": "address",
          "name": "owner",
          "type": "address"
        }
      ],
      "name": "OwnableInvalidOwner",
      "type": "error"
    },
    {
      "inputs": [
        {
          "internalType": "address",
          "name": "account",
          "type": "address"
        }
      ],
      "name": "OwnableUnauthorizedAccount",
      "type": "error"
    },
    {
      "inputs": [],
      "name": "ReentrancyGuardReentrantCall",
      "type": "error"
    },
    {
      "anonymous": false,
      "inputs": [
        {
          "indexed": true,
          "internalType": "uint256",
          "name": "jobId",
          "type": "uint256"
        },
        {
          "indexed": false,
          "internalType": "uint256",
          "name": "amount",
          "type": "uint256"
        }
      ],
      "name": "ETHDeposited",
      "type": "event"
    },
    {
      "anonymous": false,
      "inputs": [
        {
          "indexed": true,
          "internalType": "uint256",
          "name": "jobId",
          "type": "uint256"
        },
        {
          "indexed": true,
          "internalType": "bytes32",
          "name": "proofHash",
          "type": "bytes32"
        },
        {
          "indexed": false,
          "internalType": "uint256",
          "name": "providerPayout",
          "type": "uint256"
        }
      ],
      "name": "EscrowJobCompleted",
      "type": "event"
    },
    {
      "anonymous": false,
      "inputs": [
        {
          "indexed": true,
          "internalType": "uint256",
          "name": "jobId",
          "type": "uint256"
        },
        {
          "indexed": true,
          "internalType": "address",
          "name": "requester",
          "type": "address"
        },
        {
          "indexed": true,
          "internalType": "address",
          "name": "provider",
          "type": "address"
        },
        {
          "indexed": false,
          "internalType": "uint256",
          "name": "amount",
          "type": "uint256"
        }
      ],
      "name": "EscrowJobCreated",
      "type": "event"
    },
    {
      "anonymous": false,
      "inputs": [
        {
          "indexed": true,
          "internalType": "uint256",
          "name": "jobId",
          "type": "uint256"
        },
        {
          "indexed": false,
          "internalType": "string",
          "name": "reason",
          "type": "string"
        }
      ],
      "name": "EscrowJobDisputed",
      "type": "event"
    },
    {
      "anonymous": false,
      "inputs": [
        {
          "indexed": true,
          "internalType": "uint256",
          "name": "jobId",
          "type": "uint256"
        },
        {
          "indexed": false,
          "internalType": "uint256",
          "name": "amount",
          "type": "uint256"
        }
      ],
      "name": "EscrowJobRefunded",
      "type": "event"
    },
    {
      "anonymous": false,
      "inputs": [
        {
          "indexed": true,
          "internalType": "address",
          "name": "recipient",
          "type": "address"
        },
        {
          "indexed": false,
          "internalType": "uint256",
          "name": "amount",
          "type": "uint256"
        }
      ],
      "name": "FeeWithdrawn",
      "type": "event"
    },
    {
      "anonymous": false,
      "inputs": [
        {
          "indexed": true,
          "internalType": "address",
          "name": "previousOwner",
          "type": "address"
        },
        {
          "indexed": true,
          "internalType": "address",
          "name": "newOwner",
          "type": "address"
        }
      ],
      "name": "OwnershipTransferred",
      "type": "event"
    },
    {
      "inputs": [],
      "name": "accumulatedFees",
      "outputs": [
        {
          "internalType": "uint256",
          "name": "",
          "type": "uint256"
        }
      ],
      "stateMutability": "view",
      "type": "function"
    },
    {
      "inputs": [
        {
          "internalType": "uint256",
          "name": "_jobId",
          "type": "uint256"
        },
        {
          "internalType": "bytes32",
          "name": "_proofHash",
          "type": "bytes32"
        }
      ],
      "name": "completeJobWithProof",
      "outputs": [],
      "stateMutability": "nonpayable",
      "type": "function"
    },
    {
      "inputs": [
        {
          "internalType": "address",
          "name": "_provider",
          "type": "address"
        }
      ],
      "name": "createJobWithETH",
      "outputs": [
        {
          "internalType": "uint256",
          "name": "jobId",
          "type": "uint256"
        }
      ],
      "stateMutability": "payable",
      "type": "function"
    },
    {
      "inputs": [
        {
          "internalType": "address",
          "name": "_provider",
          "type": "address"
        },
        {
          "internalType": "uint256",
          "name": "_amount",
          "type": "uint256"
        }
      ],
      "name": "createJobWithToken",
      "outputs": [
        {
          "internalType": "uint256",
          "name": "jobId",
          "type": "uint256"
        }
      ],
      "stateMutability": "nonpayable",
      "type": "function"
    },
    {
      "inputs": [
        {
          "internalType": "uint256",
          "name": "_jobId",
          "type": "uint256"
        },
        {
          "internalType": "string",
          "name": "_reason",
          "type": "string"
        }
      ],
      "name": "disputeJob",
      "outputs": [],
      "stateMutability": "nonpayable",
      "type": "function"
    },
    {
      "inputs": [],
      "name": "escrowJobCounter",
      "outputs": [
        {
          "internalType": "uint256",
          "name": "",
          "type": "uint256"
        }
      ],
      "stateMutability": "view",
      "type": "function"
    },
    {
      "inputs": [
        {
          "internalType": "uint256",
          "name": "",
          "type": "uint256"
        }
      ],
      "name": "escrowJobs",
      "outputs": [
        {
          "internalType": "address",
          "name": "requester",
          "type": "address"
        },
        {
          "internalType": "address",
          "name": "provider",
          "type": "address"
        },
        {
          "internalType": "uint256",
          "name": "amount",
          "type": "uint256"
        },
        {
          "internalType": "enum InferenceEscrow.EscrowJobStatus",
          "name": "status",
          "type": "uint8"
        },
        {
          "internalType": "bytes32",
          "name": "proofHash",
          "type": "bytes32"
        },
        {
          "internalType": "uint256",
          "name": "createdAt",
          "type": "uint256"
        },
        {
          "internalType": "uint256",
          "name": "completedAt",
          "type": "uint256"
        }
      ],
      "stateMutability": "view",
      "type": "function"
    },
    {
      "inputs": [
        {
          "internalType": "uint256",
          "name": "",
          "type": "uint256"
        }
      ],
      "name": "ethEscrow",
      "outputs": [
        {
          "internalType": "uint256",
          "name": "",
          "type": "uint256"
        }
      ],
      "stateMutability": "view",
      "type": "function"
    },
    {
      "inputs": [],
      "name": "feeRecipient",
      "outputs": [
        {
          "internalType": "address",
          "name": "",
          "type": "address"
        }
      ],
      "stateMutability": "view",
      "type": "function"
    },
    {
      "inputs": [
        {
          "internalType": "uint256",
          "name": "_jobId",
          "type": "uint256"
        }
      ],
      "name": "getEscrowJob",
      "outputs": [
        {
          "components": [
            {
              "internalType": "address",
              "name": "requester",
              "type": "address"
            },
            {
              "internalType": "address",
              "name": "provider",
              "type": "address"
            },
            {
              "internalType": "uint256",
              "name": "amount",
              "type": "uint256"
            },
            {
              "internalType": "enum InferenceEscrow.EscrowJobStatus",
              "name": "status",
              "type": "uint8"
            },
            {
              "internalType": "bytes32",
              "name": "proofHash",
              "type": "bytes32"
            },
            {
              "internalType": "uint256",
              "name": "createdAt",
              "type": "uint256"
            },
            {
              "internalType": "uint256",
              "name": "completedAt",
              "type": "uint256"
            }
          ],
          "internalType": "struct InferenceEscrow.EscrowJob",
          "name": "",
          "type": "tuple"
        }
      ],
      "stateMutability": "view",
      "type": "function"
    },
    {
      "inputs": [],
      "name": "owner",
      "outputs": [
        {
          "internalType": "address",
          "name": "",
          "type": "address"
        }
      ],
      "stateMutability": "view",
      "type": "function"
    },
    {
      "inputs": [],
      "name": "paymentToken",
      "outputs": [
        {
          "internalType": "contract IERC20",
          "name": "",
          "type": "address"
        }
      ],
      "stateMutability": "view",
      "type": "function"
    },
    {
      "inputs": [],
      "name": "platformFeePercent",
      "outputs": [
        {
          "internalType": "uint256",
          "name": "",
          "type": "uint256"
        }
      ],
      "stateMutability": "view",
      "type": "function"
    },
    {
      "inputs": [],
      "name": "renounceOwnership",
      "outputs": [],
      "stateMutability": "nonpayable",
      "type": "function"
    },
    {
      "inputs": [
        {
          "internalType": "address",
          "name": "_newRecipient",
          "type": "address"
        }
      ],
      "name": "setFeeRecipient",
      "outputs": [],
      "stateMutability": "nonpayable",
      "type": "function"
    },
    {
      "inputs": [
        {
          "internalType": "uint256",
          "name": "_feePercent",
          "type": "uint256"
        }
      ],
      "name": "setPlatformFee",
      "outputs": [],
      "stateMutability": "nonpayable",
      "type": "function"
    },
    {
      "inputs": [
        {
          "internalType": "address",
          "name": "_newVerifier",
          "type": "address"
        }
      ],
      "name": "setVerifier",
      "outputs": [],
      "stateMutability": "nonpayable",
      "type": "function"
    },
    {
      "inputs": [
        {
          "internalType": "address",
          "name": "newOwner",
          "type": "address"
        }
      ],
      "name": "transferOwnership",
      "outputs": [],
      "stateMutability": "nonpayable",
      "type": "function"
    },
    {
      "inputs": [],
      "name": "verifier",
      "outputs": [
        {
          "internalType": "contract IZKMLVerifier",
          "name": "",
          "type": "address"
        }
      ],
      "stateMutability": "view",
      "type": "function"
    },
    {
      "inputs": [],
      "name": "withdrawFees",
      "outputs": [],
      "stateMutability": "nonpayable",
      "type": "function"
    },
    {
      "stateMutability": "payable",
      "type": "receive"
    }
  ],
  "bytecode": "0x608060405260026004553480156200001657600080fd5b506040516200191838038062001918833981016040819052620000399162000123565b600160005533806200006557604051631e4fbdf760e01b81526000600482015260240160405180910390fd5b6200007081620000b4565b50600280546001600160a01b039485166001600160a01b0319918216179091556003805493851693821693909317909255600580549190931691161790556200016d565b600180546001600160a01b038381166001600160a01b0319831681179093556040519116919082907f8be0079c531659141344cd1fd0a4f28419497f9722a3daafe3b4186f6b6457e090600090a35050565b80516001600160a01b03811681146200011e57600080fd5b919050565b6000806000606084860312156200013957600080fd5b620001448462000106565b9250620001546020850162000106565b9150620001646040850162000106565b90509250925092565b61179b806200017d6000396000f3fe6080604052600436106101235760003560e01c80635e495946116100a0578063ad8a389311610064578063ad8a38931461037f578063b3120a271461039f578063cced8521146103bf578063e74b981b146103d2578063f2fde38b146103f257600080fd5b80635e495946146102e95780636623dc4f14610309578063715018a6146103365780638c639a851461034b5780638da5cb5b1461036157600080fd5b80633013ce29116100e75780633013ce291461025e578063469048401461027e578063476343ee1461029e5780635437988d146102b3578063587f5ed7146102d357600080fd5b806305468e731461012f5780630804fe17146101b357806312e8e2c3146101d75780632b7ac3f3146101f95780632d2e8e361461023157600080fd5b3661012a57005b600080fd5b34801561013b57600080fd5b5061019761014a36600461146f565b60076020526000908152604090208054600182015460028301546003840154600485015460058601546006909601546001600160a01b03958616969590941694929360ff90921692909187565b6040516101aa97969594939291906114c0565b60405180910390f35b3480156101bf57600080fd5b506101c960085481565b6040519081526020016101aa565b3480156101e357600080fd5b506101f76101f236600461146f565b610412565b005b34801561020557600080fd5b50600354610219906001600160a01b031681565b6040516001600160a01b0390911681526020016101aa565b34801561023d57600080fd5b5061025161024c36600461146f565b610464565b6040516101aa919061150a565b34801561026a57600080fd5b50600254610219906001600160a01b031681565b34801561028a57600080fd5b50600554610219906001600160a01b031681565b3480156102aa57600080fd5b506101f7610533565b3480156102bf57600080fd5b506101f76102ce366004611583565b61076e565b3480156102df57600080fd5b506101c960065481565b3480156102f557600080fd5b506101f76103043660046115a5565b610798565b34801561031557600080fd5b506101c961032436600461146f565b60096020526000908152604090205481565b34801561034257600080fd5b506101f7610bb6565b34801561035757600080fd5b506101c960045481565b34801561036d57600080fd5b506001546001600160a01b0316610219565b34801561038b57600080fd5b506101c961039a3660046115c7565b610bca565b3480156103ab57600080fd5b506101f76103ba3660046115f1565b610e51565b6101c96103cd366004611583565b6110f7565b3480156103de57600080fd5b506101f76103ed366004611583565b611314565b3480156103fe57600080fd5b506101f761040d366004611583565b611388565b61041a6113c6565b600a81111561045f5760405162461bcd60e51b815260206004820152600c60248201526b08ccaca40e8dede40d0d2ced60a31b60448201526064015b60405180910390fd5b600455565b6040805160e080820183526000808352602080840182905283850182905260608085018390526080850183905260a0850183905260c0850183905286835260078252918590208551938401865280546001600160a01b03908116855260018201541691840191909152600281015494830194909452600380850154939492939184019160ff16908111156104fa576104fa611488565b600381111561050b5761050b611488565b8152600482015460208201526005820154604082015260069091015460609091015292915050565b61053b6113c6565b6002546040516370a0823160e01b81523060048201526000916001600160a01b0316906370a0823190602401602060405180830381865afa158015610584573d6000803e3d6000fd5b505050506040513d601f19601f820116820180604052508101906105a8919061166d565b60065490915081156106795760025460055460405163a9059cbb60e01b81526001600160a01b0391821660048201526024810185905291169063a9059cbb906044016020604051808303816000875af1158015610609573d6000803e3d6000fd5b505050506040513d601f19601f8201168201806040525081019061062d9190611686565b6106795760405162461bcd60e51b815260206004820152601760248201527f546f6b656e207769746864726177616c206661696c65640000000000000000006044820152606401610456565b801561072257600060068190556005546040516001600160a01b039091169083908381818185875af1925050503d80600081146106d2576040519150601f19603f3d011682016040523d82523d6000602084013e6106d7565b606091505b50509050806107205760405162461bcd60e51b8152602060048201526015602482015274115512081dda5d1a191c985dd85b0819985a5b1959605a1b6044820152606401610456565b505b6005546001600160a01b03167f78473f3f373f7673597f4f0fa5873cb4d375fea6d4339ad6b56dbd411513cb3f61075983856116be565b60405190815260200160405180910390a25050565b6107766113c6565b600380546001600160a01b0319166001600160a01b0392909216919091179055565b6107a06113f3565b60008281526007602052604081209060038083015460ff16908111156107c8576107c8611488565b146108075760405162461bcd60e51b815260206004820152600f60248201526e4a6f62206e6f742070656e64696e6760881b6044820152606401610456565b60018101546001600160a01b031633146108635760405162461bcd60e51b815260206004820152601a60248201527f4f6e6c792070726f76696465722063616e20636f6d706c6574650000000000006044820152606401610456565b6003546040516242c8fd60e81b8152600481018490526001600160a01b03909116906342c8fd0090602401602060405180830381865afa1580156108ab573d6000803e3d6000fd5b505050506040513d601f19601f820116820180604052508101906108cf9190611686565b6109105760405162461bcd60e51b8152602060048201526012602482015271141c9bdbd9881b9bdd081d995c9a599a595960721b6044820152606401610456565b60006064600454836002015461092691906116d1565b61093091906116e8565b90506000818360020154610944919061170a565b60038401805460ff191660011790556004840185905542600685015560008681526009602052604090205490915015610a8c57600454600086815260096020526040812054909160649161099891906116d1565b6109a291906116e8565b600087815260096020526040812054919250906109c090839061170a565b905081600660008282546109d491906116be565b9091555050600087815260096020526040808220829055600187015490516001600160a01b039091169083908381818185875af1925050503d8060008114610a38576040519150601f19603f3d011682016040523d82523d6000602084013e610a3d565b606091505b5050905080610a845760405162461bcd60e51b8152602060048201526013602482015272115512081d1c985b9cd9995c8819985a5b1959606a1b6044820152606401610456565b505050610b6a565b8160066000828254610a9e91906116be565b9091555050600254600184015460405163a9059cbb60e01b81526001600160a01b0391821660048201526024810184905291169063a9059cbb906044016020604051808303816000875af1158015610afa573d6000803e3d6000fd5b505050506040513d601f19601f82011682018060405250810190610b1e9190611686565b610b6a5760405162461bcd60e51b815260206004820152601860248201527f50726f7669646572207472616e73666572206661696c656400000000000000006044820152606401610456565b83857f48aef66a406471d2dddf55991178f8e827283d4fbf7a2296dac49fcb717b639883604051610b9d91815260200190565b60405180910390a3505050610bb26001600055565b5050565b610bbe6113c6565b610bc8600061141d565b565b6000610bd46113f3565b6001600160a01b038316610c1d5760405162461bcd60e51b815260206004820152601060248201526f24b73b30b634b210383937bb34b232b960811b6044820152606401610456565b60008211610c625760405162461bcd60e51b81526020600482015260126024820152710416d6f756e74206d757374206265203e20360741b6044820152606401610456565b6002546040516323b872dd60e01b8152336004820152306024820152604481018490526001600160a01b03909116906323b872dd906064016020604051808303816000875af1158015610cb9573d6000803e3d6000fd5b505050506040513d601f19601f82011682018060405250810190610cdd9190611686565b610d1b5760405162461bcd60e51b815260206004820152600f60248201526e151c985b9cd9995c8819985a5b1959608a1b6044820152606401610456565b60088054906000610d2b8361171d565b909155506040805160e0810182523381526001600160a01b038681166020808401918252838501888152600060608601818152608087018290524260a088015260c08701829052888252600790935295909520845181549085166001600160a01b0319918216178255925160018083018054929096169190941617909355935160028301559251600380830180549697509395929491939260ff191691908490811115610dda57610dda611488565b02179055506080820151600482015560a0820151600582015560c0909101516006909101556040518281526001600160a01b03841690339083907f81e5c8bc2a9fbba0f8410a2f3c2cbf5e4f362d33095c724f228ee034c167737f9060200160405180910390a4610e4b6001600055565b92915050565b610e596113f3565b60008381526007602052604081209060038083015460ff1690811115610e8157610e81611488565b14610ec05760405162461bcd60e51b815260206004820152600f60248201526e4a6f62206e6f742070656e64696e6760881b6044820152606401610456565b80546001600160a01b0316331480610ee257506001546001600160a01b031633145b610f1f5760405162461bcd60e51b815260206004820152600e60248201526d139bdd08185d5d1a1bdc9a5e995960921b6044820152606401610456565b60038101805460ff1916600217905560008481526009602052604090205415610ff357600084815260096020526040808220805490839055835491519092916001600160a01b03169083908381818185875af1925050503d8060008114610fa2576040519150601f19603f3d011682016040523d82523d6000602084013e610fa7565b606091505b5050905080610fec5760405162461bcd60e51b8152602060048201526011602482015270115512081c99599d5b990819985a5b1959607a1b6044820152606401610456565b50506110ad565b6002805482549183015460405163a9059cbb60e01b81526001600160a01b039384166004820152602481019190915291169063a9059cbb906044016020604051808303816000875af115801561104d573d6000803e3d6000fd5b505050506040513d601f19601f820116820180604052508101906110719190611686565b6110ad5760405162461bcd60e51b815260206004820152600d60248201526c1499599d5b990819985a5b1959609a1b6044820152606401610456565b837f5dcb926499959b85deaa411c313dcb495644f7c107a5884c4d7ad101f52b98c684846040516110df929190611736565b60405180910390a2506110f26001600055565b505050565b60006111016113f3565b6001600160a01b03821661114a5760405162461bcd60e51b815260206004820152601060248201526f24b73b30b634b210383937bb34b232b960811b6044820152606401610456565b6000341161118a5760405162461bcd60e51b815260206004820152600d60248201526c09aeae6e840e6cadcc8408aa89609b1b6044820152606401610456565b6008805490600061119a8361171d565b909155506040805160e0810182523381526001600160a01b03858116602080840191825234848601908152600060608601818152608087018290524260a088015260c08701829052888252600790935295909520845181549085166001600160a01b0319918216178255925160018083018054929096169190941617909355935160028301559251600380830180549697509395929491939260ff19169190849081111561124a5761124a611488565b02179055506080820151600482015560a0820151600582015560c09091015160069091015560008181526009602052604090819020349081905590516001600160a01b03841691339184917f81e5c8bc2a9fbba0f8410a2f3c2cbf5e4f362d33095c724f228ee034c167737f916112c391815260200190565b60405180910390a4807fe8da57c58157df0f4902609578e5e09df6eeefa06f36517abf37fa84d9effe8e346040516112fd91815260200190565b60405180910390a261130f6001600055565b919050565b61131c6113c6565b6001600160a01b0381166113665760405162461bcd60e51b8152602060048201526011602482015270125b9d985b1a59081c9958da5c1a595b9d607a1b6044820152606401610456565b600580546001600160a01b0319166001600160a01b0392909216919091179055565b6113906113c6565b6001600160a01b0381166113ba57604051631e4fbdf760e01b815260006004820152602401610456565b6113c38161141d565b50565b6001546001600160a01b03163314610bc85760405163118cdaa760e01b8152336004820152602401610456565b60026000540361141657604051633ee5aeb560e01b815260040160405180910390fd5b6002600055565b600180546001600160a01b038381166001600160a01b0319831681179093556040519116919082907f8be0079c531659141344cd1fd0a4f28419497f9722a3daafe3b4186f6b6457e090600090a35050565b60006020828403121561148157600080fd5b5035919050565b634e487b7160e01b600052602160045260246000fd5b600481106114bc57634e487b7160e01b600052602160045260246000fd5b9052565b6001600160a01b038881168252871660208201526040810186905260e081016114ec606083018761149e565b8460808301528360a08301528260c083015298975050505050505050565b81516001600160a01b039081168252602080840151909116908201526040808301519082015260608083015160e08301916115479084018261149e565b506080830151608083015260a083015160a083015260c083015160c083015292915050565b80356001600160a01b038116811461130f57600080fd5b60006020828403121561159557600080fd5b61159e8261156c565b9392505050565b600080604083850312156115b857600080fd5b50508035926020909101359150565b600080604083850312156115da57600080fd5b6115e38361156c565b946020939093013593505050565b60008060006040848603121561160657600080fd5b83359250602084013567ffffffffffffffff8082111561162557600080fd5b818601915086601f83011261163957600080fd5b81358181111561164857600080fd5b87602082850101111561165a57600080fd5b6020830194508093505050509250925092565b60006020828403121561167f57600080fd5b5051919050565b60006020828403121561169857600080fd5b8151801515811461159e57600080fd5b634e487b7160e01b600052601160045260246000fd5b80820180821115610e4b57610e4b6116a8565b8082028115828204841417610e4b57610e4b6116a8565b60008261170557634e487b7160e01b600052601260045260246000fd5b500490565b81810381811115610e4b57610e4b6116a8565b60006001820161172f5761172f6116a8565b5060010190565b60208152816020820152818360408301376000818301604090810191909152601f909201601f1916010191905056fea2646970667358221220c408a29da34e9d5dc4a893d2991f99dfc0c84ed29e6b26105d81f1a45b17494164736f6c63430008140033",
  "linkReferences": {},
  "deployedLinkReferences": {}
}