{
  "_format": "hh-sol-artifact-1",
  "contractName": "MockUSDC",
  "sourceName": "contracts/VInference.sol",
  "abi": [
    {
      "inputs": [],
      "stateMutability": "nonpayable",
      "type": "constructor"
    },
    {
      "anonymous": false,
      "inputs": [
        {
          "indexed": true,
          "internalType": "address",
          "name": "owner",
          "type": "address"
        },
        {
          "indexed": true,
          "internalType": "address",
          "name": "spender",
          "type": "address"
        },
        {
          "indexed": false,
          "internalType": "uint256",
          "name": "value",
          "type": "uint256"
        }
      ],
      "name": "Approval",
      "type": "event"
    },
    {
      "anonymous": false,
      "inputs": [
        {
          "indexed": true,
          "internalType": "address",
          "name": "from",
          "type": "address"
        },
        {
          "indexed": true,
          "internalType": "address",
          "name": "to",
          "type": "address"
        },
        {
          "indexed": false,
          "internalType": "uint256",
          "name": "value",
          "type": "uint256"
        }
      ],
      "name": "Transfer",
      "type": "event"
    },
    {
      "inputs": [
        {
          "internalType": "address",
          "name": "owner",
          "type": "address"
        },
        {
          "internalType": "address",
          "name": "spender",
          "type": "address"
        }
      ],
      "name": "allowance",
      "outputs": [
        {
          "internalType": "uint256",
          "name": "",
          "type": "uint256"
        }
      ],
      "stateMutability": "view",
      "type": "function"
    },
    {
      "inputs": [
        {
          "internalType": "address",
          "name": "spender",
          "type": "address"
        },
        {
          "internalType": "uint256",
          "name": "value",
          "type": "uint256"
        }
      ],
      "name": "approve",
      "outputs": [
        {
          "internalType": "bool",
          "name": "",
          "type": "bool"
        }
      ],
      "stateMutability": "nonpayable",
      "type": "function"
    },
    {
      "inputs": [
        {
          "internalType": "address",
          "name": "account",
          "type": "address"
        }
      ],
      "name": "balanceOf",
      "outputs": [
        {
          "internalType": "uint256",
          "name": "",
          "type": "uint256"
        }
      ],
      "stateMutability": "view",
      "type": "function"
    },
    {
      "inputs": [],
      "name": "decimals",
      "outputs": [
        {
          "internalType": "uint8",
          "name": "",
          "type": "uint8"
        }
      ],
      "stateMutability": "view",
      "type": "function"
    },
    {
      "inputs": [
        {
          "internalType": "uint256",
          "name": "amount",
          "type": "uint256"
        }
      ],
      "name": "faucet",
      "outputs": [],
      "stateMutability": "nonpayable",
      "type": "function"
    },
    {
      "inputs": [],
      "name": "name",
      "outputs": [
        {
          "internalType": "string",
          "name": "",
          "type": "string"
        }
      ],
      "stateMutability": "view",
      "type": "function"
    },
    {
      "inputs": [],
      "name": "symbol",
      "outputs": [
        {
          "internalType": "string",
          "name": "",
          "type": "string"
        }
      ],
      "stateMutability": "view",
      "type": "function"
    },
    {
      "inputs": [],
      "name": "totalSupply",
      "outputs": [
        {
          "internalType": "uint256",
          "name": "",
          "type": "uint256"
        }
      ],
      "stateMutability": "view",
      "type": "function"
    },
    {
      "inputs": [
        {
          "internalType": "address",
          "name": "to",
          "type": "address"
        },
        {
          "internalType": "uint256",
          "name": "value",
          "type": "uint256"
        }
      ],
      "name": "transfer",
      "outputs": [
        {
          "internalType": "bool",
          "name": "",
          "type": "bool"
        }
      ],
      "stateMutability": "nonpayable",
      "type": "function"
    },
    {
      "inputs": [
        {
          "internalType": "address",
          "name": "from",
          "type": "address"
        },
        {
          "internalType": "address",
          "name": "to",
          "type": "address"
        },
        {
          "internalType": "uint256",
          "name": "value",
          "type": "uint256"
        }
      ],
      "name": "transferFrom",
      "outputs": [
        {
          "internalType": "bool",
          "name": "",
          "type": "bool"
        }
      ],
      "stateMutability": "nonpayable",
      "type": "function"
    }
  ],
  "bytecode": "0x60c060405260096080908152684d6f636b205553444360b81b60a0526000906200002a9082620001d9565b506040805180820190915260058152646d5553444360d81b6020820152600190620000569082620001d9565b506002805460ff191660061790553480156200007157600080fd5b50600254620000a19033906200008c9060ff16600a620003ba565b6200009b90620f4240620003d2565b620000a7565b62000402565b8060036000828254620000bb9190620003ec565b90915550506001600160a01b03821660009081526004602052604081208054839290620000ea908490620003ec565b90915550506040518181526001600160a01b038316906000907fddf252ad1be2c89b69c2b068fc378daa952ba7f163c4a11628f55a4df523b3ef9060200160405180910390a35050565b634e487b7160e01b600052604160045260246000fd5b600181811c908216806200015f57607f821691505b6020821081036200018057634e487b7160e01b600052602260045260246000fd5b50919050565b601f821115620001d457600081815260208120601f850160051c81016020861015620001af5750805b601f850160051c820191505b81811015620001d057828155600101620001bb565b5050505b505050565b81516001600160401b03811115620001f557620001f562000134565b6200020d816200020684546200014a565b8462000186565b602080601f8311600181146200024557600084156200022c5750858301515b600019600386901b1c1916600185901b178555620001d0565b600085815260208120601f198616915b82811015620002765788860151825594840194600190910190840162000255565b5085821015620002955787850151600019600388901b60f8161c191681555b5050505050600190811b01905550565b634e487b7160e01b600052601160045260246000fd5b600181815b80851115620002fc578160001904821115620002e057620002e0620002a5565b80851615620002ee57918102915b93841c9390800290620002c0565b509250929050565b6000826200031557506001620003b4565b816200032457506000620003b4565b81600181146200033d5760028114620003485762000368565b6001915050620003b4565b60ff8411156200035c576200035c620002a5565b50506001821b620003b4565b5060208310610133831016604e8410600b84101617156200038d575081810a620003b4565b620003998383620002bb565b8060001904821115620003b057620003b0620002a5565b0290505b92915050565b6000620003cb60ff84168362000304565b9392505050565b8082028115828204841417620003b457620003b4620002a5565b80820180821115620003b457620003b4620002a5565b6107e180620004126000396000f3fe608060405234801561001057600080fd5b506004361061009e5760003560e01c80635791589711610066578063579158971461012857806370a082311461013d57806395d89b4114610166578063a9059cbb1461016e578063dd62ed3e1461018157600080fd5b806306fdde03146100a3578063095ea7b3146100c157806318160ddd146100e457806323b872dd146100f6578063313ce56714610109575b600080fd5b6100ab6101ba565b6040516100b891906105f7565b60405180910390f35b6100d46100cf366004610661565b610248565b60405190151581526020016100b8565b6003545b6040519081526020016100b8565b6100d461010436600461068b565b6102b5565b6002546101169060ff1681565b60405160ff90911681526020016100b8565b61013b6101363660046106c7565b610470565b005b6100e861014b3660046106e0565b6001600160a01b031660009081526004602052604090205490565b6100ab61047d565b6100d461017c366004610661565b61048a565b6100e861018f366004610702565b6001600160a01b03918216600090815260056020908152604080832093909416825291909152205490565b600080546101c790610735565b80601f01602080910402602001604051908101604052809291908181526020018280546101f390610735565b80156102405780601f1061021557610100808354040283529160200191610240565b820191906000526020600020905b81548152906001019060200180831161022357829003601f168201915b505050505081565b3360008181526005602090815260408083206001600160a01b038716808552925280832085905551919290917f8c5be1e5ebec7d5bd14f71427d1e84f3dd0314c0f7b2291e5b200ac8c7c3b925906102a39086815260200190565b60405180910390a35060015b92915050565b6001600160a01b0383166000908152600460205260408120548211156103195760405162461bcd60e51b8152602060048201526014602482015273496e73756666696369656e742062616c616e636560601b60448201526064015b60405180910390fd5b6001600160a01b03841660009081526005602090815260408083203384529091529020548211156103855760405162461bcd60e51b8152602060048201526016602482015275496e73756666696369656e7420616c6c6f77616e636560501b6044820152606401610310565b6001600160a01b038416600090815260046020526040812080548492906103ad908490610785565b90915550506001600160a01b038316600090815260046020526040812080548492906103da908490610798565b90915550506001600160a01b038416600090815260056020908152604080832033845290915281208054849290610412908490610785565b92505081905550826001600160a01b0316846001600160a01b03167fddf252ad1be2c89b69c2b068fc378daa952ba7f163c4a11628f55a4df523b3ef8460405161045e91815260200190565b60405180910390a35060019392505050565b61047a338261056e565b50565b600180546101c790610735565b336000908152600460205260408120548211156104e05760405162461bcd60e51b8152602060048201526014602482015273496e73756666696369656e742062616c616e636560601b6044820152606401610310565b33600090815260046020526040812080548492906104ff908490610785565b90915550506001600160a01b0383166000908152600460205260408120805484929061052c908490610798565b90915550506040518281526001600160a01b0384169033907fddf252ad1be2c89b69c2b068fc378daa952ba7f163c4a11628f55a4df523b3ef906020016102a3565b80600360008282546105809190610798565b90915550506001600160a01b038216600090815260046020526040812080548392906105ad908490610798565b90915550506040518181526001600160a01b038316906000907fddf252ad1be2c89b69c2b068fc378daa952ba7f163c4a11628f55a4df523b3ef9060200160405180910390a35050565b600060208083528351808285015260005b8181101561062457858101830151858201604001528201610608565b506000604082860101526040601f19601f8301168501019250505092915050565b80356001600160a01b038116811461065c57600080fd5b919050565b6000806040838503121561067457600080fd5b61067d83610645565b946020939093013593505050565b6000806000606084860312156106a057600080fd5b6106a984610645565b92506106b760208501610645565b9150604084013590509250925092565b6000602082840312156106d957600080fd5b5035919050565b6000602082840312156106f257600080fd5b6106fb82610645565b9392505050565b6000806040838503121561071557600080fd5b61071e83610645565b915061072c60208401610645565b90509250929050565b600181811c9082168061074957607f821691505b60208210810361076957634e487b7160e01b600052602260045260246000fd5b50919050565b634e487b7160e01b600052601160045260246000fd5b818103818111156102af576102af61076f565b808201808211156102af576102af61076f56fea2646970667358221220b1c7bec17acceee720f0998b9d503384982857a1fe62fdf67f231aca87c49fc164736f6c63430008140033",
  "linkReferences": {},
  "deployedLinkReferences": {}
}