{
  "_format": "hh-sol-artifact-1",
  "contractName": "NodeRegistry",
  "sourceName": "contracts/VInference.sol",
  "abi": [
    {
      "inputs": [],
      "stateMutability": "nonpayable",
      "type": "constructor"
    },
    {
      "inputs": [
        {
          "internalType": "address",
          "name": "owner",
          "type": "address"
        }
      ],
      "name": "OwnableInvalidOwner",
      "type": "error"
    },
    {
      "inputs": [
        {
          "internalType": "address",
          "name": "account",
          "type": "address"
        }
      ],
      "name": "OwnableUnauthorizedAccount",
      "type": "error"
    },
    {
      "anonymous": false,
      "inputs": [
        {
          "indexed": true,
          "internalType": "address",
          "name": "nodeAddress",
          "type": "address"
        }
      ],
      "name": "NodeDeactivated",
      "type": "event"
    },
    {
      "anonymous": false,
      "inputs": [
        {
          "indexed": true,
          "internalType": "address",
          "name": "nodeAddress",
          "type": "address"
        },
        {
          "indexed": false,
          "internalType": "string",
          "name": "hardwareType",
          "type": "string"
        }
      ],
      "name": "NodeRegistered",
      "type": "event"
    },
    {
      "anonymous": false,
      "inputs": [
        {
          "indexed": true,
          "internalType": "address",
          "name": "nodeAddress",
          "type": "address"
        },
        {
          "indexed": false,
          "internalType": "uint256",
          "name": "newReputation",
          "type": "uint256"
        }
      ],
      "name": "NodeReputationUpdated",
      "type": "event"
    },
    {
      "anonymous": false,
      "inputs": [
        {
          "indexed": true,
          "internalType": "address",
          "name": "previousOwner",
          "type": "address"
        },
        {
          "indexed": true,
          "internalType": "address",
          "name": "newOwner",
          "type": "address"
        }
      ],
      "name": "OwnershipTransferred",
      "type": "event"
    },
    {
      "inputs": [
        {
          "internalType": "address",
          "name": "_nodeAddress",
          "type": "address"
        }
      ],
      "name": "deactivateNode",
      "outputs": [],
      "stateMutability": "nonpayable",
      "type": "function"
    },
    {
      "inputs": [],
      "name": "getActiveNodes",
      "outputs": [
        {
          "internalType": "address[]",
          "name": "",
          "type": "address[]"
        }
      ],
      "stateMutability": "view",
      "type": "function"
    },
    {
      "inputs": [
        {
          "internalType": "address",
          "name": "_nodeAddress",
          "type": "address"
        }
      ],
      "name": "getNode",
      "outputs": [
        {
          "components": [
            {
              "internalType": "address",
              "name": "nodeAddress",
              "type": "address"
            },
            {
              "internalType": "string",
              "name": "hardwareType",
              "type": "string"
            },
            {
              "internalType": "uint256",
              "name": "registrationTime",
              "type": "uint256"
            },
            {
              "internalType": "bool",
              "name": "isActive",
              "type": "bool"
            },
            {
              "internalType": "uint256",
              "name": "reputation",
              "type": "uint256"
            },
            {
              "internalType": "uint256",
              "name": "jobsCompleted",
              "type": "uint256"
            }
          ],
          "internalType": "struct NodeRegistry.Node",
          "name": "",
          "type": "tuple"
        }
      ],
      "stateMutability": "view",
      "type": "function"
    },
    {
      "inputs": [],
      "name": "getNodeCount",
      "outputs": [
        {
          "internalType": "uint256",
          "name": "",
          "type": "uint256"
        }
      ],
      "stateMutability": "view",
      "type": "function"
    },
    {
      "inputs": [
        {
          "internalType": "address",
          "name": "_nodeAddress",
          "type": "address"
        }
      ],
      "name": "incrementJobsCompleted",
      "outputs": [],
      "stateMutability": "nonpayable",
      "type": "function"
    },
    {
      "inputs": [
        {
          "internalType": "uint256",
          "name": "",
          "type": "uint256"
        }
      ],
      "name": "nodeList",
      "outputs": [
        {
          "internalType": "address",
          "name": "",
          "type": "address"
        }
      ],
      "stateMutability": "view",
      "type": "function"
    },
    {
      "inputs": [
        {
          "internalType": "address",
          "name": "",
          "type": "address"
        }
      ],
      "name": "nodes",
      "outputs": [
        {
          "internalType": "address",
          "name": "nodeAddress",
          "type": "address"
        },
        {
          "internalType": "string",
          "name": "hardwareType",
          "type": "string"
        },
        {
          "internalType": "uint256",
          "name": "registrationTime",
          "type": "uint256"
        },
        {
          "internalType": "bool",
          "name": "isActive",
          "type": "bool"
        },
        {
          "internalType": "uint256",
          "name": "reputation",
          "type": "uint256"
        },
        {
          "internalType": "uint256",
          "name": "jobsCompleted",
          "type": "uint256"
        }
      ],
      "stateMutability": "view",
      "type": "function"
    },
    {
      "inputs": [],
      "name": "owner",
      "outputs": [
        {
          "internalType": "address",
          "name": "",
          "type": "address"
        }
      ],
      "stateMutability": "view",
      "type": "function"
    },
    {
      "inputs": [
        {
          "internalType": "string",
          "name": "_hardwareType",
          "type": "string"
        }
      ],
      "name": "registerNode",
      "outputs": [],
      "stateMutability": "nonpayable",
      "type": "function"
    },
    {
      "inputs": [],
      "name": "renounceOwnership",
      "outputs": [],
      "stateMutability": "nonpayable",
      "type": "function"
    },
    {
      "inputs": [
        {
          "internalType": "address",
          "name": "newOwner",
          "type": "address"
        }
      ],
      "name": "transferOwnership",
      "outputs": [],
      "stateMutability": "nonpayable",
      "type": "function"
    },
    {
      "inputs": [
        {
          "internalType": "address",
          "name": "_nodeAddress",
          "type": "address"
        },
        {
          "internalType": "uint256",
          "name": "_delta",
          "type": "uint256"
        },
        {
          "internalType": "bool",
          "name": "_increase",
          "type": "bool"
        }
      ],
      "name": "updateReputation",
      "outputs": [],
      "stateMutability": "nonpayable",
      "type": "function"
    }
  ],
  "bytecode": "0x608060405234801561001057600080fd5b50338061003757604051631e4fbdf760e01b81526000600482015260240160405180910390fd5b61004081610046565b50610096565b600080546001600160a01b038381166001600160a01b0319831681178455604051919092169283917f8be0079c531659141344cd1fd0a4f28419497f9722a3daafe3b4186f6b6457e09190a35050565b610ef2806100a56000396000f3fe608060405234801561001057600080fd5b50600436106100b45760003560e01c8063715018a611610071578063715018a6146101605780638da5cb5b146101685780639d20904814610179578063a7f491fb14610199578063ec604e46146101ac578063f2fde38b146101bf57600080fd5b8063189a5a17146100b9578063208f2a31146100e757806327c6f43e1461011257806339bf397e1461012757806365814455146101385780636b51e9191461014b575b600080fd5b6100cc6100c7366004610a68565b6101d2565b6040516100de96959493929190610ad0565b60405180910390f35b6100fa6100f5366004610b19565b61029f565b6040516001600160a01b0390911681526020016100de565b610125610120366004610b48565b6102c9565b005b6002546040519081526020016100de565b610125610146366004610a68565b610460565b610153610511565b6040516100de9190610bf9565b6101256106a9565b6000546001600160a01b03166100fa565b61018c610187366004610a68565b6106bd565b6040516100de9190610c46565b6101256101a7366004610a68565b6107f9565b6101256101ba366004610caa565b610830565b6101256101cd366004610a68565b610991565b6001602081905260009182526040909120805491810180546001600160a01b03909316926101ff90610cef565b80601f016020809104026020016040519081016040528092919081815260200182805461022b90610cef565b80156102785780601f1061024d57610100808354040283529160200191610278565b820191906000526020600020905b81548152906001019060200180831161025b57829003601f168201915b505050506002830154600384015460048501546005909501549394919360ff909116925086565b600281815481106102af57600080fd5b6000918252602090912001546001600160a01b0316905081565b3360009081526001602052604090206003015460ff16156103315760405162461bcd60e51b815260206004820152601760248201527f4e6f646520616c7265616479207265676973746572656400000000000000000060448201526064015b60405180910390fd5b6040805160c081018252338082526020808301858152428486015260016060850181905260646080860152600060a086018190529384529182905293909120825181546001600160a01b0319166001600160a01b0390911617815592519192919082019061039f9082610d78565b50604082810151600283810191909155606084015160038401805460ff19169115159190911790556080840151600484015560a09093015160059092019190915581546001810183556000929092527f405787fa12a823e0f2b7631cc41b3ba8828b3321ca811111fa75cd3aa3bb5ace9091018054336001600160a01b0319909116811790915590517f27dcab8cdfa14145566e2b9d04fea5a4e8ea320a3f04488a1de4d431ed1080ab90610455908490610e38565b60405180910390a250565b6104686109cf565b6001600160a01b03811660009081526001602052604090206003015460ff166104c55760405162461bcd60e51b815260206004820152600f60248201526e4e6f6465206e6f742061637469766560881b6044820152606401610328565b6001600160a01b038116600081815260016020526040808220600301805460ff19169055517fd9957750e6343405c319eb99a4ec67fa11cfd66969318cbc71aa2d45fa53a3499190a250565b60606000805b60025481101561058857600160006002838154811061053857610538610e4b565b60009182526020808320909101546001600160a01b0316835282019290925260400190206003015460ff1615610576578161057281610e77565b9250505b8061058081610e77565b915050610517565b5060008167ffffffffffffffff8111156105a4576105a4610b32565b6040519080825280602002602001820160405280156105cd578160200160208202803683370190505b5090506000805b6002548110156106a05760016000600283815481106105f5576105f5610e4b565b60009182526020808320909101546001600160a01b0316835282019290925260400190206003015460ff161561068e576002818154811061063857610638610e4b565b9060005260206000200160009054906101000a90046001600160a01b031683838151811061066857610668610e4b565b6001600160a01b03909216602092830291909101909101528161068a81610e77565b9250505b8061069881610e77565b9150506105d4565b50909392505050565b6106b16109cf565b6106bb60006109fc565b565b6107016040518060c0016040528060006001600160a01b03168152602001606081526020016000815260200160001515815260200160008152602001600081525090565b6001600160a01b03808316600090815260016020818152604092839020835160c081019094528054909416835290830180549293929184019161074390610cef565b80601f016020809104026020016040519081016040528092919081815260200182805461076f90610cef565b80156107bc5780601f10610791576101008083540402835291602001916107bc565b820191906000526020600020905b81548152906001019060200180831161079f57829003601f168201915b505050918352505060028201546020820152600382015460ff16151560408201526004820154606082015260059091015460809091015292915050565b6108016109cf565b6001600160a01b038116600090815260016020526040812060050180549161082883610e77565b919050555050565b6108386109cf565b6001600160a01b03831660009081526001602052604090206003015460ff166108955760405162461bcd60e51b815260206004820152600f60248201526e4e6f6465206e6f742061637469766560881b6044820152606401610328565b80156108d1576001600160a01b038316600090815260016020526040812060040180548492906108c6908490610e90565b9091555061093c9050565b6001600160a01b03831660009081526001602052604090206004015482101561091f576001600160a01b038316600090815260016020526040812060040180548492906108c6908490610ea9565b6001600160a01b0383166000908152600160205260408120600401555b6001600160a01b0383166000818152600160209081526040918290206004015491519182527ffd9057bf96855227cbd2c7feca318895bdc5771819fa73106e222bb9a49efe58910160405180910390a2505050565b6109996109cf565b6001600160a01b0381166109c357604051631e4fbdf760e01b815260006004820152602401610328565b6109cc816109fc565b50565b6000546001600160a01b031633146106bb5760405163118cdaa760e01b8152336004820152602401610328565b600080546001600160a01b038381166001600160a01b0319831681178455604051919092169283917f8be0079c531659141344cd1fd0a4f28419497f9722a3daafe3b4186f6b6457e09190a35050565b80356001600160a01b0381168114610a6357600080fd5b919050565b600060208284031215610a7a57600080fd5b610a8382610a4c565b9392505050565b6000815180845260005b81811015610ab057602081850181015186830182015201610a94565b506000602082860101526020601f19601f83011685010191505092915050565b6001600160a01b038716815260c060208201819052600090610af490830188610a8a565b6040830196909652509215156060840152608083019190915260a09091015292915050565b600060208284031215610b2b57600080fd5b5035919050565b634e487b7160e01b600052604160045260246000fd5b600060208284031215610b5a57600080fd5b813567ffffffffffffffff80821115610b7257600080fd5b818401915084601f830112610b8657600080fd5b813581811115610b9857610b98610b32565b604051601f8201601f19908116603f01168101908382118183101715610bc057610bc0610b32565b81604052828152876020848701011115610bd957600080fd5b826020860160208301376000928101602001929092525095945050505050565b6020808252825182820181905260009190848201906040850190845b81811015610c3a5783516001600160a01b031683529284019291840191600101610c15565b50909695505050505050565b602080825282516001600160a01b03168282015282015160c06040830152600090610c7460e0840182610a8a565b905060408401516060840152606084015115156080840152608084015160a084015260a084015160c08401528091505092915050565b600080600060608486031215610cbf57600080fd5b610cc884610a4c565b92506020840135915060408401358015158114610ce457600080fd5b809150509250925092565b600181811c90821680610d0357607f821691505b602082108103610d2357634e487b7160e01b600052602260045260246000fd5b50919050565b601f821115610d7357600081815260208120601f850160051c81016020861015610d505750805b601f850160051c820191505b81811015610d6f57828155600101610d5c565b5050505b505050565b815167ffffffffffffffff811115610d9257610d92610b32565b610da681610da08454610cef565b84610d29565b602080601f831160018114610ddb5760008415610dc35750858301515b600019600386901b1c1916600185901b178555610d6f565b600085815260208120601f198616915b82811015610e0a57888601518255948401946001909101908401610deb565b5085821015610e285787850151600019600388901b60f8161c191681555b5050505050600190811b01905550565b602081526000610a836020830184610a8a565b634e487b7160e01b600052603260045260246000fd5b634e487b7160e01b600052601160045260246000fd5b600060018201610e8957610e89610e61565b5060010190565b80820180821115610ea357610ea3610e61565b92915050565b81810381811115610ea357610ea3610e6156fea2646970667358221220393b28124053656e96dd26898fee1589a7d4f56d9edec47ebc71dcf3bd3fffb564736f6c63430008140033",
  "linkReferences": {},
  "deployedLinkReferences": {}
}