{
  "_format": "hh-sol-artifact-1",
  "contractName": "ZKMLVerifier",
  "sourceName": "contracts/VInference.sol",
  "abi": [
    {
      "inputs": [],
      "stateMutability": "nonpayable",
      "type": "constructor"
    },
    {
      "inputs": [
        {
          "internalType": "address",
          "name": "owner",
          "type": "address"
        }
      ],
      "name": "OwnableInvalidOwner",
      "type": "error"
    },
    {
      "inputs": [
        {
          "internalType": "address",
          "name": "account",
          "type": "address"
        }
      ],
      "name": "OwnableUnauthorizedAccount",
      "type": "error"
    },
    {
      "inputs": [],
      "name": "ReentrancyGuardReentrantCall",
      "type": "error"
    },
    {
      "anonymous": false,
      "inputs": [
        {
          "indexed": true,
          "internalType": "address",
          "name": "previousOwner",
          "type": "address"
        },
        {
          "indexed": true,
          "internalType": "address",
          "name": "newOwner",
          "type": "address"
        }
      ],
      "name": "OwnershipTransferred",
      "type": "event"
    },
    {
      "anonymous": false,
      "inputs": [
        {
          "indexed": true,
          "internalType": "bytes32",
          "name": "proofHash",
          "type": "bytes32"
        },
        {
          "indexed": true,
          "internalType": "uint256",
          "name": "jobId",
          "type": "uint256"
        },
        {
          "indexed": false,
          "internalType": "string",
          "name": "reason",
          "type": "string"
        }
      ],
      "name": "ProofRejected",
      "type": "event"
    },
    {
      "anonymous": false,
      "inputs": [
        {
          "indexed": true,
          "internalType": "bytes32",
          "name": "proofHash",
          "type": "bytes32"
        },
        {
          "indexed": true,
          "internalType": "uint256",
          "name": "jobId",
          "type": "uint256"
        },
        {
          "indexed": true,
          "internalType": "address",
          "name": "prover",
          "type": "address"
        }
      ],
      "name": "ProofVerified",
      "type": "event"
    },
    {
      "anonymous": false,
      "inputs": [
        {
          "indexed": false,
          "internalType": "bytes",
          "name": "newKey",
          "type": "bytes"
        }
      ],
      "name": "VerificationKeyUpdated",
      "type": "event"
    },
    {
      "inputs": [
        {
          "internalType": "bytes32",
          "name": "_proofHash",
          "type": "bytes32"
        }
      ],
      "name": "isProofVerified",
      "outputs": [
        {
          "internalType": "bool",
          "name": "",
          "type": "bool"
        }
      ],
      "stateMutability": "view",
      "type": "function"
    },
    {
      "inputs": [],
      "name": "owner",
      "outputs": [
        {
          "internalType": "address",
          "name": "",
          "type": "address"
        }
      ],
      "stateMutability": "view",
      "type": "function"
    },
    {
      "inputs": [
        {
          "internalType": "bytes32",
          "name": "",
          "type": "bytes32"
        }
      ],
      "name": "proofToJobId",
      "outputs": [
        {
          "internalType": "uint256",
          "name": "",
          "type": "uint256"
        }
      ],
      "stateMutability": "view",
      "type": "function"
    },
    {
      "inputs": [
        {
          "internalType": "bytes32",
          "name": "",
          "type": "bytes32"
        }
      ],
      "name": "proofVerified",
      "outputs": [
        {
          "internalType": "bool",
          "name": "",
          "type": "bool"
        }
      ],
      "stateMutability": "view",
      "type": "function"
    },
    {
      "inputs": [],
      "name": "renounceOwnership",
      "outputs": [],
      "stateMutability": "nonpayable",
      "type": "function"
    },
    {
      "inputs": [
        {
          "internalType": "bytes",
          "name": "_newKey",
          "type": "bytes"
        }
      ],
      "name": "setVerificationKey",
      "outputs": [],
      "stateMutability": "nonpayable",
      "type": "function"
    },
    {
      "inputs": [
        {
          "internalType": "address",
          "name": "newOwner",
          "type": "address"
        }
      ],
      "name": "transferOwnership",
      "outputs": [],
      "stateMutability": "nonpayable",
      "type": "function"
    },
    {
      "inputs": [],
      "name": "verificationKey",
      "outputs": [
        {
          "internalType": "bytes",
          "name": "",
          "type": "bytes"
        }
      ],
      "stateMutability": "view",
      "type": "function"
    },
    {
      "inputs": [
        {
          "internalType": "bytes",
          "name": "_proof",
          "type": "bytes"
        },
        {
          "internalType": "bytes",
          "name": "_publicInputs",
          "type": "bytes"
        },
        {
          "internalType": "uint256",
          "name": "_jobId",
          "type": "uint256"
        }
      ],
      "name": "verifyProof",
      "outputs": [
        {
          "internalType": "bool",
          "name": "isValid",
          "type": "bool"
        }
      ],
      "stateMutability": "nonpayable",
      "type": "function"
    }
  ],
  "bytecode": "0x608060405234801561001057600080fd5b50338061003757604051631e4fbdf760e01b81526000600482015260240160405180910390fd5b6100408161004a565b506001805561009a565b600080546001600160a01b038381166001600160a01b0319831681178455604051919092169283917f8be0079c531659141344cd1fd0a4f28419497f9722a3daafe3b4186f6b6457e09190a35050565b61084d806100a96000396000f3fe608060405234801561001057600080fd5b50600436106100935760003560e01c806383aa928b1161006657806383aa928b146101125780638a65c20b146101255780638da5cb5b14610138578063cff4a36014610153578063f2fde38b1461018157600080fd5b8063029c7da41461009857806342c8fd00146100d0578063715018a6146100f35780637ddc907d146100fd575b600080fd5b6100bb6100a63660046104e2565b60036020526000908152604090205460ff1681565b60405190151581526020015b60405180910390f35b6100bb6100de3660046104e2565b60009081526003602052604090205460ff1690565b6100fb610194565b005b6101056101a8565b6040516100c791906104fb565b6100bb610120366004610592565b610236565b6100fb610133366004610606565b610394565b6000546040516001600160a01b0390911681526020016100c7565b6101736101613660046104e2565b60046020526000908152604090205481565b6040519081526020016100c7565b6100fb61018f366004610648565b6103e7565b61019c610425565b6101a66000610452565b565b600280546101b590610678565b80601f01602080910402602001604051908101604052809291908181526020018280546101e190610678565b801561022e5780601f106102035761010080835404028352916020019161022e565b820191906000526020600020905b81548152906001019060200180831161021157829003601f168201915b505050505081565b60006102406104a2565b600086866040516102529291906106b2565b604080519182900390912060008181526003602052919091205490915060ff16156102bd5760405162461bcd60e51b8152602060048201526016602482015275141c9bdbd988185b1c9958591e481d995c9a599a595960521b60448201526064015b60405180910390fd5b6102c9878787876104cc565b91508115610327576000818152600360209081526040808320805460ff191660011790556004909152808220859055513391859184917fa766e317c9aa9c4adb6258faafbc4a2418a5d3aa8438a711cee8ea4342de6da091a4610381565b82817fefcde06254f91812412eeae55060960f092db74ee8236825cb4af7d30e1f90d9604051610378906020808252600d908201526c24b73b30b634b210383937b7b360991b604082015260600190565b60405180910390a35b5061038b60018055565b95945050505050565b61039c610425565b60026103a9828483610727565b507ff32f179b1b087536cdf732832f13af3fed219b7dadc1dbdb13acdadc0e1ae47282826040516103db9291906107e8565b60405180910390a15050565b6103ef610425565b6001600160a01b03811661041957604051631e4fbdf760e01b8152600060048201526024016102b4565b61042281610452565b50565b6000546001600160a01b031633146101a65760405163118cdaa760e01b81523360048201526024016102b4565b600080546001600160a01b038381166001600160a01b0319831681178455604051919092169283917f8be0079c531659141344cd1fd0a4f28419497f9722a3daafe3b4186f6b6457e09190a35050565b6002600154036104c557604051633ee5aeb560e01b815260040160405180910390fd5b6002600155565b6000831580159061038b57505015159392505050565b6000602082840312156104f457600080fd5b5035919050565b600060208083528351808285015260005b818110156105285785810183015185820160400152820161050c565b506000604082860101526040601f19601f8301168501019250505092915050565b60008083601f84011261055b57600080fd5b50813567ffffffffffffffff81111561057357600080fd5b60208301915083602082850101111561058b57600080fd5b9250929050565b6000806000806000606086880312156105aa57600080fd5b853567ffffffffffffffff808211156105c257600080fd5b6105ce89838a01610549565b909750955060208801359150808211156105e757600080fd5b506105f488828901610549565b96999598509660400135949350505050565b6000806020838503121561061957600080fd5b823567ffffffffffffffff81111561063057600080fd5b61063c85828601610549565b90969095509350505050565b60006020828403121561065a57600080fd5b81356001600160a01b038116811461067157600080fd5b9392505050565b600181811c9082168061068c57607f821691505b6020821081036106ac57634e487b7160e01b600052602260045260246000fd5b50919050565b8183823760009101908152919050565b634e487b7160e01b600052604160045260246000fd5b601f82111561072257600081815260208120601f850160051c810160208610156106ff5750805b601f850160051c820191505b8181101561071e5782815560010161070b565b5050505b505050565b67ffffffffffffffff83111561073f5761073f6106c2565b6107538361074d8354610678565b836106d8565b6000601f841160018114610787576000851561076f5750838201355b600019600387901b1c1916600186901b1783556107e1565b600083815260209020601f19861690835b828110156107b85786850135825560209485019460019092019101610798565b50868210156107d55760001960f88860031b161c19848701351681555b505060018560011b0183555b5050505050565b60208152816020820152818360408301376000818301604090810191909152601f909201601f1916010191905056fea2646970667358221220bc8e01175406235b9641116a6a5c24e0fa7a9837b5096bb3abc0c494e6df61c864736f6c63430008140033",
  "linkReferences": {},
  "deployedLinkReferences": {}
}