{"contracts/VInference.sol":{"NodeRegistry":{"abi":[{"inputs":[],"stateMutability":"nonpayable","type":"constructor"},{"inputs":[{"internalType":"address","name":"owner","type":"address"}],"name":"OwnableInvalidOwner","type":"error"},{"inputs":[{"internalType":"address","name":"account","type":"address"}],"name":"OwnableUnauthorizedAccount","type":"error"},{"anonymous":false,"inputs":[{"indexed":true,"internalType":"address","name":"nodeAddress","type":"address"}],"name":"NodeDeactivated","type":"event"},{"anonymous":false,"inputs":[{"indexed":true,"internalType":"address","name":"nodeAddress","type":"address"},{"indexed":false,"internalType":"string","name":"hardwareType","type":"string"}],"name":"NodeRegistered","type":"event"},{"anonymous":false,"inputs":[{"indexed":true,"internalType":"address","name":"nodeAddress","type":"address"},{"indexed":false,"internalType":"uint256","name":"newReputation","type":"uint256"}],"name":"NodeReputationUpdated","type":"event"},{"anonymous":false,"inputs":[{"indexed":true,"internalType":"address","name":"previousOwner","type":"address"},{"indexed":true,"internalType":"address","name":"newOwner","type":"address"}],"name":"OwnershipTransferred","type":"event"},{"inputs":[{"internalType":"address","name":"_nodeAddress","type":"address"}],"name":"deactivateNode","outputs":[],"stateMutability":"nonpayable","type":"function"},{"inputs":[],"name":"getActiveNodes","outputs":[{"internalType":"address[]","name":"","type":"address[]"}],"stateMutability":"view","type":"function"},{"inputs":[{"internalType":"address","name":"_nodeAddress","type":"address"}],"name":"getNode","outputs":[{"components":[{"internalType":"address","name":"nodeAddress","type":"address"},{"internalType":"string","name":"hardwareType","type":"string"},{"internalType":"uint256","name":"registrationTime","type":"uint256"},{"internalType":"bool","name":"isActive","type":"bool"},{"internalType":"uint256","name":"reputation","type":"uint256"},{"internalType":"uint256","name":"jobsCompleted","type":"uint256"}],"internalType":"struct NodeRegistry.Node","name":"","type":"tuple"}],"stateMutability":"view","type":"function"},{"inputs":[],"name":"getNodeCount","outputs":[{"internalType":"uint256","name":"","type":"uint256"}],"stateMutability":"view","type":"function"},{"inputs":[{"internalType":"address","name":"_nodeAddress","type":"address"}],"name":"incrementJobsCompleted","outputs":[],"stateMutability":"nonpayable","type":"function"},{"inputs":[{"internalType":"uint256","name":"","type":"uint256"}],"name":"nodeList","outputs":[{"internalType":"address","name":"","type":"address"}],"stateMutability":"view","type":"function"},{"inputs":[{"internalType":"address","name":"","type":"address"}],"name":"nodes","outputs":[{"internalType":"address","name":"nodeAddress","type":"address"},{"internalType":"string","name":"hardwareType","type":"string"},{"internalType":"uint256","name":"registrationTime","type":"uint256"},{"internalType":"bool","name":"isActive","type":"bool"},{"internalType":"uint256","name":"reputation","type":"uint256"},{"internalType":"uint256","name":"jobsCompleted","type":"uint256"}],"stateMutability":"view","type":"function"},{"inputs":[],"name":"owner","outputs":[{"internalType":"address","name":"","type":"address"}],"stateMutability":"view","type":"function"},{"inputs":[{"internalType":"string","name":"_hardwareType","type":"string"}],"name":"registerNode","outputs":[],"stateMutability":"nonpayable","type":"function"},{"inputs":[],"name":"renounceOwnership","outputs":[],"stateMutability":"nonpayable","type":"function"},{"inputs":[{"internalType":"address","name":"newOwner","type":"address"}],"name":"transferOwnership","outputs":[],"stateMutability":"nonpayable","type":"function"},{"inputs":[{"internalType":"address","name":"_nodeAddress","type":"address"},{"internalType":"uint256","name":"_delta","type":"uint256"},{"internalType":"bool","name":"_increase","type":"bool"}],"name":"updateReputation","outputs":[],"stateMutability":"nonpayable","type":"function"}],"evm":{"bytecode":{"linkReferences":{},"object":"608060405234801561001057600080fd5b50338061003757604051631e4fbdf760e01b81526000600482015260240160405180910390fd5b61004081610046565b50610096565b600080546001600160a01b038381166001600160a01b0319831681178455604051919092169283917f8be0079c531659141344cd1fd0a4f28419497f9722a3daafe3b4186f6b6457e09190a35050565b610ef2806100a56000396000f3fe608060405234801561001057600080fd5b50600436106100b45760003560e01c8063715018a611610071578063715018a6146101605780638da5cb5b146101685780639d20904814610179578063a7f491fb14610199578063ec604e46146101ac578063f2fde38b146101bf57600080fd5b8063189a5a17146100b9578063208f2a31146100e757806327c6f43e1461011257806339bf397e1461012757806365814455146101385780636b51e9191461014b575b600080fd5b6100cc6100c7366004610a68565b6101d2565b6040516100de96959493929190610ad0565b60405180910390f35b6100fa6100f5366004610b19565b61029f565b6040516001600160a01b0390911681526020016100de565b610125610120366004610b48565b6102c9565b005b6002546040519081526020016100de565b610125610146366004610a68565b610460565b610153610511565b6040516100de9190610bf9565b6101256106a9565b6000546001600160a01b03166100fa565b61018c610187366004610a68565b6106bd565b6040516100de9190610c46565b6101256101a7366004610a68565b6107f9565b6101256101ba366004610caa565b610830565b6101256101cd366004610a68565b610991565b6001602081905260009182526040909120805491810180546001600160a01b03909316926101ff90610cef565b80601f016020809104026020016040519081016040528092919081815260200182805461022b90610cef565b80156102785780601f1061024d57610100808354040283529160200191610278565b820191906000526020600020905b81548152906001019060200180831161025b57829003601f168201915b505050506002830154600384015460048501546005909501549394919360ff909116925086565b600281815481106102af57600080fd5b6000918252602090912001546001600160a01b0316905081565b3360009081526001602052604090206003015460ff16156103315760405162461bcd60e51b815260206004820152601760248201527f4e6f646520616c7265616479207265676973746572656400000000000000000060448201526064015b60405180910390fd5b6040805160c081018252338082526020808301858152428486015260016060850181905260646080860152600060a086018190529384529182905293909120825181546001600160a01b0319166001600160a01b0390911617815592519192919082019061039f9082610d78565b50604082810151600283810191909155606084015160038401805460ff19169115159190911790556080840151600484015560a09093015160059092019190915581546001810183556000929092527f405787fa12a823e0f2b7631cc41b3ba8828b3321ca811111fa75cd3aa3bb5ace9091018054336001600160a01b0319909116811790915590517f27dcab8cdfa14145566e2b9d04fea5a4e8ea320a3f04488a1de4d431ed1080ab90610455908490610e38565b60405180910390a250565b6104686109cf565b6001600160a01b03811660009081526001602052604090206003015460ff166104c55760405162461bcd60e51b815260206004820152600f60248201526e4e6f6465206e6f742061637469766560881b6044820152606401610328565b6001600160a01b038116600081815260016020526040808220600301805460ff19169055517fd9957750e6343405c319eb99a4ec67fa11cfd66969318cbc71aa2d45fa53a3499190a250565b60606000805b60025481101561058857600160006002838154811061053857610538610e4b565b60009182526020808320909101546001600160a01b0316835282019290925260400190206003015460ff1615610576578161057281610e77565b9250505b8061058081610e77565b915050610517565b5060008167ffffffffffffffff8111156105a4576105a4610b32565b6040519080825280602002602001820160405280156105cd578160200160208202803683370190505b5090506000805b6002548110156106a05760016000600283815481106105f5576105f5610e4b565b60009182526020808320909101546001600160a01b0316835282019290925260400190206003015460ff161561068e576002818154811061063857610638610e4b565b9060005260206000200160009054906101000a90046001600160a01b031683838151811061066857610668610e4b565b6001600160a01b03909216602092830291909101909101528161068a81610e77565b9250505b8061069881610e77565b9150506105d4565b50909392505050565b6106b16109cf565b6106bb60006109fc565b565b6107016040518060c0016040528060006001600160a01b03168152602001606081526020016000815260200160001515815260200160008152602001600081525090565b6001600160a01b03808316600090815260016020818152604092839020835160c081019094528054909416835290830180549293929184019161074390610cef565b80601f016020809104026020016040519081016040528092919081815260200182805461076f90610cef565b80156107bc5780601f10610791576101008083540402835291602001916107bc565b820191906000526020600020905b81548152906001019060200180831161079f57829003601f168201915b505050918352505060028201546020820152600382015460ff16151560408201526004820154606082015260059091015460809091015292915050565b6108016109cf565b6001600160a01b038116600090815260016020526040812060050180549161082883610e77565b919050555050565b6108386109cf565b6001600160a01b03831660009081526001602052604090206003015460ff166108955760405162461bcd60e51b815260206004820152600f60248201526e4e6f6465206e6f742061637469766560881b6044820152606401610328565b80156108d1576001600160a01b038316600090815260016020526040812060040180548492906108c6908490610e90565b9091555061093c9050565b6001600160a01b03831660009081526001602052604090206004015482101561091f576001600160a01b038316600090815260016020526040812060040180548492906108c6908490610ea9565b6001600160a01b0383166000908152600160205260408120600401555b6001600160a01b0383166000818152600160209081526040918290206004015491519182527ffd9057bf96855227cbd2c7feca318895bdc5771819fa73106e222bb9a49efe58910160405180910390a2505050565b6109996109cf565b6001600160a01b0381166109c357604051631e4fbdf760e01b815260006004820152602401610328565b6109cc816109fc565b50565b6000546001600160a01b031633146106bb5760405163118cdaa760e01b8152336004820152602401610328565b600080546001600160a01b038381166001600160a01b0319831681178455604051919092169283917f8be0079c531659141344cd1fd0a4f28419497f9722a3daafe3b4186f6b6457e09190a35050565b80356001600160a01b0381168114610a6357600080fd5b919050565b600060208284031215610a7a57600080fd5b610a8382610a4c565b9392505050565b6000815180845260005b81811015610ab057602081850181015186830182015201610a94565b506000602082860101526020601f19601f83011685010191505092915050565b6001600160a01b038716815260c060208201819052600090610af490830188610a8a565b6040830196909652509215156060840152608083019190915260a09091015292915050565b600060208284031215610b2b57600080fd5b5035919050565b634e487b7160e01b600052604160045260246000fd5b600060208284031215610b5a57600080fd5b813567ffffffffffffffff80821115610b7257600080fd5b818401915084601f830112610b8657600080fd5b813581811115610b9857610b98610b32565b604051601f8201601f19908116603f01168101908382118183101715610bc057610bc0610b32565b81604052828152876020848701011115610bd957600080fd5b826020860160208301376000928101602001929092525095945050505050565b6020808252825182820181905260009190848201906040850190845b81811015610c3a5783516001600160a01b031683529284019291840191600101610c15565b50909695505050505050565b602080825282516001600160a01b03168282015282015160c06040830152600090610c7460e0840182610a8a565b905060408401516060840152606084015115156080840152608084015160a084015260a084015160c08401528091505092915050565b600080600060608486031215610cbf57600080fd5b610cc884610a4c565b92506020840135915060408401358015158114610ce457600080fd5b809150509250925092565b600181811c90821680610d0357607f821691505b602082108103610d2357634e487b7160e01b600052602260045260246000fd5b50919050565b601f821115610d7357600081815260208120601f850160051c81016020861015610d505750805b601f850160051c820191505b81811015610d6f57828155600101610d5c565b5050505b505050565b815167ffffffffffffffff811115610d9257610d92610b32565b610da681610da08454610cef565b84610d29565b602080601f831160018114610ddb5760008415610dc35750858301515b600019600386901b1c1916600185901b178555610d6f565b600085815260208120601f198616915b82811015610e0a57888601518255948401946001909101908401610deb565b5085821015610e285787850151600019600388901b60f8161c191681555b5050505050600190811b01905550565b602081526000610a836020830184610a8a565b634e487b7160e01b600052603260045260246000fd5b634e487b7160e01b600052601160045260246000fd5b600060018201610e8957610e89610e61565b5060010190565b80820180821115610ea357610ea3610e61565b92915050565b81810381811115610ea357610ea3610e6156fea2646970667358221220393b28124053656e96dd26898fee1589a7d4f56d9edec47ebc71dcf3bd3fffb564736f6c63430008140033","opcodes":"PUSH1 0x80 PUSH1 0x40 MSTORE CALLVALUE DUP1 ISZERO PUSH2 0x10 JUMPI PUSH1 0x0 DUP1 REVERT JUMPDEST POP CALLER DUP1 PUSH2 0x37 JUMPI PUSH1 0x40 MLOAD PUSH4 0x1E4FBDF7 PUSH1 0xE0 SHL DUP2 MSTORE PUSH1 0x0 PUSH1 0x4 DUP3 ADD MSTORE PUSH1 0x24 ADD PUSH1 0x40 MLOAD DUP1 SWAP2 SUB SWAP1 REVERT JUMPDEST PUSH2 0x40 DUP2 PUSH2 0x46 JUMP JUMPDEST POP PUSH2 0x96 JUMP JUMPDEST PUSH1 0x0 DUP1 SLOAD PUSH1 0x1 PUSH1 0x1 PUSH1 0xA0 SHL SUB DUP4 DUP2 AND PUSH1 0x1 PUSH1 0x1 PUSH1 0xA0 SHL SUB NOT DUP4 AND DUP2 OR DUP5 SSTORE PUSH1 0x40 MLOAD SWAP2 SWAP1 SWAP3 AND SWAP3 DUP4 SWAP2 PUSH32 0x8BE0079C531659141344CD1FD0A4F28419497F9722A3DAAFE3B4186F6B6457E0 SWAP2 SWAP1 LOG3 POP POP JUMP JUMPDEST PUSH2 0xEF2 DUP1 PUSH2 0xA5 PUSH1 0x0 CODECOPY PUSH1 0x0 RETURN INVALID PUSH1 0x80 PUSH1 0x40 MSTORE CALLVALUE DUP1 ISZERO PUSH2 0x10 JUMPI PUSH1 0x0 DUP1 REVERT JUMPDEST POP PUSH1 0x4 CALLDATASIZE LT PUSH2 0xB4 JUMPI PUSH1 0x0 CALLDATALOAD PUSH1 0xE0 SHR DUP1 PUSH4 0x715018A6 GT PUSH2 0x71 JUMPI DUP1 PUSH4 0x715018A6 EQ PUSH2 0x160 JUMPI DUP1 PUSH4 0x8DA5CB5B EQ PUSH2 0x168 JUMPI DUP1 PUSH4 0x9D209048 EQ PUSH2 0x179 JUMPI DUP1 PUSH4 0xA7F491FB EQ PUSH2 0x199 JUMPI DUP1 PUSH4 0xEC604E46 EQ PUSH2 0x1AC JUMPI DUP1 PUSH4 0xF2FDE38B EQ PUSH2 0x1BF JUMPI PUSH1 0x0 DUP1 REVERT JUMPDEST DUP1 PUSH4 0x189A5A17 EQ PUSH2 0xB9 JUMPI DUP1 PUSH4 0x208F2A31 EQ PUSH2 0xE7 JUMPI DUP1 PUSH4 0x27C6F43E EQ PUSH2 0x112 JUMPI DUP1 PUSH4 0x39BF397E EQ PUSH2 0x127 JUMPI DUP1 PUSH4 0x65814455 EQ PUSH2 0x138 JUMPI DUP1 PUSH4 0x6B51E919 EQ PUSH2 0x14B JUMPI JUMPDEST PUSH1 0x0 DUP1 REVERT JUMPDEST PUSH2 0xCC PUSH2 0xC7 CALLDATASIZE PUSH1 0x4 PUSH2 0xA68 JUMP JUMPDEST PUSH2 0x1D2 JUMP JUMPDEST PUSH1 0x40 MLOAD PUSH2 0xDE SWAP7 SWAP6 SWAP5 SWAP4 SWAP3 SWAP2 SWAP1 PUSH2 0xAD0 JUMP JUMPDEST PUSH1 0x40 MLOAD DUP1 SWAP2 SUB SWAP1 RETURN JUMPDEST PUSH2 0xFA PUSH2 0xF5 CALLDATASIZE PUSH1 0x4 PUSH2 0xB19 JUMP JUMPDEST PUSH2 0x29F JUMP JUMPDEST PUSH1 0x40 MLOAD PUSH1 0x1 PUSH1 0x1 PUSH1 0xA0 SHL SUB SWAP1 SWAP2 AND DUP2 MSTORE PUSH1 0x20 ADD PUSH2 0xDE JUMP JUMPDEST PUSH2 0x125 PUSH2 0x120 CALLDATASIZE PUSH1 0x4 PUSH2 0xB48 JUMP JUMPDEST PUSH2 0x2C9 JUMP JUMPDEST STOP JUMPDEST PUSH1 0x2 SLOAD PUSH1 0x40 MLOAD SWAP1 DUP2 MSTORE PUSH1 0x20 ADD PUSH2 0xDE JUMP JUMPDEST PUSH2 0x125 PUSH2 0x146 CALLDATASIZE PUSH1 0x4 PUSH2 0xA68 JUMP JUMPDEST PUSH2 0x460 JUMP JUMPDEST PUSH2 0x153 PUSH2 0x511 JUMP JUMPDEST PUSH1 0x40 MLOAD PUSH2 0xDE SWAP2 SWAP1 PUSH2 0xBF9 JUMP JUMPDEST PUSH2 0x125 PUSH2 0x6A9 JUMP JUMPDEST PUSH1 0x0 SLOAD PUSH1 0x1 PUSH1 0x1 PUSH1 0xA0 SHL SUB AND PUSH2 0xFA JUMP JUMPDEST PUSH2 0x18C PUSH2 0x187 CALLDATASIZE PUSH1 0x4 PUSH2 0xA68 JUMP JUMPDEST PUSH2 0x6BD JUMP JUMPDEST PUSH1 0x40 MLOAD PUSH2 0xDE SWAP2 SWAP1 PUSH2 0xC46 JUMP JUMPDEST PUSH2 0x125 PUSH2 0x1A7 CALLDATASIZE PUSH1 0x4 PUSH2 0xA68 JUMP JUMPDEST PUSH2 0x7F9 JUMP JUMPDEST PUSH2 0x125 PUSH2 0x1BA CALLDATASIZE PUSH1 0x4 PUSH2 0xCAA JUMP JUMPDEST PUSH2 0x830 JUMP JUMPDEST PUSH2 0x125 PUSH2 0x1CD CALLDATASIZE PUSH1 0x4 PUSH2 0xA68 JUMP JUMPDEST PUSH2 0x991 JUMP JUMPDEST PUSH1 0x1 PUSH1 0x20 DUP2 SWAP1 MSTORE PUSH1 0x0 SWAP2 DUP3 MSTORE PUSH1 0x40 SWAP1 SWAP2 KECCAK256 DUP1 SLOAD SWAP2 DUP2 ADD DUP1 SLOAD PUSH1 0x1 PUSH1 0x1 PUSH1 0xA0 SHL SUB SWAP1 SWAP4 AND SWAP3 PUSH2 0x1FF SWAP1 PUSH2 0xCEF JUMP JUMPDEST DUP1 PUSH1 0x1F ADD PUSH1 0x20 DUP1 SWAP2 DIV MUL PUSH1 0x20 ADD PUSH1 0x40 MLOAD SWAP1 DUP2 ADD PUSH1 0x40 MSTORE DUP1 SWAP3 SWAP2 SWAP1 DUP2 DUP2 MSTORE PUSH1 0x20 ADD DUP3 DUP1 SLOAD PUSH2 0x22B SWAP1 PUSH2 0xCEF JUMP JUMPDEST DUP1 ISZERO PUSH2 0x278 JUMPI DUP1 PUSH1 0x1F LT PUSH2 0x24D JUMPI PUSH2 0x100 DUP1 DUP4 SLOAD DIV MUL DUP4 MSTORE SWAP2 PUSH1 0x20 ADD SWAP2 PUSH2 0x278 JUMP JUMPDEST DUP3 ADD SWAP2 SWAP1 PUSH1 0x0 MSTORE PUSH1 0x20 PUSH1 0x0 KECCAK256 SWAP1 JUMPDEST DUP2 SLOAD DUP2 MSTORE SWAP1 PUSH1 0x1 ADD SWAP1 PUSH1 0x20 ADD DUP1 DUP4 GT PUSH2 0x25B JUMPI DUP3 SWAP1 SUB PUSH1 0x1F AND DUP3 ADD SWAP2 JUMPDEST POP POP POP POP PUSH1 0x2 DUP4 ADD SLOAD PUSH1 0x3 DUP5 ADD SLOAD PUSH1 0x4 DUP6 ADD SLOAD PUSH1 0x5 SWAP1 SWAP6 ADD SLOAD SWAP4 SWAP5 SWAP2 SWAP4 PUSH1 0xFF SWAP1 SWAP2 AND SWAP3 POP DUP7 JUMP JUMPDEST PUSH1 0x2 DUP2 DUP2 SLOAD DUP2 LT PUSH2 0x2AF JUMPI PUSH1 0x0 DUP1 REVERT JUMPDEST PUSH1 0x0 SWAP2 DUP3 MSTORE PUSH1 0x20 SWAP1 SWAP2 KECCAK256 ADD SLOAD PUSH1 0x1 PUSH1 0x1 PUSH1 0xA0 SHL SUB AND SWAP1 POP DUP2 JUMP JUMPDEST CALLER PUSH1 0x0 SWAP1 DUP2 MSTORE PUSH1 0x1 PUSH1 0x20 MSTORE PUSH1 0x40 SWAP1 KECCAK256 PUSH1 0x3 ADD SLOAD PUSH1 0xFF AND ISZERO PUSH2 0x331 JUMPI PUSH1 0x40 MLOAD PUSH3 0x461BCD PUSH1 0xE5 SHL DUP2 MSTORE PUSH1 0x20 PUSH1 0x4 DUP3 ADD MSTORE PUSH1 0x17 PUSH1 0x24 DUP3 ADD MSTORE PUSH32 0x4E6F646520616C72656164792072656769737465726564000000000000000000 PUSH1 0x44 DUP3 ADD MSTORE PUSH1 0x64 ADD JUMPDEST PUSH1 0x40 MLOAD DUP1 SWAP2 SUB SWAP1 REVERT JUMPDEST PUSH1 0x40 DUP1 MLOAD PUSH1 0xC0 DUP2 ADD DUP3 MSTORE CALLER DUP1 DUP3 MSTORE PUSH1 0x20 DUP1 DUP4 ADD DUP6 DUP2 MSTORE TIMESTAMP DUP5 DUP7 ADD MSTORE PUSH1 0x1 PUSH1 0x60 DUP6 ADD DUP2 SWAP1 MSTORE PUSH1 0x64 PUSH1 0x80 DUP7 ADD MSTORE PUSH1 0x0 PUSH1 0xA0 DUP7 ADD DUP2 SWAP1 MSTORE SWAP4 DUP5 MSTORE SWAP2 DUP3 SWAP1 MSTORE SWAP4 SWAP1 SWAP2 KECCAK256 DUP3 MLOAD DUP2 SLOAD PUSH1 0x1 PUSH1 0x1 PUSH1 0xA0 SHL SUB NOT AND PUSH1 0x1 PUSH1 0x1 PUSH1 0xA0 SHL SUB SWAP1 SWAP2 AND OR DUP2 SSTORE SWAP3 MLOAD SWAP2 SWAP3 SWAP2 SWAP1 DUP3 ADD SWAP1 PUSH2 0x39F SWAP1 DUP3 PUSH2 0xD78 JUMP JUMPDEST POP PUSH1 0x40 DUP3 DUP2 ADD MLOAD PUSH1 0x2 DUP4 DUP2 ADD SWAP2 SWAP1 SWAP2 SSTORE PUSH1 0x60 DUP5 ADD MLOAD PUSH1 0x3 DUP5 ADD DUP1 SLOAD PUSH1 0xFF NOT AND SWAP2 ISZERO ISZERO SWAP2 SWAP1 SWAP2 OR SWAP1 SSTORE PUSH1 0x80 DUP5 ADD MLOAD PUSH1 0x4 DUP5 ADD SSTORE PUSH1 0xA0 SWAP1 SWAP4 ADD MLOAD PUSH1 0x5 SWAP1 SWAP3 ADD SWAP2 SWAP1 SWAP2 SSTORE DUP2 SLOAD PUSH1 0x1 DUP2 ADD DUP4 SSTORE PUSH1 0x0 SWAP3 SWAP1 SWAP3 MSTORE PUSH32 0x405787FA12A823E0F2B7631CC41B3BA8828B3321CA811111FA75CD3AA3BB5ACE SWAP1 SWAP2 ADD DUP1 SLOAD CALLER PUSH1 0x1 PUSH1 0x1 PUSH1 0xA0 SHL SUB NOT SWAP1 SWAP2 AND DUP2 OR SWAP1 SWAP2 SSTORE SWAP1 MLOAD PUSH32 0x27DCAB8CDFA14145566E2B9D04FEA5A4E8EA320A3F04488A1DE4D431ED1080AB SWAP1 PUSH2 0x455 SWAP1 DUP5 SWAP1 PUSH2 0xE38 JUMP JUMPDEST PUSH1 0x40 MLOAD DUP1 SWAP2 SUB SWAP1 LOG2 POP JUMP JUMPDEST PUSH2 0x468 PUSH2 0x9CF JUMP JUMPDEST PUSH1 0x1 PUSH1 0x1 PUSH1 0xA0 SHL SUB DUP2 AND PUSH1 0x0 SWAP1 DUP2 MSTORE PUSH1 0x1 PUSH1 0x20 MSTORE PUSH1 0x40 SWAP1 KECCAK256 PUSH1 0x3 ADD SLOAD PUSH1 0xFF AND PUSH2 0x4C5 JUMPI PUSH1 0x40 MLOAD PUSH3 0x461BCD PUSH1 0xE5 SHL DUP2 MSTORE PUSH1 0x20 PUSH1 0x4 DUP3 ADD MSTORE PUSH1 0xF PUSH1 0x24 DUP3 ADD MSTORE PUSH15 0x4E6F6465206E6F7420616374697665 PUSH1 0x88 SHL PUSH1 0x44 DUP3 ADD MSTORE PUSH1 0x64 ADD PUSH2 0x328 JUMP JUMPDEST PUSH1 0x1 PUSH1 0x1 PUSH1 0xA0 SHL SUB DUP2 AND PUSH1 0x0 DUP2 DUP2 MSTORE PUSH1 0x1 PUSH1 0x20 MSTORE PUSH1 0x40 DUP1 DUP3 KECCAK256 PUSH1 0x3 ADD DUP1 SLOAD PUSH1 0xFF NOT AND SWAP1 SSTORE MLOAD PUSH32 0xD9957750E6343405C319EB99A4EC67FA11CFD66969318CBC71AA2D45FA53A349 SWAP2 SWAP1 LOG2 POP JUMP JUMPDEST PUSH1 0x60 PUSH1 0x0 DUP1 JUMPDEST PUSH1 0x2 SLOAD DUP2 LT ISZERO PUSH2 0x588 JUMPI PUSH1 0x1 PUSH1 0x0 PUSH1 0x2 DUP4 DUP2 SLOAD DUP2 LT PUSH2 0x538 JUMPI PUSH2 0x538 PUSH2 0xE4B JUMP JUMPDEST PUSH1 0x0 SWAP2 DUP3 MSTORE PUSH1 0x20 DUP1 DUP4 KECCAK256 SWAP1 SWAP2 ADD SLOAD PUSH1 0x1 PUSH1 0x1 PUSH1 0xA0 SHL SUB AND DUP4 MSTORE DUP3 ADD SWAP3 SWAP1 SWAP3 MSTORE PUSH1 0x40 ADD SWAP1 KECCAK256 PUSH1 0x3 ADD SLOAD PUSH1 0xFF AND ISZERO PUSH2 0x576 JUMPI DUP2 PUSH2 0x572 DUP2 PUSH2 0xE77 JUMP JUMPDEST SWAP3 POP POP JUMPDEST DUP1 PUSH2 0x580 DUP2 PUSH2 0xE77 JUMP JUMPDEST SWAP2 POP POP PUSH2 0x517 JUMP JUMPDEST POP PUSH1 0x0 DUP2 PUSH8 0xFFFFFFFFFFFFFFFF DUP2 GT ISZERO PUSH2 0x5A4 JUMPI PUSH2 0x5A4 PUSH2 0xB32 JUMP JUMPDEST PUSH1 0x40 MLOAD SWAP1 DUP1 DUP3 MSTORE DUP1 PUSH1 0x20 MUL PUSH1 0x20 ADD DUP3 ADD PUSH1 0x40 MSTORE DUP1 ISZERO PUSH2 0x5CD JUMPI DUP2 PUSH1 0x20 ADD PUSH1 0x20 DUP3 MUL DUP1 CALLDATASIZE DUP4 CALLDATACOPY ADD SWAP1 POP JUMPDEST POP SWAP1 POP PUSH1 0x0 DUP1 JUMPDEST PUSH1 0x2 SLOAD DUP2 LT ISZERO PUSH2 0x6A0 JUMPI PUSH1 0x1 PUSH1 0x0 PUSH1 0x2 DUP4 DUP2 SLOAD DUP2 LT PUSH2 0x5F5 JUMPI PUSH2 0x5F5 PUSH2 0xE4B JUMP JUMPDEST PUSH1 0x0 SWAP2 DUP3 MSTORE PUSH1 0x20 DUP1 DUP4 KECCAK256 SWAP1 SWAP2 ADD SLOAD PUSH1 0x1 PUSH1 0x1 PUSH1 0xA0 SHL SUB AND DUP4 MSTORE DUP3 ADD SWAP3 SWAP1 SWAP3 MSTORE PUSH1 0x40 ADD SWAP1 KECCAK256 PUSH1 0x3 ADD SLOAD PUSH1 0xFF AND ISZERO PUSH2 0x68E JUMPI PUSH1 0x2 DUP2 DUP2 SLOAD DUP2 LT PUSH2 0x638 JUMPI PUSH2 0x638 PUSH2 0xE4B JUMP JUMPDEST SWAP1 PUSH1 0x0 MSTORE PUSH1 0x20 PUSH1 0x0 KECCAK256 ADD PUSH1 0x0 SWAP1 SLOAD SWAP1 PUSH2 0x100 EXP SWAP1 DIV PUSH1 0x1 PUSH1 0x1 PUSH1 0xA0 SHL SUB AND DUP4 DUP4 DUP2 MLOAD DUP2 LT PUSH2 0x668 JUMPI PUSH2 0x668 PUSH2 0xE4B JUMP JUMPDEST PUSH1 0x1 PUSH1 0x1 PUSH1 0xA0 SHL SUB SWAP1 SWAP3 AND PUSH1 0x20 SWAP3 DUP4 MUL SWAP2 SWAP1 SWAP2 ADD SWAP1 SWAP2 ADD MSTORE DUP2 PUSH2 0x68A DUP2 PUSH2 0xE77 JUMP JUMPDEST SWAP3 POP POP JUMPDEST DUP1 PUSH2 0x698 DUP2 PUSH2 0xE77 JUMP JUMPDEST SWAP2 POP POP PUSH2 0x5D4 JUMP JUMPDEST POP SWAP1 SWAP4 SWAP3 POP POP POP JUMP JUMPDEST PUSH2 0x6B1 PUSH2 0x9CF JUMP JUMPDEST PUSH2 0x6BB PUSH1 0x0 PUSH2 0x9FC JUMP JUMPDEST JUMP JUMPDEST PUSH2 0x701 PUSH1 0x40 MLOAD DUP1 PUSH1 0xC0 ADD PUSH1 0x40 MSTORE DUP1 PUSH1 0x0 PUSH1 0x1 PUSH1 0x1 PUSH1 0xA0 SHL SUB AND DUP2 MSTORE PUSH1 0x20 ADD PUSH1 0x60 DUP2 MSTORE PUSH1 0x20 ADD PUSH1 0x0 DUP2 MSTORE PUSH1 0x20 ADD PUSH1 0x0 ISZERO ISZERO DUP2 MSTORE PUSH1 0x20 ADD PUSH1 0x0 DUP2 MSTORE PUSH1 0x20 ADD PUSH1 0x0 DUP2 MSTORE POP SWAP1 JUMP JUMPDEST PUSH1 0x1 PUSH1 0x1 PUSH1 0xA0 SHL SUB DUP1 DUP4 AND PUSH1 0x0 SWAP1 DUP2 MSTORE PUSH1 0x1 PUSH1 0x20 DUP2 DUP2 MSTORE PUSH1 0x40 SWAP3 DUP4 SWAP1 KECCAK256 DUP4 MLOAD PUSH1 0xC0 DUP2 ADD SWAP1 SWAP5 MSTORE DUP1 SLOAD SWAP1 SWAP5 AND DUP4 MSTORE SWAP1 DUP4 ADD DUP1 SLOAD SWAP3 SWAP4 SWAP3 SWAP2 DUP5 ADD SWAP2 PUSH2 0x743 SWAP1 PUSH2 0xCEF JUMP JUMPDEST DUP1 PUSH1 0x1F ADD PUSH1 0x20 DUP1 SWAP2 DIV MUL PUSH1 0x20 ADD PUSH1 0x40 MLOAD SWAP1 DUP2 ADD PUSH1 0x40 MSTORE DUP1 SWAP3 SWAP2 SWAP1 DUP2 DUP2 MSTORE PUSH1 0x20 ADD DUP3 DUP1 SLOAD PUSH2 0x76F SWAP1 PUSH2 0xCEF JUMP JUMPDEST DUP1 ISZERO PUSH2 0x7BC JUMPI DUP1 PUSH1 0x1F LT PUSH2 0x791 JUMPI PUSH2 0x100 DUP1 DUP4 SLOAD DIV MUL DUP4 MSTORE SWAP2 PUSH1 0x20 ADD SWAP2 PUSH2 0x7BC JUMP JUMPDEST DUP3 ADD SWAP2 SWAP1 PUSH1 0x0 MSTORE PUSH1 0x20 PUSH1 0x0 KECCAK256 SWAP1 JUMPDEST DUP2 SLOAD DUP2 MSTORE SWAP1 PUSH1 0x1 ADD SWAP1 PUSH1 0x20 ADD DUP1 DUP4 GT PUSH2 0x79F JUMPI DUP3 SWAP1 SUB PUSH1 0x1F AND DUP3 ADD SWAP2 JUMPDEST POP POP POP SWAP2 DUP4 MSTORE POP POP PUSH1 0x2 DUP3 ADD SLOAD PUSH1 0x20 DUP3 ADD MSTORE PUSH1 0x3 DUP3 ADD SLOAD PUSH1 0xFF AND ISZERO ISZERO PUSH1 0x40 DUP3 ADD MSTORE PUSH1 0x4 DUP3 ADD SLOAD PUSH1 0x60 DUP3 ADD MSTORE PUSH1 0x5 SWAP1 SWAP2 ADD SLOAD PUSH1 0x80 SWAP1 SWAP2 ADD MSTORE SWAP3 SWAP2 POP POP JUMP JUMPDEST PUSH2 0x801 PUSH2 0x9CF JUMP JUMPDEST PUSH1 0x1 PUSH1 0x1 PUSH1 0xA0 SHL SUB DUP2 AND PUSH1 0x0 SWAP1 DUP2 MSTORE PUSH1 0x1 PUSH1 0x20 MSTORE PUSH1 0x40 DUP2 KECCAK256 PUSH1 0x5 ADD DUP1 SLOAD SWAP2 PUSH2 0x828 DUP4 PUSH2 0xE77 JUMP JUMPDEST SWAP2 SWAP1 POP SSTORE POP POP JUMP JUMPDEST PUSH2 0x838 PUSH2 0x9CF JUMP JUMPDEST PUSH1 0x1 PUSH1 0x1 PUSH1 0xA0 SHL SUB DUP4 AND PUSH1 0x0 SWAP1 DUP2 MSTORE PUSH1 0x1 PUSH1 0x20 MSTORE PUSH1 0x40 SWAP1 KECCAK256 PUSH1 0x3 ADD SLOAD PUSH1 0xFF AND PUSH2 0x895 JUMPI PUSH1 0x40 MLOAD PUSH3 0x461BCD PUSH1 0xE5 SHL DUP2 MSTORE PUSH1 0x20 PUSH1 0x4 DUP3 ADD MSTORE PUSH1 0xF PUSH1 0x24 DUP3 ADD MSTORE PUSH15 0x4E6F6465206E6F7420616374697665 PUSH1 0x88 SHL PUSH1 0x44 DUP3 ADD MSTORE PUSH1 0x64 ADD PUSH2 0x328 JUMP JUMPDEST DUP1 ISZERO PUSH2 0x8D1 JUMPI PUSH1 0x1 PUSH1 0x1 PUSH1 0xA0 SHL SUB DUP4 AND PUSH1 0x0 SWAP1 DUP2 MSTORE PUSH1 0x1 PUSH1 0x20 MSTORE PUSH1 0x40 DUP2 KECCAK256 PUSH1 0x4 ADD DUP1 SLOAD DUP5 SWAP3 SWAP1 PUSH2 0x8C6 SWAP1 DUP5 SWAP1 PUSH2 0xE90 JUMP JUMPDEST SWAP1 SWAP2 SSTORE POP PUSH2 0x93C SWAP1 POP JUMP JUMPDEST PUSH1 0x1 PUSH1 0x1 PUSH1 0xA0 SHL SUB DUP4 AND PUSH1 0x0 SWAP1 DUP2 MSTORE PUSH1 0x1 PUSH1 0x20 MSTORE PUSH1 0x40 SWAP1 KECCAK256 PUSH1 0x4 ADD SLOAD DUP3 LT ISZERO PUSH2 0x91F JUMPI PUSH1 0x1 PUSH1 0x1 PUSH1 0xA0 SHL SUB DUP4 AND PUSH1 0x0 SWAP1 DUP2 MSTORE PUSH1 0x1 PUSH1 0x20 MSTORE PUSH1 0x40 DUP2 KECCAK256 PUSH1 0x4 ADD DUP1 SLOAD DUP5 SWAP3 SWAP1 PUSH2 0x8C6 SWAP1 DUP5 SWAP1 PUSH2 0xEA9 JUMP JUMPDEST PUSH1 0x1 PUSH1 0x1 PUSH1 0xA0 SHL SUB DUP4 AND PUSH1 0x0 SWAP1 DUP2 MSTORE PUSH1 0x1 PUSH1 0x20 MSTORE PUSH1 0x40 DUP2 KECCAK256 PUSH1 0x4 ADD SSTORE JUMPDEST PUSH1 0x1 PUSH1 0x1 PUSH1 0xA0 SHL SUB DUP4 AND PUSH1 0x0 DUP2 DUP2 MSTORE PUSH1 0x1 PUSH1 0x20 SWAP1 DUP2 MSTORE PUSH1 0x40 SWAP2 DUP3 SWAP1 KECCAK256 PUSH1 0x4 ADD SLOAD SWAP2 MLOAD SWAP2 DUP3 MSTORE PUSH32 0xFD9057BF96855227CBD2C7FECA318895BDC5771819FA73106E222BB9A49EFE58 SWAP2 ADD PUSH1 0x40 MLOAD DUP1 SWAP2 SUB SWAP1 LOG2 POP POP POP JUMP JUMPDEST PUSH2 0x999 PUSH2 0x9CF JUMP JUMPDEST PUSH1 0x1 PUSH1 0x1 PUSH1 0xA0 SHL SUB DUP2 AND PUSH2 0x9C3 JUMPI PUSH1 0x40 MLOAD PUSH4 0x1E4FBDF7 PUSH1 0xE0 SHL DUP2 MSTORE PUSH1 0x0 PUSH1 0x4 DUP3 ADD MSTORE PUSH1 0x24 ADD PUSH2 0x328 JUMP JUMPDEST PUSH2 0x9CC DUP2 PUSH2 0x9FC JUMP JUMPDEST POP JUMP JUMPDEST PUSH1 0x0 SLOAD PUSH1 0x1 PUSH1 0x1 PUSH1 0xA0 SHL SUB AND CALLER EQ PUSH2 0x6BB JUMPI PUSH1 0x40 MLOAD PUSH4 0x118CDAA7 PUSH1 0xE0 SHL DUP2 MSTORE CALLER PUSH1 0x4 DUP3 ADD MSTORE PUSH1 0x24 ADD PUSH2 0x328 JUMP JUMPDEST PUSH1 0x0 DUP1 SLOAD PUSH1 0x1 PUSH1 0x1 PUSH1 0xA0 SHL SUB DUP4 DUP2 AND PUSH1 0x1 PUSH1 0x1 PUSH1 0xA0 SHL SUB NOT DUP4 AND DUP2 OR DUP5 SSTORE PUSH1 0x40 MLOAD SWAP2 SWAP1 SWAP3 AND SWAP3 DUP4 SWAP2 PUSH32 0x8BE0079C531659141344CD1FD0A4F28419497F9722A3DAAFE3B4186F6B6457E0 SWAP2 SWAP1 LOG3 POP POP JUMP JUMPDEST DUP1 CALLDATALOAD PUSH1 0x1 PUSH1 0x1 PUSH1 0xA0 SHL SUB DUP2 AND DUP2 EQ PUSH2 0xA63 JUMPI PUSH1 0x0 DUP1 REVERT JUMPDEST SWAP2 SWAP1 POP JUMP JUMPDEST PUSH1 0x0 PUSH1 0x20 DUP3 DUP5 SUB SLT ISZERO PUSH2 0xA7A JUMPI PUSH1 0x0 DUP1 REVERT JUMPDEST PUSH2 0xA83 DUP3 PUSH2 0xA4C JUMP JUMPDEST SWAP4 SWAP3 POP POP POP JUMP JUMPDEST PUSH1 0x0 DUP2 MLOAD DUP1 DUP5 MSTORE PUSH1 0x0 JUMPDEST DUP2 DUP2 LT ISZERO PUSH2 0xAB0 JUMPI PUSH1 0x20 DUP2 DUP6 ADD DUP2 ADD MLOAD DUP7 DUP4 ADD DUP3 ADD MSTORE ADD PUSH2 0xA94 JUMP JUMPDEST POP PUSH1 0x0 PUSH1 0x20 DUP3 DUP7 ADD ADD MSTORE PUSH1 0x20 PUSH1 0x1F NOT PUSH1 0x1F DUP4 ADD AND DUP6 ADD ADD SWAP2 POP POP SWAP3 SWAP2 POP POP JUMP JUMPDEST PUSH1 0x1 PUSH1 0x1 PUSH1 0xA0 SHL SUB DUP8 AND DUP2 MSTORE PUSH1 0xC0 PUSH1 0x20 DUP3 ADD DUP2 SWAP1 MSTORE PUSH1 0x0 SWAP1 PUSH2 0xAF4 SWAP1 DUP4 ADD DUP9 PUSH2 0xA8A JUMP JUMPDEST PUSH1 0x40 DUP4 ADD SWAP7 SWAP1 SWAP7 MSTORE POP SWAP3 ISZERO ISZERO PUSH1 0x60 DUP5 ADD MSTORE PUSH1 0x80 DUP4 ADD SWAP2 SWAP1 SWAP2 MSTORE PUSH1 0xA0 SWAP1 SWAP2 ADD MSTORE SWAP3 SWAP2 POP POP JUMP JUMPDEST PUSH1 0x0 PUSH1 0x20 DUP3 DUP5 SUB SLT ISZERO PUSH2 0xB2B JUMPI PUSH1 0x0 DUP1 REVERT JUMPDEST POP CALLDATALOAD SWAP2 SWAP1 POP JUMP JUMPDEST PUSH4 0x4E487B71 PUSH1 0xE0 SHL PUSH1 0x0 MSTORE PUSH1 0x41 PUSH1 0x4 MSTORE PUSH1 0x24 PUSH1 0x0 REVERT JUMPDEST PUSH1 0x0 PUSH1 0x20 DUP3 DUP5 SUB SLT ISZERO PUSH2 0xB5A JUMPI PUSH1 0x0 DUP1 REVERT JUMPDEST DUP2 CALLDATALOAD PUSH8 0xFFFFFFFFFFFFFFFF DUP1 DUP3 GT ISZERO PUSH2 0xB72 JUMPI PUSH1 0x0 DUP1 REVERT JUMPDEST DUP2 DUP5 ADD SWAP2 POP DUP5 PUSH1 0x1F DUP4 ADD SLT PUSH2 0xB86 JUMPI PUSH1 0x0 DUP1 REVERT JUMPDEST DUP2 CALLDATALOAD DUP2 DUP2 GT ISZERO PUSH2 0xB98 JUMPI PUSH2 0xB98 PUSH2 0xB32 JUMP JUMPDEST PUSH1 0x40 MLOAD PUSH1 0x1F DUP3 ADD PUSH1 0x1F NOT SWAP1 DUP2 AND PUSH1 0x3F ADD AND DUP2 ADD SWAP1 DUP4 DUP3 GT DUP2 DUP4 LT OR ISZERO PUSH2 0xBC0 JUMPI PUSH2 0xBC0 PUSH2 0xB32 JUMP JUMPDEST DUP2 PUSH1 0x40 MSTORE DUP3 DUP2 MSTORE DUP8 PUSH1 0x20 DUP5 DUP8 ADD ADD GT ISZERO PUSH2 0xBD9 JUMPI PUSH1 0x0 DUP1 REVERT JUMPDEST DUP3 PUSH1 0x20 DUP7 ADD PUSH1 0x20 DUP4 ADD CALLDATACOPY PUSH1 0x0 SWAP3 DUP2 ADD PUSH1 0x20 ADD SWAP3 SWAP1 SWAP3 MSTORE POP SWAP6 SWAP5 POP POP POP POP POP JUMP JUMPDEST PUSH1 0x20 DUP1 DUP3 MSTORE DUP3 MLOAD DUP3 DUP3 ADD DUP2 SWAP1 MSTORE PUSH1 0x0 SWAP2 SWAP1 DUP5 DUP3 ADD SWAP1 PUSH1 0x40 DUP6 ADD SWAP1 DUP5 JUMPDEST DUP2 DUP2 LT ISZERO PUSH2 0xC3A JUMPI DUP4 MLOAD PUSH1 0x1 PUSH1 0x1 PUSH1 0xA0 SHL SUB AND DUP4 MSTORE SWAP3 DUP5 ADD SWAP3 SWAP2 DUP5 ADD SWAP2 PUSH1 0x1 ADD PUSH2 0xC15 JUMP JUMPDEST POP SWAP1 SWAP7 SWAP6 POP POP POP POP POP POP JUMP JUMPDEST PUSH1 0x20 DUP1 DUP3 MSTORE DUP3 MLOAD PUSH1 0x1 PUSH1 0x1 PUSH1 0xA0 SHL SUB AND DUP3 DUP3 ADD MSTORE DUP3 ADD MLOAD PUSH1 0xC0 PUSH1 0x40 DUP4 ADD MSTORE PUSH1 0x0 SWAP1 PUSH2 0xC74 PUSH1 0xE0 DUP5 ADD DUP3 PUSH2 0xA8A JUMP JUMPDEST SWAP1 POP PUSH1 0x40 DUP5 ADD MLOAD PUSH1 0x60 DUP5 ADD MSTORE PUSH1 0x60 DUP5 ADD MLOAD ISZERO ISZERO PUSH1 0x80 DUP5 ADD MSTORE PUSH1 0x80 DUP5 ADD MLOAD PUSH1 0xA0 DUP5 ADD MSTORE PUSH1 0xA0 DUP5 ADD MLOAD PUSH1 0xC0 DUP5 ADD MSTORE DUP1 SWAP2 POP POP SWAP3 SWAP2 POP POP JUMP JUMPDEST PUSH1 0x0 DUP1 PUSH1 0x0 PUSH1 0x60 DUP5 DUP7 SUB SLT ISZERO PUSH2 0xCBF JUMPI PUSH1 0x0 DUP1 REVERT JUMPDEST PUSH2 0xCC8 DUP5 PUSH2 0xA4C JUMP JUMPDEST SWAP3 POP PUSH1 0x20 DUP5 ADD CALLDATALOAD SWAP2 POP PUSH1 0x40 DUP5 ADD CALLDATALOAD DUP1 ISZERO ISZERO DUP2 EQ PUSH2 0xCE4 JUMPI PUSH1 0x0 DUP1 REVERT JUMPDEST DUP1 SWAP2 POP POP SWAP3 POP SWAP3 POP SWAP3 JUMP JUMPDEST PUSH1 0x1 DUP2 DUP2 SHR SWAP1 DUP3 AND DUP1 PUSH2 0xD03 JUMPI PUSH1 0x7F DUP3 AND SWAP2 POP JUMPDEST PUSH1 0x20 DUP3 LT DUP2 SUB PUSH2 0xD23 JUMPI PUSH4 0x4E487B71 PUSH1 0xE0 SHL PUSH1 0x0 MSTORE PUSH1 0x22 PUSH1 0x4 MSTORE PUSH1 0x24 PUSH1 0x0 REVERT JUMPDEST POP SWAP2 SWAP1 POP JUMP JUMPDEST PUSH1 0x1F DUP3 GT ISZERO PUSH2 0xD73 JUMPI PUSH1 0x0 DUP2 DUP2 MSTORE PUSH1 0x20 DUP2 KECCAK256 PUSH1 0x1F DUP6 ADD PUSH1 0x5 SHR DUP2 ADD PUSH1 0x20 DUP7 LT ISZERO PUSH2 0xD50 JUMPI POP DUP1 JUMPDEST PUSH1 0x1F DUP6 ADD PUSH1 0x5 SHR DUP3 ADD SWAP2 POP JUMPDEST DUP2 DUP2 LT ISZERO PUSH2 0xD6F JUMPI DUP3 DUP2 SSTORE PUSH1 0x1 ADD PUSH2 0xD5C JUMP JUMPDEST POP POP POP JUMPDEST POP POP POP JUMP JUMPDEST DUP2 MLOAD PUSH8 0xFFFFFFFFFFFFFFFF DUP2 GT ISZERO PUSH2 0xD92 JUMPI PUSH2 0xD92 PUSH2 0xB32 JUMP JUMPDEST PUSH2 0xDA6 DUP2 PUSH2 0xDA0 DUP5 SLOAD PUSH2 0xCEF JUMP JUMPDEST DUP5 PUSH2 0xD29 JUMP JUMPDEST PUSH1 0x20 DUP1 PUSH1 0x1F DUP4 GT PUSH1 0x1 DUP2 EQ PUSH2 0xDDB JUMPI PUSH1 0x0 DUP5 ISZERO PUSH2 0xDC3 JUMPI POP DUP6 DUP4 ADD MLOAD JUMPDEST PUSH1 0x0 NOT PUSH1 0x3 DUP7 SWAP1 SHL SHR NOT AND PUSH1 0x1 DUP6 SWAP1 SHL OR DUP6 SSTORE PUSH2 0xD6F JUMP JUMPDEST PUSH1 0x0 DUP6 DUP2 MSTORE PUSH1 0x20 DUP2 KECCAK256 PUSH1 0x1F NOT DUP7 AND SWAP2 JUMPDEST DUP3 DUP2 LT ISZERO PUSH2 0xE0A JUMPI DUP9 DUP7 ADD MLOAD DUP3 SSTORE SWAP5 DUP5 ADD SWAP5 PUSH1 0x1 SWAP1 SWAP2 ADD SWAP1 DUP5 ADD PUSH2 0xDEB JUMP JUMPDEST POP DUP6 DUP3 LT ISZERO PUSH2 0xE28 JUMPI DUP8 DUP6 ADD MLOAD PUSH1 0x0 NOT PUSH1 0x3 DUP9 SWAP1 SHL PUSH1 0xF8 AND SHR NOT AND DUP2 SSTORE JUMPDEST POP POP POP POP POP PUSH1 0x1 SWAP1 DUP2 SHL ADD SWAP1 SSTORE POP JUMP JUMPDEST PUSH1 0x20 DUP2 MSTORE PUSH1 0x0 PUSH2 0xA83 PUSH1 0x20 DUP4 ADD DUP5 PUSH2 0xA8A JUMP JUMPDEST PUSH4 0x4E487B71 PUSH1 0xE0 SHL PUSH1 0x0 MSTORE PUSH1 0x32 PUSH1 0x4 MSTORE PUSH1 0x24 PUSH1 0x0 REVERT JUMPDEST PUSH4 0x4E487B71 PUSH1 0xE0 SHL PUSH1 0x0 MSTORE PUSH1 0x11 PUSH1 0x4 MSTORE PUSH1 0x24 PUSH1 0x0 REVERT JUMPDEST PUSH1 0x0 PUSH1 0x1 DUP3 ADD PUSH2 0xE89 JUMPI PUSH2 0xE89 PUSH2 0xE61 JUMP JUMPDEST POP PUSH1 0x1 ADD SWAP1 JUMP JUMPDEST DUP1 DUP3 ADD DUP1 DUP3 GT ISZERO PUSH2 0xEA3 JUMPI PUSH2 0xEA3 PUSH2 0xE61 JUMP JUMPDEST SWAP3 SWAP2 POP POP JUMP JUMPDEST DUP2 DUP2 SUB DUP2 DUP2 GT ISZERO PUSH2 0xEA3 JUMPI PUSH2 0xEA3 PUSH2 0xE61 JUMP INVALID LOG2 PUSH5 0x6970667358 0x22 SLT KECCAK256 CODECOPY EXTCODESIZE 0x28 SLT BLOCKHASH MSTORE8 PUSH6 0x6E96DD26898F 0xEE ISZERO DUP10 0xA7 0xD4 CREATE2 PUSH14 0x9EDEC47EBC71DCF3BD3FFFB56473 PUSH16 0x6C634300081400330000000000000000 "},"methodIdentifiers":{"deactivateNode(address)":"65814455","getActiveNodes()":"6b51e919","getNode(address)":"9d209048","getNodeCount()":"39bf397e","incrementJobsCompleted(address)":"a7f491fb","nodeList(uint256)":"208f2a31","nodes(address)":"189a5a17","owner()":"8da5cb5b","registerNode(string)":"27c6f43e","renounceOwnership()":"715018a6","transferOwnership(address)":"f2fde38b","updateReputation(address,uint256,bool)":"ec604e46"}}}}}