{"contracts/VInference.sol":{"InferenceMarketplace":{"abi":[{"inputs":[],"stateMutability":"nonpayable","type":"constructor"},{"inputs":[{"internalType":"address","name":"owner","type":"address"}],"name":"OwnableInvalidOwner","type":"error"},{"inputs":[{"internalType":"address","name":"account","type":"address"}],"name":"OwnableUnauthorizedAccount","type":"error"},{"inputs":[],"name":"ReentrancyGuardReentrantCall","type":"error"},{"anonymous":false,"inputs":[{"indexed":true,"internalType":"address","name":"nodeAddress","type":"address"}],"name":"HeartbeatReceived","type":"event"},{"anonymous":false,"inputs":[{"indexed":true,"internalType":"uint256","name":"jobId","type":"uint256"},{"indexed":true,"internalType":"address","name":"node","type":"address"}],"name":"JobAssigned","type":"event"},{"anonymous":false,"inputs":[{"indexed":true,"internalType":"uint256","name":"jobId","type":"uint256"},{"indexed":true,"internalType":"address","name":"node","type":"address"}],"name":"JobCompleted","type":"event"},{"anonymous":false,"inputs":[{"indexed":true,"internalType":"uint256","name":"jobId","type":"uint256"},{"indexed":false,"internalType":"string","name":"reason","type":"string"}],"name":"JobFailed","type":"event"},{"anonymous":false,"inputs":[{"indexed":true,"internalType":"uint256","name":"jobId","type":"uint256"},{"indexed":true,"internalType":"address","name":"requester","type":"address"},{"indexed":false,"internalType":"enum InferenceMarketplace.HardwareType","name":"hardwareType","type":"uint8"}],"name":"JobPosted","type":"event"},{"anonymous":false,"inputs":[{"indexed":true,"internalType":"address","name":"nodeAddress","type":"address"},{"indexed":false,"internalType":"enum InferenceMarketplace.HardwareType","name":"hardwareType","type":"uint8"},{"indexed":false,"internalType":"uint256","name":"price","type":"uint256"}],"name":"MarketplaceNodeRegistered","type":"event"},{"anonymous":false,"inputs":[{"indexed":true,"internalType":"address","name":"previousOwner","type":"address"},{"indexed":true,"internalType":"address","name":"newOwner","type":"address"}],"name":"OwnershipTransferred","type":"event"},{"inputs":[],"name":"HEARTBEAT_TIMEOUT","outputs":[{"internalType":"uint256","name":"","type":"uint256"}],"stateMutability":"view","type":"function"},{"inputs":[{"internalType":"uint256","name":"_jobId","type":"uint256"}],"name":"assignJobToNode","outputs":[],"stateMutability":"nonpayable","type":"function"},{"inputs":[{"internalType":"uint256","name":"_jobId","type":"uint256"}],"name":"completeJob","outputs":[],"stateMutability":"nonpayable","type":"function"},{"inputs":[{"internalType":"uint256","name":"_jobId","type":"uint256"},{"internalType":"string","name":"_reason","type":"string"}],"name":"failJob","outputs":[],"stateMutability":"nonpayable","type":"function"},{"inputs":[{"internalType":"uint256","name":"_jobId","type":"uint256"}],"name":"getJob","outputs":[{"components":[{"internalType":"uint256","name":"jobId","type":"uint256"},{"internalType":"address","name":"requester","type":"address"},{"internalType":"string","name":"modelCID","type":"string"},{"internalType":"bytes","name":"inputData","type":"bytes"},{"internalType":"enum InferenceMarketplace.HardwareType","name":"requiredHardware","type":"uint8"},{"internalType":"uint256","name":"budget","type":"uint256"},{"internalType":"address","name":"assignedNode","type":"address"},{"internalType":"enum InferenceMarketplace.JobStatus","name":"status","type":"uint8"},{"internalType":"uint256","name":"createdAt","type":"uint256"},{"internalType":"uint256","name":"completedAt","type":"uint256"}],"internalType":"struct InferenceMarketplace.InferenceJob","name":"","type":"tuple"}],"stateMutability":"view","type":"function"},{"inputs":[],"name":"getJobCount","outputs":[{"internalType":"uint256","name":"","type":"uint256"}],"stateMutability":"view","type":"function"},{"inputs":[{"internalType":"address","name":"_nodeAddress","type":"address"}],"name":"getMarketplaceNode","outputs":[{"components":[{"internalType":"address","name":"nodeAddress","type":"address"},{"internalType":"enum InferenceMarketplace.HardwareType","name":"hardwareType","type":"uint8"},{"internalType":"uint256","name":"pricePerInference","type":"uint256"},{"internalType":"bool","name":"isActive","type":"bool"},{"internalType":"uint256","name":"lastHeartbeat","type":"uint256"},{"internalType":"uint256","name":"jobsCompleted","type":"uint256"}],"internalType":"struct InferenceMarketplace.MarketplaceNode","name":"","type":"tuple"}],"stateMutability":"view","type":"function"},{"inputs":[],"name":"heartbeat","outputs":[],"stateMutability":"nonpayable","type":"function"},{"inputs":[{"internalType":"address","name":"_nodeAddress","type":"address"}],"name":"isNodeAlive","outputs":[{"internalType":"bool","name":"","type":"bool"}],"stateMutability":"view","type":"function"},{"inputs":[],"name":"jobCounter","outputs":[{"internalType":"uint256","name":"","type":"uint256"}],"stateMutability":"view","type":"function"},{"inputs":[{"internalType":"uint256","name":"","type":"uint256"}],"name":"jobs","outputs":[{"internalType":"uint256","name":"jobId","type":"uint256"},{"internalType":"address","name":"requester","type":"address"},{"internalType":"string","name":"modelCID","type":"string"},{"internalType":"bytes","name":"inputData","type":"bytes"},{"internalType":"enum InferenceMarketplace.HardwareType","name":"requiredHardware","type":"uint8"},{"internalType":"uint256","name":"budget","type":"uint256"},{"internalType":"address","name":"assignedNode","type":"address"},{"internalType":"enum InferenceMarketplace.JobStatus","name":"status","type":"uint8"},{"internalType":"uint256","name":"createdAt","type":"uint256"},{"internalType":"uint256","name":"completedAt","type":"uint256"}],"stateMutability":"view","type":"function"},{"inputs":[{"internalType":"address","name":"","type":"address"}],"name":"marketplaceNodes","outputs":[{"internalType":"address","name":"nodeAddress","type":"address"},{"internalType":"enum InferenceMarketplace.HardwareType","name":"hardwareType","type":"uint8"},{"internalType":"uint256","name":"pricePerInference","type":"uint256"},{"internalType":"bool","name":"isActive","type":"bool"},{"internalType":"uint256","name":"lastHeartbeat","type":"uint256"},{"internalType":"uint256","name":"jobsCompleted","type":"uint256"}],"stateMutability":"view","type":"function"},{"inputs":[],"name":"owner","outputs":[{"internalType":"address","name":"","type":"address"}],"stateMutability":"view","type":"function"},{"inputs":[{"internalType":"string","name":"_modelCID","type":"string"},{"internalType":"bytes","name":"_inputData","type":"bytes"},{"internalType":"enum InferenceMarketplace.HardwareType","name":"_requiredHardware","type":"uint8"},{"internalType":"uint256","name":"_budget","type":"uint256"}],"name":"postJob","outputs":[{"internalType":"uint256","name":"","type":"uint256"}],"stateMutability":"nonpayable","type":"function"},{"inputs":[{"internalType":"enum InferenceMarketplace.HardwareType","name":"_hardwareType","type":"uint8"},{"internalType":"uint256","name":"_pricePerInference","type":"uint256"}],"name":"registerMarketplaceNode","outputs":[],"stateMutability":"nonpayable","type":"function"},{"inputs":[{"internalType":"address","name":"","type":"address"}],"name":"registeredMarketplaceNodes","outputs":[{"internalType":"bool","name":"","type":"bool"}],"stateMutability":"view","type":"function"},{"inputs":[],"name":"renounceOwnership","outputs":[],"stateMutability":"nonpayable","type":"function"},{"inputs":[{"internalType":"address","name":"newOwner","type":"address"}],"name":"transferOwnership","outputs":[],"stateMutability":"nonpayable","type":"function"}],"evm":{"bytecode":{"linkReferences":{},"object":"608060405234801561001057600080fd5b50338061003757604051631e4fbdf760e01b81526000600482015260240160405180910390fd5b6100408161004a565b506001805561009a565b600080546001600160a01b038381166001600160a01b0319831681178455604051919092169283917f8be0079c531659141344cd1fd0a4f28419497f9722a3daafe3b4186f6b6457e09190a35050565b6119ff806100a96000396000f3fe608060405234801561001057600080fd5b50600436106101165760003560e01c8063715018a6116100a2578063b02b4a2f11610071578063b02b4a2f146102a0578063b2a49fb3146102a8578063bf22c457146102bb578063d8e84977146102db578063f2fde38b146102ee57600080fd5b8063715018a61461024a5780638da5cb5b14610252578063a096c3111461026d578063a1c0d32f1461028d57600080fd5b80633defb962116100e95780633defb962146101ac5780633ed8e7eb146101b457806350355d761461021b5780635e39baaa146102245780636d3561e41461023757600080fd5b8063180aedf31461011b57806324239c611461014d578063283700e7146101805780632890e5a414610195575b600080fd5b61012e610129366004611316565b610301565b6040516101449a999897969594939291906113af565b60405180910390f35b61017061015b366004611434565b60046020526000908152604090205460ff1681565b6040519015158152602001610144565b61019361018e366004611478565b61047d565b005b61019e61012c81565b604051908152602001610144565b61019361060d565b6102096101c2366004611434565b6002602081905260009182526040909120805460018201549282015460038301546004909301546001600160a01b03831694600160a01b90930460ff908116949216919086565b604051610144969594939291906114a2565b61019e60055481565b6101936102323660046114e3565b6106af565b61019e6102453660046115eb565b6107f9565b610193610a5e565b6000546040516001600160a01b039091168152602001610144565b61028061027b366004611434565b610a72565b6040516101449190611692565b61019361029b366004611316565b610ba2565b60055461019e565b6101936102b6366004611316565b610cf2565b6102ce6102c9366004611316565b610f6d565b60405161014491906116e7565b6101706102e9366004611434565b611194565b6101936102fc366004611434565b6111ee565b60036020526000908152604090208054600182015460028301805492936001600160a01b0390921692610333906117b4565b80601f016020809104026020016040519081016040528092919081815260200182805461035f906117b4565b80156103ac5780601f10610381576101008083540402835291602001916103ac565b820191906000526020600020905b81548152906001019060200180831161038f57829003601f168201915b5050505050908060030180546103c1906117b4565b80601f01602080910402602001604051908101604052809291908181526020018280546103ed906117b4565b801561043a5780601f1061040f5761010080835404028352916020019161043a565b820191906000526020600020905b81548152906001019060200180831161041d57829003601f168201915b505050506004830154600584015460068501546007860154600890960154949560ff938416959294506001600160a01b03821693600160a01b909204909116918a565b600081116104d25760405162461bcd60e51b815260206004820152601c60248201527f5072696365206d7573742062652067726561746572207468616e20300000000060448201526064015b60405180910390fd5b6040518060c00160405280336001600160a01b031681526020018360038111156104fe576104fe611375565b8152602080820184905260016040808401919091524260608401526000608090930183905233835260028252909120825181546001600160a01b03919091166001600160a01b031982168117835592840151919283916001600160a81b03191617600160a01b83600381111561057657610576611375565b0217905550604082810151600180840191909155606084015160028401805491151560ff199283161790556080850151600385015560a0909401516004938401553360008181526020949094529282902080549094161790925590517f61b0c3814b5d6a7355ce1133588be48c421294c63a70c13b361045d39ad307299061060190859085906117ee565b60405180910390a25050565b3360009081526004602052604090205460ff166106625760405162461bcd60e51b8152602060048201526013602482015272139bd919481b9bdd081c9959da5cdd195c9959606a1b60448201526064016104c9565b336000818152600260208190526040808320426003820155909101805460ff19166001179055517f59db9904863f5c0703e74a4df99bfbad4374b3edb69328a2f7bc4df3485110979190a2565b60055483106106d05760405162461bcd60e51b81526004016104c990611809565b600083815260036020526040902060016006820154600160a01b900460ff16600481111561070057610700611375565b146107405760405162461bcd60e51b815260206004820152601060248201526f129bd8881b9bdd08185cdcda59db995960821b60448201526064016104c9565b60068101546001600160a01b031633148061076557506000546001600160a01b031633145b6107a25760405162461bcd60e51b815260206004820152600e60248201526d139bdd08185d5d1a1bdc9a5e995960921b60448201526064016104c9565b60068101805460ff60a01b1916600360a01b17905560405184907f2bd9ee9604d2aacfdb0cb87e65cb6f7fd811d9038e61b24e3295676cd180c9d1906107eb9086908690611835565b60405180910390a250505050565b600080821161084a5760405162461bcd60e51b815260206004820152601d60248201527f427564676574206d7573742062652067726561746572207468616e203000000060448201526064016104c9565b600085511161089b5760405162461bcd60e51b815260206004820152601960248201527f4d6f64656c204349442063616e6e6f7420626520656d7074790000000000000060448201526064016104c9565b60058054600091826108ac8361187a565b919050559050604051806101400160405280828152602001336001600160a01b031681526020018781526020018681526020018560038111156108f1576108f1611375565b81526020808201869052600060408084018290526060840182905242608085015260a09093018190528481526003825282902083518155908301516001820180546001600160a01b0319166001600160a01b0390921691909117905590820151600282019061096090826118e2565b506060820151600382019061097590826118e2565b50608082015160048201805460ff1916600183600381111561099957610999611375565b021790555060a0820151600582015560c08201516006820180546001600160a01b039092166001600160a01b031983168117825560e0850151926001600160a81b03191617600160a01b8360048111156109f5576109f5611375565b021790555061010082015181600701556101208201518160080155905050336001600160a01b0316817f7aa977574786f7245c84e79819194a8a8e8ee5b6becc318915c33ca916f3b81886604051610a4d91906119a2565b60405180910390a395945050505050565b610a6661122c565b610a706000611259565b565b610aae6040805160c081019091526000808252602082019081526020016000815260200160001515815260200160008152602001600081525090565b6001600160a01b03821660009081526004602052604090205460ff16610b0c5760405162461bcd60e51b8152602060048201526013602482015272139bd919481b9bdd081c9959da5cdd195c9959606a1b60448201526064016104c9565b6001600160a01b03828116600090815260026020908152604091829020825160c0810190935280549384168352919290830190600160a01b900460ff166003811115610b5a57610b5a611375565b6003811115610b6b57610b6b611375565b815260018201546020820152600282015460ff16151560408201526003820154606082015260049091015460809091015292915050565b6005548110610bc35760405162461bcd60e51b81526004016104c990611809565b600081815260036020526040902060016006820154600160a01b900460ff166004811115610bf357610bf3611375565b14610c335760405162461bcd60e51b815260206004820152601060248201526f129bd8881b9bdd08185cdcda59db995960821b60448201526064016104c9565b60068101546001600160a01b03163314610c835760405162461bcd60e51b81526020600482015260116024820152704e6f742061737369676e6564206e6f646560781b60448201526064016104c9565b60068101805460ff60a01b1916600160a11b179055426008820155336000908152600260205260408120600401805491610cbc8361187a565b9091555050604051339083907f16a7286196330eaff0c7db2ec34ead9c6d2d023b356b62ee7ea644c842a84b6790600090a35050565b6005548110610d135760405162461bcd60e51b81526004016104c990611809565b6000818152600360205260408120906006820154600160a01b900460ff166004811115610d4257610d42611375565b14610d865760405162461bcd60e51b81526020600482015260146024820152734a6f62206973206e6f7420617661696c61626c6560601b60448201526064016104c9565b3360009081526004602052604090205460ff16610dde5760405162461bcd60e51b8152602060048201526016602482015275139bd919481a5cc81b9bdd081c9959da5cdd195c995960521b60448201526064016104c9565b336000908152600260208190526040909120015460ff16610e365760405162461bcd60e51b81526020600482015260126024820152714e6f6465206973206e6f742061637469766560701b60448201526064016104c9565b600481015460ff166003811115610e4f57610e4f611375565b33600090815260026020526040902054600160a01b900460ff166003811115610e7a57610e7a611375565b14610ebb5760405162461bcd60e51b8152602060048201526011602482015270090c2e4c8eec2e4ca40dad2e6dac2e8c6d607b1b60448201526064016104c9565b6005810154336000908152600260205260409020600101541115610f185760405162461bcd60e51b8152602060048201526014602482015273141c9a58d948195e18d959591cc8189d5919d95d60621b60448201526064016104c9565b6006810180546001600160a81b0319163360ff60a01b19811691909117600160a01b1790915560405183907f3738a681a43a0b6a554742a08bae57e0215e8a774217dc2e7de6c9411b6d0ddc90600090a35050565b610f756112a9565b6005548210610f965760405162461bcd60e51b81526004016104c990611809565b6000828152600360209081526040918290208251610140810184528154815260018201546001600160a01b0316928101929092526002810180549293919291840191610fe1906117b4565b80601f016020809104026020016040519081016040528092919081815260200182805461100d906117b4565b801561105a5780601f1061102f5761010080835404028352916020019161105a565b820191906000526020600020905b81548152906001019060200180831161103d57829003601f168201915b50505050508152602001600382018054611073906117b4565b80601f016020809104026020016040519081016040528092919081815260200182805461109f906117b4565b80156110ec5780601f106110c1576101008083540402835291602001916110ec565b820191906000526020600020905b8154815290600101906020018083116110cf57829003601f168201915b5050509183525050600482015460209091019060ff16600381111561111357611113611375565b600381111561112457611124611375565b81526005820154602082015260068201546001600160a01b0381166040830152606090910190600160a01b900460ff16600481111561116557611165611375565b600481111561117657611176611375565b81526007820154602082015260089091015460409091015292915050565b6001600160a01b03811660009081526004602052604081205460ff166111bc57506000919050565b6001600160a01b03821660009081526002602052604090206003015461012c906111e690426119b6565b111592915050565b6111f661122c565b6001600160a01b03811661122057604051631e4fbdf760e01b8152600060048201526024016104c9565b61122981611259565b50565b6000546001600160a01b03163314610a705760405163118cdaa760e01b81523360048201526024016104c9565b600080546001600160a01b038381166001600160a01b0319831681178455604051919092169283917f8be0079c531659141344cd1fd0a4f28419497f9722a3daafe3b4186f6b6457e09190a35050565b6040518061014001604052806000815260200160006001600160a01b031681526020016060815260200160608152602001600060038111156112ed576112ed611375565b815260006020820181905260408201819052606082018190526080820181905260a09091015290565b60006020828403121561132857600080fd5b5035919050565b6000815180845260005b8181101561135557602081850181015186830182015201611339565b506000602082860101526020601f19601f83011685010191505092915050565b634e487b7160e01b600052602160045260246000fd5b6004811061139b5761139b611375565b9052565b6005811061139b5761139b611375565b8a81526001600160a01b038a81166020830152610140604083018190526000916113db8483018d61132f565b915083820360608501526113ef828c61132f565b92506113fe608085018b61138b565b60a08401899052871660c08401525061141a60e083018661139f565b610100820193909352610120015298975050505050505050565b60006020828403121561144657600080fd5b81356001600160a01b038116811461145d57600080fd5b9392505050565b80356004811061147357600080fd5b919050565b6000806040838503121561148b57600080fd5b61149483611464565b946020939093013593505050565b6001600160a01b038716815260c081016114bf602083018861138b565b60408201959095529215156060840152608083019190915260a09091015292915050565b6000806000604084860312156114f857600080fd5b83359250602084013567ffffffffffffffff8082111561151757600080fd5b818601915086601f83011261152b57600080fd5b81358181111561153a57600080fd5b87602082850101111561154c57600080fd5b6020830194508093505050509250925092565b634e487b7160e01b600052604160045260246000fd5b600067ffffffffffffffff808411156115905761159061155f565b604051601f8501601f19908116603f011681019082821181831017156115b8576115b861155f565b816040528093508581528686860111156115d157600080fd5b858560208301376000602087830101525050509392505050565b6000806000806080858703121561160157600080fd5b843567ffffffffffffffff8082111561161957600080fd5b818701915087601f83011261162d57600080fd5b61163c88833560208501611575565b9550602087013591508082111561165257600080fd5b508501601f8101871361166457600080fd5b61167387823560208401611575565b93505061168260408601611464565b9396929550929360600135925050565b81516001600160a01b0316815260208083015160c08301916116b69084018261138b565b50604083015160408301526060830151151560608301526080830151608083015260a083015160a083015292915050565b60208152815160208201526000602083015161170e60408401826001600160a01b03169052565b50604083015161014080606085015261172b61016085018361132f565b91506060850151601f19858403016080860152611748838261132f565b925050608085015161175d60a086018261138b565b5060a085015160c085015260c085015161178260e08601826001600160a01b03169052565b5060e08501516101006117978187018361139f565b860151610120868101919091529095015193019290925250919050565b600181811c908216806117c857607f821691505b6020821081036117e857634e487b7160e01b600052602260045260246000fd5b50919050565b604081016117fc828561138b565b8260208301529392505050565b602080825260129082015271129bd888191bd95cc81b9bdd08195e1a5cdd60721b604082015260600190565b60208152816020820152818360408301376000818301604090810191909152601f909201601f19160101919050565b634e487b7160e01b600052601160045260246000fd5b60006001820161188c5761188c611864565b5060010190565b601f8211156118dd57600081815260208120601f850160051c810160208610156118ba5750805b601f850160051c820191505b818110156118d9578281556001016118c6565b5050505b505050565b815167ffffffffffffffff8111156118fc576118fc61155f565b6119108161190a84546117b4565b84611893565b602080601f831160018114611945576000841561192d5750858301515b600019600386901b1c1916600185901b1785556118d9565b600085815260208120601f198616915b8281101561197457888601518255948401946001909101908401611955565b50858210156119925787850151600019600388901b60f8161c191681555b5050505050600190811b01905550565b602081016119b0828461138b565b92915050565b818103818111156119b0576119b061186456fea2646970667358221220294e3446ecb6e5135d26052d7f74c56d6fd108e2ce0b280478e7eaa10cc641ab64736f6c63430008140033","opcodes":"PUSH1 0x80 PUSH1 0x40 MSTORE CALLVALUE DUP1 ISZERO PUSH2 0x10 JUMPI PUSH1 0x0 DUP1 REVERT JUMPDEST POP CALLER DUP1 PUSH2 0x37 JUMPI PUSH1 0x40 MLOAD PUSH4 0x1E4FBDF7 PUSH1 0xE0 SHL DUP2 MSTORE PUSH1 0x0 PUSH1 0x4 DUP3 ADD MSTORE PUSH1 0x24 ADD PUSH1 0x40 MLOAD DUP1 SWAP2 SUB SWAP1 REVERT JUMPDEST PUSH2 0x40 DUP2 PUSH2 0x4A JUMP JUMPDEST POP PUSH1 0x1 DUP1 SSTORE PUSH2 0x9A JUMP JUMPDEST PUSH1 0x0 DUP1 SLOAD PUSH1 0x1 PUSH1 0x1 PUSH1 0xA0 SHL SUB DUP4 DUP2 AND PUSH1 0x1 PUSH1 0x1 PUSH1 0xA0 SHL SUB NOT DUP4 AND DUP2 OR DUP5 SSTORE PUSH1 0x40 MLOAD SWAP2 SWAP1 SWAP3 AND SWAP3 DUP4 SWAP2 PUSH32 0x8BE0079C531659141344CD1FD0A4F28419497F9722A3DAAFE3B4186F6B6457E0 SWAP2 SWAP1 LOG3 POP POP JUMP JUMPDEST PUSH2 0x19FF DUP1 PUSH2 0xA9 PUSH1 0x0 CODECOPY PUSH1 0x0 RETURN INVALID PUSH1 0x80 PUSH1 0x40 MSTORE CALLVALUE DUP1 ISZERO PUSH2 0x10 JUMPI PUSH1 0x0 DUP1 REVERT JUMPDEST POP PUSH1 0x4 CALLDATASIZE LT PUSH2 0x116 JUMPI PUSH1 0x0 CALLDATALOAD PUSH1 0xE0 SHR DUP1 PUSH4 0x715018A6 GT PUSH2 0xA2 JUMPI DUP1 PUSH4 0xB02B4A2F GT PUSH2 0x71 JUMPI DUP1 PUSH4 0xB02B4A2F EQ PUSH2 0x2A0 JUMPI DUP1 PUSH4 0xB2A49FB3 EQ PUSH2 0x2A8 JUMPI DUP1 PUSH4 0xBF22C457 EQ PUSH2 0x2BB JUMPI DUP1 PUSH4 0xD8E84977 EQ PUSH2 0x2DB JUMPI DUP1 PUSH4 0xF2FDE38B EQ PUSH2 0x2EE JUMPI PUSH1 0x0 DUP1 REVERT JUMPDEST DUP1 PUSH4 0x715018A6 EQ PUSH2 0x24A JUMPI DUP1 PUSH4 0x8DA5CB5B EQ PUSH2 0x252 JUMPI DUP1 PUSH4 0xA096C311 EQ PUSH2 0x26D JUMPI DUP1 PUSH4 0xA1C0D32F EQ PUSH2 0x28D JUMPI PUSH1 0x0 DUP1 REVERT JUMPDEST DUP1 PUSH4 0x3DEFB962 GT PUSH2 0xE9 JUMPI DUP1 PUSH4 0x3DEFB962 EQ PUSH2 0x1AC JUMPI DUP1 PUSH4 0x3ED8E7EB EQ PUSH2 0x1B4 JUMPI DUP1 PUSH4 0x50355D76 EQ PUSH2 0x21B JUMPI DUP1 PUSH4 0x5E39BAAA EQ PUSH2 0x224 JUMPI DUP1 PUSH4 0x6D3561E4 EQ PUSH2 0x237 JUMPI PUSH1 0x0 DUP1 REVERT JUMPDEST DUP1 PUSH4 0x180AEDF3 EQ PUSH2 0x11B JUMPI DUP1 PUSH4 0x24239C61 EQ PUSH2 0x14D JUMPI DUP1 PUSH4 0x283700E7 EQ PUSH2 0x180 JUMPI DUP1 PUSH4 0x2890E5A4 EQ PUSH2 0x195 JUMPI JUMPDEST PUSH1 0x0 DUP1 REVERT JUMPDEST PUSH2 0x12E PUSH2 0x129 CALLDATASIZE PUSH1 0x4 PUSH2 0x1316 JUMP JUMPDEST PUSH2 0x301 JUMP JUMPDEST PUSH1 0x40 MLOAD PUSH2 0x144 SWAP11 SWAP10 SWAP9 SWAP8 SWAP7 SWAP6 SWAP5 SWAP4 SWAP3 SWAP2 SWAP1 PUSH2 0x13AF JUMP JUMPDEST PUSH1 0x40 MLOAD DUP1 SWAP2 SUB SWAP1 RETURN JUMPDEST PUSH2 0x170 PUSH2 0x15B CALLDATASIZE PUSH1 0x4 PUSH2 0x1434 JUMP JUMPDEST PUSH1 0x4 PUSH1 0x20 MSTORE PUSH1 0x0 SWAP1 DUP2 MSTORE PUSH1 0x40 SWAP1 KECCAK256 SLOAD PUSH1 0xFF AND DUP2 JUMP JUMPDEST PUSH1 0x40 MLOAD SWAP1 ISZERO ISZERO DUP2 MSTORE PUSH1 0x20 ADD PUSH2 0x144 JUMP JUMPDEST PUSH2 0x193 PUSH2 0x18E CALLDATASIZE PUSH1 0x4 PUSH2 0x1478 JUMP JUMPDEST PUSH2 0x47D JUMP JUMPDEST STOP JUMPDEST PUSH2 0x19E PUSH2 0x12C DUP2 JUMP JUMPDEST PUSH1 0x40 MLOAD SWAP1 DUP2 MSTORE PUSH1 0x20 ADD PUSH2 0x144 JUMP JUMPDEST PUSH2 0x193 PUSH2 0x60D JUMP JUMPDEST PUSH2 0x209 PUSH2 0x1C2 CALLDATASIZE PUSH1 0x4 PUSH2 0x1434 JUMP JUMPDEST PUSH1 0x2 PUSH1 0x20 DUP2 SWAP1 MSTORE PUSH1 0x0 SWAP2 DUP3 MSTORE PUSH1 0x40 SWAP1 SWAP2 KECCAK256 DUP1 SLOAD PUSH1 0x1 DUP3 ADD SLOAD SWAP3 DUP3 ADD SLOAD PUSH1 0x3 DUP4 ADD SLOAD PUSH1 0x4 SWAP1 SWAP4 ADD SLOAD PUSH1 0x1 PUSH1 0x1 PUSH1 0xA0 SHL SUB DUP4 AND SWAP5 PUSH1 0x1 PUSH1 0xA0 SHL SWAP1 SWAP4 DIV PUSH1 0xFF SWAP1 DUP2 AND SWAP5 SWAP3 AND SWAP2 SWAP1 DUP7 JUMP JUMPDEST PUSH1 0x40 MLOAD PUSH2 0x144 SWAP7 SWAP6 SWAP5 SWAP4 SWAP3 SWAP2 SWAP1 PUSH2 0x14A2 JUMP JUMPDEST PUSH2 0x19E PUSH1 0x5 SLOAD DUP2 JUMP JUMPDEST PUSH2 0x193 PUSH2 0x232 CALLDATASIZE PUSH1 0x4 PUSH2 0x14E3 JUMP JUMPDEST PUSH2 0x6AF JUMP JUMPDEST PUSH2 0x19E PUSH2 0x245 CALLDATASIZE PUSH1 0x4 PUSH2 0x15EB JUMP JUMPDEST PUSH2 0x7F9 JUMP JUMPDEST PUSH2 0x193 PUSH2 0xA5E JUMP JUMPDEST PUSH1 0x0 SLOAD PUSH1 0x40 MLOAD PUSH1 0x1 PUSH1 0x1 PUSH1 0xA0 SHL SUB SWAP1 SWAP2 AND DUP2 MSTORE PUSH1 0x20 ADD PUSH2 0x144 JUMP JUMPDEST PUSH2 0x280 PUSH2 0x27B CALLDATASIZE PUSH1 0x4 PUSH2 0x1434 JUMP JUMPDEST PUSH2 0xA72 JUMP JUMPDEST PUSH1 0x40 MLOAD PUSH2 0x144 SWAP2 SWAP1 PUSH2 0x1692 JUMP JUMPDEST PUSH2 0x193 PUSH2 0x29B CALLDATASIZE PUSH1 0x4 PUSH2 0x1316 JUMP JUMPDEST PUSH2 0xBA2 JUMP JUMPDEST PUSH1 0x5 SLOAD PUSH2 0x19E JUMP JUMPDEST PUSH2 0x193 PUSH2 0x2B6 CALLDATASIZE PUSH1 0x4 PUSH2 0x1316 JUMP JUMPDEST PUSH2 0xCF2 JUMP JUMPDEST PUSH2 0x2CE PUSH2 0x2C9 CALLDATASIZE PUSH1 0x4 PUSH2 0x1316 JUMP JUMPDEST PUSH2 0xF6D JUMP JUMPDEST PUSH1 0x40 MLOAD PUSH2 0x144 SWAP2 SWAP1 PUSH2 0x16E7 JUMP JUMPDEST PUSH2 0x170 PUSH2 0x2E9 CALLDATASIZE PUSH1 0x4 PUSH2 0x1434 JUMP JUMPDEST PUSH2 0x1194 JUMP JUMPDEST PUSH2 0x193 PUSH2 0x2FC CALLDATASIZE PUSH1 0x4 PUSH2 0x1434 JUMP JUMPDEST PUSH2 0x11EE JUMP JUMPDEST PUSH1 0x3 PUSH1 0x20 MSTORE PUSH1 0x0 SWAP1 DUP2 MSTORE PUSH1 0x40 SWAP1 KECCAK256 DUP1 SLOAD PUSH1 0x1 DUP3 ADD SLOAD PUSH1 0x2 DUP4 ADD DUP1 SLOAD SWAP3 SWAP4 PUSH1 0x1 PUSH1 0x1 PUSH1 0xA0 SHL SUB SWAP1 SWAP3 AND SWAP3 PUSH2 0x333 SWAP1 PUSH2 0x17B4 JUMP JUMPDEST DUP1 PUSH1 0x1F ADD PUSH1 0x20 DUP1 SWAP2 DIV MUL PUSH1 0x20 ADD PUSH1 0x40 MLOAD SWAP1 DUP2 ADD PUSH1 0x40 MSTORE DUP1 SWAP3 SWAP2 SWAP1 DUP2 DUP2 MSTORE PUSH1 0x20 ADD DUP3 DUP1 SLOAD PUSH2 0x35F SWAP1 PUSH2 0x17B4 JUMP JUMPDEST DUP1 ISZERO PUSH2 0x3AC JUMPI DUP1 PUSH1 0x1F LT PUSH2 0x381 JUMPI PUSH2 0x100 DUP1 DUP4 SLOAD DIV MUL DUP4 MSTORE SWAP2 PUSH1 0x20 ADD SWAP2 PUSH2 0x3AC JUMP JUMPDEST DUP3 ADD SWAP2 SWAP1 PUSH1 0x0 MSTORE PUSH1 0x20 PUSH1 0x0 KECCAK256 SWAP1 JUMPDEST DUP2 SLOAD DUP2 MSTORE SWAP1 PUSH1 0x1 ADD SWAP1 PUSH1 0x20 ADD DUP1 DUP4 GT PUSH2 0x38F JUMPI DUP3 SWAP1 SUB PUSH1 0x1F AND DUP3 ADD SWAP2 JUMPDEST POP POP POP POP POP SWAP1 DUP1 PUSH1 0x3 ADD DUP1 SLOAD PUSH2 0x3C1 SWAP1 PUSH2 0x17B4 JUMP JUMPDEST DUP1 PUSH1 0x1F ADD PUSH1 0x20 DUP1 SWAP2 DIV MUL PUSH1 0x20 ADD PUSH1 0x40 MLOAD SWAP1 DUP2 ADD PUSH1 0x40 MSTORE DUP1 SWAP3 SWAP2 SWAP1 DUP2 DUP2 MSTORE PUSH1 0x20 ADD DUP3 DUP1 SLOAD PUSH2 0x3ED SWAP1 PUSH2 0x17B4 JUMP JUMPDEST DUP1 ISZERO PUSH2 0x43A JUMPI DUP1 PUSH1 0x1F LT PUSH2 0x40F JUMPI PUSH2 0x100 DUP1 DUP4 SLOAD DIV MUL DUP4 MSTORE SWAP2 PUSH1 0x20 ADD SWAP2 PUSH2 0x43A JUMP JUMPDEST DUP3 ADD SWAP2 SWAP1 PUSH1 0x0 MSTORE PUSH1 0x20 PUSH1 0x0 KECCAK256 SWAP1 JUMPDEST DUP2 SLOAD DUP2 MSTORE SWAP1 PUSH1 0x1 ADD SWAP1 PUSH1 0x20 ADD DUP1 DUP4 GT PUSH2 0x41D JUMPI DUP3 SWAP1 SUB PUSH1 0x1F AND DUP3 ADD SWAP2 JUMPDEST POP POP POP POP PUSH1 0x4 DUP4 ADD SLOAD PUSH1 0x5 DUP5 ADD SLOAD PUSH1 0x6 DUP6 ADD SLOAD PUSH1 0x7 DUP7 ADD SLOAD PUSH1 0x8 SWAP1 SWAP7 ADD SLOAD SWAP5 SWAP6 PUSH1 0xFF SWAP4 DUP5 AND SWAP6 SWAP3 SWAP5 POP PUSH1 0x1 PUSH1 0x1 PUSH1 0xA0 SHL SUB DUP3 AND SWAP4 PUSH1 0x1 PUSH1 0xA0 SHL SWAP1 SWAP3 DIV SWAP1 SWAP2 AND SWAP2 DUP11 JUMP JUMPDEST PUSH1 0x0 DUP2 GT PUSH2 0x4D2 JUMPI PUSH1 0x40 MLOAD PUSH3 0x461BCD PUSH1 0xE5 SHL DUP2 MSTORE PUSH1 0x20 PUSH1 0x4 DUP3 ADD MSTORE PUSH1 0x1C PUSH1 0x24 DUP3 ADD MSTORE PUSH32 0x5072696365206D7573742062652067726561746572207468616E203000000000 PUSH1 0x44 DUP3 ADD MSTORE PUSH1 0x64 ADD JUMPDEST PUSH1 0x40 MLOAD DUP1 SWAP2 SUB SWAP1 REVERT JUMPDEST PUSH1 0x40 MLOAD DUP1 PUSH1 0xC0 ADD PUSH1 0x40 MSTORE DUP1 CALLER PUSH1 0x1 PUSH1 0x1 PUSH1 0xA0 SHL SUB AND DUP2 MSTORE PUSH1 0x20 ADD DUP4 PUSH1 0x3 DUP2 GT ISZERO PUSH2 0x4FE JUMPI PUSH2 0x4FE PUSH2 0x1375 JUMP JUMPDEST DUP2 MSTORE PUSH1 0x20 DUP1 DUP3 ADD DUP5 SWAP1 MSTORE PUSH1 0x1 PUSH1 0x40 DUP1 DUP5 ADD SWAP2 SWAP1 SWAP2 MSTORE TIMESTAMP PUSH1 0x60 DUP5 ADD MSTORE PUSH1 0x0 PUSH1 0x80 SWAP1 SWAP4 ADD DUP4 SWAP1 MSTORE CALLER DUP4 MSTORE PUSH1 0x2 DUP3 MSTORE SWAP1 SWAP2 KECCAK256 DUP3 MLOAD DUP2 SLOAD PUSH1 0x1 PUSH1 0x1 PUSH1 0xA0 SHL SUB SWAP2 SWAP1 SWAP2 AND PUSH1 0x1 PUSH1 0x1 PUSH1 0xA0 SHL SUB NOT DUP3 AND DUP2 OR DUP4 SSTORE SWAP3 DUP5 ADD MLOAD SWAP2 SWAP3 DUP4 SWAP2 PUSH1 0x1 PUSH1 0x1 PUSH1 0xA8 SHL SUB NOT AND OR PUSH1 0x1 PUSH1 0xA0 SHL DUP4 PUSH1 0x3 DUP2 GT ISZERO PUSH2 0x576 JUMPI PUSH2 0x576 PUSH2 0x1375 JUMP JUMPDEST MUL OR SWAP1 SSTORE POP PUSH1 0x40 DUP3 DUP2 ADD MLOAD PUSH1 0x1 DUP1 DUP5 ADD SWAP2 SWAP1 SWAP2 SSTORE PUSH1 0x60 DUP5 ADD MLOAD PUSH1 0x2 DUP5 ADD DUP1 SLOAD SWAP2 ISZERO ISZERO PUSH1 0xFF NOT SWAP3 DUP4 AND OR SWAP1 SSTORE PUSH1 0x80 DUP6 ADD MLOAD PUSH1 0x3 DUP6 ADD SSTORE PUSH1 0xA0 SWAP1 SWAP5 ADD MLOAD PUSH1 0x4 SWAP4 DUP5 ADD SSTORE CALLER PUSH1 0x0 DUP2 DUP2 MSTORE PUSH1 0x20 SWAP5 SWAP1 SWAP5 MSTORE SWAP3 DUP3 SWAP1 KECCAK256 DUP1 SLOAD SWAP1 SWAP5 AND OR SWAP1 SWAP3 SSTORE SWAP1 MLOAD PUSH32 0x61B0C3814B5D6A7355CE1133588BE48C421294C63A70C13B361045D39AD30729 SWAP1 PUSH2 0x601 SWAP1 DUP6 SWAP1 DUP6 SWAP1 PUSH2 0x17EE JUMP JUMPDEST PUSH1 0x40 MLOAD DUP1 SWAP2 SUB SWAP1 LOG2 POP POP JUMP JUMPDEST CALLER PUSH1 0x0 SWAP1 DUP2 MSTORE PUSH1 0x4 PUSH1 0x20 MSTORE PUSH1 0x40 SWAP1 KECCAK256 SLOAD PUSH1 0xFF AND PUSH2 0x662 JUMPI PUSH1 0x40 MLOAD PUSH3 0x461BCD PUSH1 0xE5 SHL DUP2 MSTORE PUSH1 0x20 PUSH1 0x4 DUP3 ADD MSTORE PUSH1 0x13 PUSH1 0x24 DUP3 ADD MSTORE PUSH19 0x139BD919481B9BDD081C9959DA5CDD195C9959 PUSH1 0x6A SHL PUSH1 0x44 DUP3 ADD MSTORE PUSH1 0x64 ADD PUSH2 0x4C9 JUMP JUMPDEST CALLER PUSH1 0x0 DUP2 DUP2 MSTORE PUSH1 0x2 PUSH1 0x20 DUP2 SWAP1 MSTORE PUSH1 0x40 DUP1 DUP4 KECCAK256 TIMESTAMP PUSH1 0x3 DUP3 ADD SSTORE SWAP1 SWAP2 ADD DUP1 SLOAD PUSH1 0xFF NOT AND PUSH1 0x1 OR SWAP1 SSTORE MLOAD PUSH32 0x59DB9904863F5C0703E74A4DF99BFBAD4374B3EDB69328A2F7BC4DF348511097 SWAP2 SWAP1 LOG2 JUMP JUMPDEST PUSH1 0x5 SLOAD DUP4 LT PUSH2 0x6D0 JUMPI PUSH1 0x40 MLOAD PUSH3 0x461BCD PUSH1 0xE5 SHL DUP2 MSTORE PUSH1 0x4 ADD PUSH2 0x4C9 SWAP1 PUSH2 0x1809 JUMP JUMPDEST PUSH1 0x0 DUP4 DUP2 MSTORE PUSH1 0x3 PUSH1 0x20 MSTORE PUSH1 0x40 SWAP1 KECCAK256 PUSH1 0x1 PUSH1 0x6 DUP3 ADD SLOAD PUSH1 0x1 PUSH1 0xA0 SHL SWAP1 DIV PUSH1 0xFF AND PUSH1 0x4 DUP2 GT ISZERO PUSH2 0x700 JUMPI PUSH2 0x700 PUSH2 0x1375 JUMP JUMPDEST EQ PUSH2 0x740 JUMPI PUSH1 0x40 MLOAD PUSH3 0x461BCD PUSH1 0xE5 SHL DUP2 MSTORE PUSH1 0x20 PUSH1 0x4 DUP3 ADD MSTORE PUSH1 0x10 PUSH1 0x24 DUP3 ADD MSTORE PUSH16 0x129BD8881B9BDD08185CDCDA59DB9959 PUSH1 0x82 SHL PUSH1 0x44 DUP3 ADD MSTORE PUSH1 0x64 ADD PUSH2 0x4C9 JUMP JUMPDEST PUSH1 0x6 DUP2 ADD SLOAD PUSH1 0x1 PUSH1 0x1 PUSH1 0xA0 SHL SUB AND CALLER EQ DUP1 PUSH2 0x765 JUMPI POP PUSH1 0x0 SLOAD PUSH1 0x1 PUSH1 0x1 PUSH1 0xA0 SHL SUB AND CALLER EQ JUMPDEST PUSH2 0x7A2 JUMPI PUSH1 0x40 MLOAD PUSH3 0x461BCD PUSH1 0xE5 SHL DUP2 MSTORE PUSH1 0x20 PUSH1 0x4 DUP3 ADD MSTORE PUSH1 0xE PUSH1 0x24 DUP3 ADD MSTORE PUSH14 0x139BDD08185D5D1A1BDC9A5E9959 PUSH1 0x92 SHL PUSH1 0x44 DUP3 ADD MSTORE PUSH1 0x64 ADD PUSH2 0x4C9 JUMP JUMPDEST PUSH1 0x6 DUP2 ADD DUP1 SLOAD PUSH1 0xFF PUSH1 0xA0 SHL NOT AND PUSH1 0x3 PUSH1 0xA0 SHL OR SWAP1 SSTORE PUSH1 0x40 MLOAD DUP5 SWAP1 PUSH32 0x2BD9EE9604D2AACFDB0CB87E65CB6F7FD811D9038E61B24E3295676CD180C9D1 SWAP1 PUSH2 0x7EB SWAP1 DUP7 SWAP1 DUP7 SWAP1 PUSH2 0x1835 JUMP JUMPDEST PUSH1 0x40 MLOAD DUP1 SWAP2 SUB SWAP1 LOG2 POP POP POP POP JUMP JUMPDEST PUSH1 0x0 DUP1 DUP3 GT PUSH2 0x84A JUMPI PUSH1 0x40 MLOAD PUSH3 0x461BCD PUSH1 0xE5 SHL DUP2 MSTORE PUSH1 0x20 PUSH1 0x4 DUP3 ADD MSTORE PUSH1 0x1D PUSH1 0x24 DUP3 ADD MSTORE PUSH32 0x427564676574206D7573742062652067726561746572207468616E2030000000 PUSH1 0x44 DUP3 ADD MSTORE PUSH1 0x64 ADD PUSH2 0x4C9 JUMP JUMPDEST PUSH1 0x0 DUP6 MLOAD GT PUSH2 0x89B JUMPI PUSH1 0x40 MLOAD PUSH3 0x461BCD PUSH1 0xE5 SHL DUP2 MSTORE PUSH1 0x20 PUSH1 0x4 DUP3 ADD MSTORE PUSH1 0x19 PUSH1 0x24 DUP3 ADD MSTORE PUSH32 0x4D6F64656C204349442063616E6E6F7420626520656D70747900000000000000 PUSH1 0x44 DUP3 ADD MSTORE PUSH1 0x64 ADD PUSH2 0x4C9 JUMP JUMPDEST PUSH1 0x5 DUP1 SLOAD PUSH1 0x0 SWAP2 DUP3 PUSH2 0x8AC DUP4 PUSH2 0x187A JUMP JUMPDEST SWAP2 SWAP1 POP SSTORE SWAP1 POP PUSH1 0x40 MLOAD DUP1 PUSH2 0x140 ADD PUSH1 0x40 MSTORE DUP1 DUP3 DUP2 MSTORE PUSH1 0x20 ADD CALLER PUSH1 0x1 PUSH1 0x1 PUSH1 0xA0 SHL SUB AND DUP2 MSTORE PUSH1 0x20 ADD DUP8 DUP2 MSTORE PUSH1 0x20 ADD DUP7 DUP2 MSTORE PUSH1 0x20 ADD DUP6 PUSH1 0x3 DUP2 GT ISZERO PUSH2 0x8F1 JUMPI PUSH2 0x8F1 PUSH2 0x1375 JUMP JUMPDEST DUP2 MSTORE PUSH1 0x20 DUP1 DUP3 ADD DUP7 SWAP1 MSTORE PUSH1 0x0 PUSH1 0x40 DUP1 DUP5 ADD DUP3 SWAP1 MSTORE PUSH1 0x60 DUP5 ADD DUP3 SWAP1 MSTORE TIMESTAMP PUSH1 0x80 DUP6 ADD MSTORE PUSH1 0xA0 SWAP1 SWAP4 ADD DUP2 SWAP1 MSTORE DUP5 DUP2 MSTORE PUSH1 0x3 DUP3 MSTORE DUP3 SWAP1 KECCAK256 DUP4 MLOAD DUP2 SSTORE SWAP1 DUP4 ADD MLOAD PUSH1 0x1 DUP3 ADD DUP1 SLOAD PUSH1 0x1 PUSH1 0x1 PUSH1 0xA0 SHL SUB NOT AND PUSH1 0x1 PUSH1 0x1 PUSH1 0xA0 SHL SUB SWAP1 SWAP3 AND SWAP2 SWAP1 SWAP2 OR SWAP1 SSTORE SWAP1 DUP3 ADD MLOAD PUSH1 0x2 DUP3 ADD SWAP1 PUSH2 0x960 SWAP1 DUP3 PUSH2 0x18E2 JUMP JUMPDEST POP PUSH1 0x60 DUP3 ADD MLOAD PUSH1 0x3 DUP3 ADD SWAP1 PUSH2 0x975 SWAP1 DUP3 PUSH2 0x18E2 JUMP JUMPDEST POP PUSH1 0x80 DUP3 ADD MLOAD PUSH1 0x4 DUP3 ADD DUP1 SLOAD PUSH1 0xFF NOT AND PUSH1 0x1 DUP4 PUSH1 0x3 DUP2 GT ISZERO PUSH2 0x999 JUMPI PUSH2 0x999 PUSH2 0x1375 JUMP JUMPDEST MUL OR SWAP1 SSTORE POP PUSH1 0xA0 DUP3 ADD MLOAD PUSH1 0x5 DUP3 ADD SSTORE PUSH1 0xC0 DUP3 ADD MLOAD PUSH1 0x6 DUP3 ADD DUP1 SLOAD PUSH1 0x1 PUSH1 0x1 PUSH1 0xA0 SHL SUB SWAP1 SWAP3 AND PUSH1 0x1 PUSH1 0x1 PUSH1 0xA0 SHL SUB NOT DUP4 AND DUP2 OR DUP3 SSTORE PUSH1 0xE0 DUP6 ADD MLOAD SWAP3 PUSH1 0x1 PUSH1 0x1 PUSH1 0xA8 SHL SUB NOT AND OR PUSH1 0x1 PUSH1 0xA0 SHL DUP4 PUSH1 0x4 DUP2 GT ISZERO PUSH2 0x9F5 JUMPI PUSH2 0x9F5 PUSH2 0x1375 JUMP JUMPDEST MUL OR SWAP1 SSTORE POP PUSH2 0x100 DUP3 ADD MLOAD DUP2 PUSH1 0x7 ADD SSTORE PUSH2 0x120 DUP3 ADD MLOAD DUP2 PUSH1 0x8 ADD SSTORE SWAP1 POP POP CALLER PUSH1 0x1 PUSH1 0x1 PUSH1 0xA0 SHL SUB AND DUP2 PUSH32 0x7AA977574786F7245C84E79819194A8A8E8EE5B6BECC318915C33CA916F3B818 DUP7 PUSH1 0x40 MLOAD PUSH2 0xA4D SWAP2 SWAP1 PUSH2 0x19A2 JUMP JUMPDEST PUSH1 0x40 MLOAD DUP1 SWAP2 SUB SWAP1 LOG3 SWAP6 SWAP5 POP POP POP POP POP JUMP JUMPDEST PUSH2 0xA66 PUSH2 0x122C JUMP JUMPDEST PUSH2 0xA70 PUSH1 0x0 PUSH2 0x1259 JUMP JUMPDEST JUMP JUMPDEST PUSH2 0xAAE PUSH1 0x40 DUP1 MLOAD PUSH1 0xC0 DUP2 ADD SWAP1 SWAP2 MSTORE PUSH1 0x0 DUP1 DUP3 MSTORE PUSH1 0x20 DUP3 ADD SWAP1 DUP2 MSTORE PUSH1 0x20 ADD PUSH1 0x0 DUP2 MSTORE PUSH1 0x20 ADD PUSH1 0x0 ISZERO ISZERO DUP2 MSTORE PUSH1 0x20 ADD PUSH1 0x0 DUP2 MSTORE PUSH1 0x20 ADD PUSH1 0x0 DUP2 MSTORE POP SWAP1 JUMP JUMPDEST PUSH1 0x1 PUSH1 0x1 PUSH1 0xA0 SHL SUB DUP3 AND PUSH1 0x0 SWAP1 DUP2 MSTORE PUSH1 0x4 PUSH1 0x20 MSTORE PUSH1 0x40 SWAP1 KECCAK256 SLOAD PUSH1 0xFF AND PUSH2 0xB0C JUMPI PUSH1 0x40 MLOAD PUSH3 0x461BCD PUSH1 0xE5 SHL DUP2 MSTORE PUSH1 0x20 PUSH1 0x4 DUP3 ADD MSTORE PUSH1 0x13 PUSH1 0x24 DUP3 ADD MSTORE PUSH19 0x139BD919481B9BDD081C9959DA5CDD195C9959 PUSH1 0x6A SHL PUSH1 0x44 DUP3 ADD MSTORE PUSH1 0x64 ADD PUSH2 0x4C9 JUMP JUMPDEST PUSH1 0x1 PUSH1 0x1 PUSH1 0xA0 SHL SUB DUP3 DUP2 AND PUSH1 0x0 SWAP1 DUP2 MSTORE PUSH1 0x2 PUSH1 0x20 SWAP1 DUP2 MSTORE PUSH1 0x40 SWAP2 DUP3 SWAP1 KECCAK256 DUP3 MLOAD PUSH1 0xC0 DUP2 ADD SWAP1 SWAP4 MSTORE DUP1 SLOAD SWAP4 DUP5 AND DUP4 MSTORE SWAP2 SWAP3 SWAP1 DUP4 ADD SWAP1 PUSH1 0x1 PUSH1 0xA0 SHL SWAP1 DIV PUSH1 0xFF AND PUSH1 0x3 DUP2 GT ISZERO PUSH2 0xB5A JUMPI PUSH2 0xB5A PUSH2 0x1375 JUMP JUMPDEST PUSH1 0x3 DUP2 GT ISZERO PUSH2 0xB6B JUMPI PUSH2 0xB6B PUSH2 0x1375 JUMP JUMPDEST DUP2 MSTORE PUSH1 0x1 DUP3 ADD SLOAD PUSH1 0x20 DUP3 ADD MSTORE PUSH1 0x2 DUP3 ADD SLOAD PUSH1 0xFF AND ISZERO ISZERO PUSH1 0x40 DUP3 ADD MSTORE PUSH1 0x3 DUP3 ADD SLOAD PUSH1 0x60 DUP3 ADD MSTORE PUSH1 0x4 SWAP1 SWAP2 ADD SLOAD PUSH1 0x80 SWAP1 SWAP2 ADD MSTORE SWAP3 SWAP2 POP POP JUMP JUMPDEST PUSH1 0x5 SLOAD DUP2 LT PUSH2 0xBC3 JUMPI PUSH1 0x40 MLOAD PUSH3 0x461BCD PUSH1 0xE5 SHL DUP2 MSTORE PUSH1 0x4 ADD PUSH2 0x4C9 SWAP1 PUSH2 0x1809 JUMP JUMPDEST PUSH1 0x0 DUP2 DUP2 MSTORE PUSH1 0x3 PUSH1 0x20 MSTORE PUSH1 0x40 SWAP1 KECCAK256 PUSH1 0x1 PUSH1 0x6 DUP3 ADD SLOAD PUSH1 0x1 PUSH1 0xA0 SHL SWAP1 DIV PUSH1 0xFF AND PUSH1 0x4 DUP2 GT ISZERO PUSH2 0xBF3 JUMPI PUSH2 0xBF3 PUSH2 0x1375 JUMP JUMPDEST EQ PUSH2 0xC33 JUMPI PUSH1 0x40 MLOAD PUSH3 0x461BCD PUSH1 0xE5 SHL DUP2 MSTORE PUSH1 0x20 PUSH1 0x4 DUP3 ADD MSTORE PUSH1 0x10 PUSH1 0x24 DUP3 ADD MSTORE PUSH16 0x129BD8881B9BDD08185CDCDA59DB9959 PUSH1 0x82 SHL PUSH1 0x44 DUP3 ADD MSTORE PUSH1 0x64 ADD PUSH2 0x4C9 JUMP JUMPDEST PUSH1 0x6 DUP2 ADD SLOAD PUSH1 0x1 PUSH1 0x1 PUSH1 0xA0 SHL SUB AND CALLER EQ PUSH2 0xC83 JUMPI PUSH1 0x40 MLOAD PUSH3 0x461BCD PUSH1 0xE5 SHL DUP2 MSTORE PUSH1 0x20 PUSH1 0x4 DUP3 ADD MSTORE PUSH1 0x11 PUSH1 0x24 DUP3 ADD MSTORE PUSH17 0x4E6F742061737369676E6564206E6F6465 PUSH1 0x78 SHL PUSH1 0x44 DUP3 ADD MSTORE PUSH1 0x64 ADD PUSH2 0x4C9 JUMP JUMPDEST PUSH1 0x6 DUP2 ADD DUP1 SLOAD PUSH1 0xFF PUSH1 0xA0 SHL NOT AND PUSH1 0x1 PUSH1 0xA1 SHL OR SWAP1 SSTORE TIMESTAMP PUSH1 0x8 DUP3 ADD SSTORE CALLER PUSH1 0x0 SWAP1 DUP2 MSTORE PUSH1 0x2 PUSH1 0x20 MSTORE PUSH1 0x40 DUP2 KECCAK256 PUSH1 0x4 ADD DUP1 SLOAD SWAP2 PUSH2 0xCBC DUP4 PUSH2 0x187A JUMP JUMPDEST SWAP1 SWAP2 SSTORE POP POP PUSH1 0x40 MLOAD CALLER SWAP1 DUP4 SWAP1 PUSH32 0x16A7286196330EAFF0C7DB2EC34EAD9C6D2D023B356B62EE7EA644C842A84B67 SWAP1 PUSH1 0x0 SWAP1 LOG3 POP POP JUMP JUMPDEST PUSH1 0x5 SLOAD DUP2 LT PUSH2 0xD13 JUMPI PUSH1 0x40 MLOAD PUSH3 0x461BCD PUSH1 0xE5 SHL DUP2 MSTORE PUSH1 0x4 ADD PUSH2 0x4C9 SWAP1 PUSH2 0x1809 JUMP JUMPDEST PUSH1 0x0 DUP2 DUP2 MSTORE PUSH1 0x3 PUSH1 0x20 MSTORE PUSH1 0x40 DUP2 KECCAK256 SWAP1 PUSH1 0x6 DUP3 ADD SLOAD PUSH1 0x1 PUSH1 0xA0 SHL SWAP1 DIV PUSH1 0xFF AND PUSH1 0x4 DUP2 GT ISZERO PUSH2 0xD42 JUMPI PUSH2 0xD42 PUSH2 0x1375 JUMP JUMPDEST EQ PUSH2 0xD86 JUMPI PUSH1 0x40 MLOAD PUSH3 0x461BCD PUSH1 0xE5 SHL DUP2 MSTORE PUSH1 0x20 PUSH1 0x4 DUP3 ADD MSTORE PUSH1 0x14 PUSH1 0x24 DUP3 ADD MSTORE PUSH20 0x4A6F62206973206E6F7420617661696C61626C65 PUSH1 0x60 SHL PUSH1 0x44 DUP3 ADD MSTORE PUSH1 0x64 ADD PUSH2 0x4C9 JUMP JUMPDEST CALLER PUSH1 0x0 SWAP1 DUP2 MSTORE PUSH1 0x4 PUSH1 0x20 MSTORE PUSH1 0x40 SWAP1 KECCAK256 SLOAD PUSH1 0xFF AND PUSH2 0xDDE JUMPI PUSH1 0x40 MLOAD PUSH3 0x461BCD PUSH1 0xE5 SHL DUP2 MSTORE PUSH1 0x20 PUSH1 0x4 DUP3 ADD MSTORE PUSH1 0x16 PUSH1 0x24 DUP3 ADD MSTORE PUSH22 0x139BD919481A5CC81B9BDD081C9959DA5CDD195C9959 PUSH1 0x52 SHL PUSH1 0x44 DUP3 ADD MSTORE PUSH1 0x64 ADD PUSH2 0x4C9 JUMP JUMPDEST CALLER PUSH1 0x0 SWAP1 DUP2 MSTORE PUSH1 0x2 PUSH1 0x20 DUP2 SWAP1 MSTORE PUSH1 0x40 SWAP1 SWAP2 KECCAK256 ADD SLOAD PUSH1 0xFF AND PUSH2 0xE36 JUMPI PUSH1 0x40 MLOAD PUSH3 0x461BCD PUSH1 0xE5 SHL DUP2 MSTORE PUSH1 0x20 PUSH1 0x4 DUP3 ADD MSTORE PUSH1 0x12 PUSH1 0x24 DUP3 ADD MSTORE PUSH18 0x4E6F6465206973206E6F7420616374697665 PUSH1 0x70 SHL PUSH1 0x44 DUP3 ADD MSTORE PUSH1 0x64 ADD PUSH2 0x4C9 JUMP JUMPDEST PUSH1 0x4 DUP2 ADD SLOAD PUSH1 0xFF AND PUSH1 0x3 DUP2 GT ISZERO PUSH2 0xE4F JUMPI PUSH2 0xE4F PUSH2 0x1375 JUMP JUMPDEST CALLER PUSH1 0x0 SWAP1 DUP2 MSTORE PUSH1 0x2 PUSH1 0x20 MSTORE PUSH1 0x40 SWAP1 KECCAK256 SLOAD PUSH1 0x1 PUSH1 0xA0 SHL SWAP1 DIV PUSH1 0xFF AND PUSH1 0x3 DUP2 GT ISZERO PUSH2 0xE7A JUMPI PUSH2 0xE7A PUSH2 0x1375 JUMP JUMPDEST EQ PUSH2 0xEBB JUMPI PUSH1 0x40 MLOAD PUSH3 0x461BCD PUSH1 0xE5 SHL DUP2 MSTORE PUSH1 0x20 PUSH1 0x4 DUP3 ADD MSTORE PUSH1 0x11 PUSH1 0x24 DUP3 ADD MSTORE PUSH17 0x90C2E4C8EEC2E4CA40DAD2E6DAC2E8C6D PUSH1 0x7B SHL PUSH1 0x44 DUP3 ADD MSTORE PUSH1 0x64 ADD PUSH2 0x4C9 JUMP JUMPDEST PUSH1 0x5 DUP2 ADD SLOAD CALLER PUSH1 0x0 SWAP1 DUP2 MSTORE PUSH1 0x2 PUSH1 0x20 MSTORE PUSH1 0x40 SWAP1 KECCAK256 PUSH1 0x1 ADD SLOAD GT ISZERO PUSH2 0xF18 JUMPI PUSH1 0x40 MLOAD PUSH3 0x461BCD PUSH1 0xE5 SHL DUP2 MSTORE PUSH1 0x20 PUSH1 0x4 DUP3 ADD MSTORE PUSH1 0x14 PUSH1 0x24 DUP3 ADD MSTORE PUSH20 0x141C9A58D948195E18D959591CC8189D5919D95D PUSH1 0x62 SHL PUSH1 0x44 DUP3 ADD MSTORE PUSH1 0x64 ADD PUSH2 0x4C9 JUMP JUMPDEST PUSH1 0x6 DUP2 ADD DUP1 SLOAD PUSH1 0x1 PUSH1 0x1 PUSH1 0xA8 SHL SUB NOT AND CALLER PUSH1 0xFF PUSH1 0xA0 SHL NOT DUP2 AND SWAP2 SWAP1 SWAP2 OR PUSH1 0x1 PUSH1 0xA0 SHL OR SWAP1 SWAP2 SSTORE PUSH1 0x40 MLOAD DUP4 SWAP1 PUSH32 0x3738A681A43A0B6A554742A08BAE57E0215E8A774217DC2E7DE6C9411B6D0DDC SWAP1 PUSH1 0x0 SWAP1 LOG3 POP POP JUMP JUMPDEST PUSH2 0xF75 PUSH2 0x12A9 JUMP JUMPDEST PUSH1 0x5 SLOAD DUP3 LT PUSH2 0xF96 JUMPI PUSH1 0x40 MLOAD PUSH3 0x461BCD PUSH1 0xE5 SHL DUP2 MSTORE PUSH1 0x4 ADD PUSH2 0x4C9 SWAP1 PUSH2 0x1809 JUMP JUMPDEST PUSH1 0x0 DUP3 DUP2 MSTORE PUSH1 0x3 PUSH1 0x20 SWAP1 DUP2 MSTORE PUSH1 0x40 SWAP2 DUP3 SWAP1 KECCAK256 DUP3 MLOAD PUSH2 0x140 DUP2 ADD DUP5 MSTORE DUP2 SLOAD DUP2 MSTORE PUSH1 0x1 DUP3 ADD SLOAD PUSH1 0x1 PUSH1 0x1 PUSH1 0xA0 SHL SUB AND SWAP3 DUP2 ADD SWAP3 SWAP1 SWAP3 MSTORE PUSH1 0x2 DUP2 ADD DUP1 SLOAD SWAP3 SWAP4 SWAP2 SWAP3 SWAP2 DUP5 ADD SWAP2 PUSH2 0xFE1 SWAP1 PUSH2 0x17B4 JUMP JUMPDEST DUP1 PUSH1 0x1F ADD PUSH1 0x20 DUP1 SWAP2 DIV MUL PUSH1 0x20 ADD PUSH1 0x40 MLOAD SWAP1 DUP2 ADD PUSH1 0x40 MSTORE DUP1 SWAP3 SWAP2 SWAP1 DUP2 DUP2 MSTORE PUSH1 0x20 ADD DUP3 DUP1 SLOAD PUSH2 0x100D SWAP1 PUSH2 0x17B4 JUMP JUMPDEST DUP1 ISZERO PUSH2 0x105A JUMPI DUP1 PUSH1 0x1F LT PUSH2 0x102F JUMPI PUSH2 0x100 DUP1 DUP4 SLOAD DIV MUL DUP4 MSTORE SWAP2 PUSH1 0x20 ADD SWAP2 PUSH2 0x105A JUMP JUMPDEST DUP3 ADD SWAP2 SWAP1 PUSH1 0x0 MSTORE PUSH1 0x20 PUSH1 0x0 KECCAK256 SWAP1 JUMPDEST DUP2 SLOAD DUP2 MSTORE SWAP1 PUSH1 0x1 ADD SWAP1 PUSH1 0x20 ADD DUP1 DUP4 GT PUSH2 0x103D JUMPI DUP3 SWAP1 SUB PUSH1 0x1F AND DUP3 ADD SWAP2 JUMPDEST POP POP POP POP POP DUP2 MSTORE PUSH1 0x20 ADD PUSH1 0x3 DUP3 ADD DUP1 SLOAD PUSH2 0x1073 SWAP1 PUSH2 0x17B4 JUMP JUMPDEST DUP1 PUSH1 0x1F ADD PUSH1 0x20 DUP1 SWAP2 DIV MUL PUSH1 0x20 ADD PUSH1 0x40 MLOAD SWAP1 DUP2 ADD PUSH1 0x40 MSTORE DUP1 SWAP3 SWAP2 SWAP1 DUP2 DUP2 MSTORE PUSH1 0x20 ADD DUP3 DUP1 SLOAD PUSH2 0x109F SWAP1 PUSH2 0x17B4 JUMP JUMPDEST DUP1 ISZERO PUSH2 0x10EC JUMPI DUP1 PUSH1 0x1F LT PUSH2 0x10C1 JUMPI PUSH2 0x100 DUP1 DUP4 SLOAD DIV MUL DUP4 MSTORE SWAP2 PUSH1 0x20 ADD SWAP2 PUSH2 0x10EC JUMP JUMPDEST DUP3 ADD SWAP2 SWAP1 PUSH1 0x0 MSTORE PUSH1 0x20 PUSH1 0x0 KECCAK256 SWAP1 JUMPDEST DUP2 SLOAD DUP2 MSTORE SWAP1 PUSH1 0x1 ADD SWAP1 PUSH1 0x20 ADD DUP1 DUP4 GT PUSH2 0x10CF JUMPI DUP3 SWAP1 SUB PUSH1 0x1F AND DUP3 ADD SWAP2 JUMPDEST POP POP POP SWAP2 DUP4 MSTORE POP POP PUSH1 0x4 DUP3 ADD SLOAD PUSH1 0x20 SWAP1 SWAP2 ADD SWAP1 PUSH1 0xFF AND PUSH1 0x3 DUP2 GT ISZERO PUSH2 0x1113 JUMPI PUSH2 0x1113 PUSH2 0x1375 JUMP JUMPDEST PUSH1 0x3 DUP2 GT ISZERO PUSH2 0x1124 JUMPI PUSH2 0x1124 PUSH2 0x1375 JUMP JUMPDEST DUP2 MSTORE PUSH1 0x5 DUP3 ADD SLOAD PUSH1 0x20 DUP3 ADD MSTORE PUSH1 0x6 DUP3 ADD SLOAD PUSH1 0x1 PUSH1 0x1 PUSH1 0xA0 SHL SUB DUP2 AND PUSH1 0x40 DUP4 ADD MSTORE PUSH1 0x60 SWAP1 SWAP2 ADD SWAP1 PUSH1 0x1 PUSH1 0xA0 SHL SWAP1 DIV PUSH1 0xFF AND PUSH1 0x4 DUP2 GT ISZERO PUSH2 0x1165 JUMPI PUSH2 0x1165 PUSH2 0x1375 JUMP JUMPDEST PUSH1 0x4 DUP2 GT ISZERO PUSH2 0x1176 JUMPI PUSH2 0x1176 PUSH2 0x1375 JUMP JUMPDEST DUP2 MSTORE PUSH1 0x7 DUP3 ADD SLOAD PUSH1 0x20 DUP3 ADD MSTORE PUSH1 0x8 SWAP1 SWAP2 ADD SLOAD PUSH1 0x40 SWAP1 SWAP2 ADD MSTORE SWAP3 SWAP2 POP POP JUMP JUMPDEST PUSH1 0x1 PUSH1 0x1 PUSH1 0xA0 SHL SUB DUP2 AND PUSH1 0x0 SWAP1 DUP2 MSTORE PUSH1 0x4 PUSH1 0x20 MSTORE PUSH1 0x40 DUP2 KECCAK256 SLOAD PUSH1 0xFF AND PUSH2 0x11BC JUMPI POP PUSH1 0x0 SWAP2 SWAP1 POP JUMP JUMPDEST PUSH1 0x1 PUSH1 0x1 PUSH1 0xA0 SHL SUB DUP3 AND PUSH1 0x0 SWAP1 DUP2 MSTORE PUSH1 0x2 PUSH1 0x20 MSTORE PUSH1 0x40 SWAP1 KECCAK256 PUSH1 0x3 ADD SLOAD PUSH2 0x12C SWAP1 PUSH2 0x11E6 SWAP1 TIMESTAMP PUSH2 0x19B6 JUMP JUMPDEST GT ISZERO SWAP3 SWAP2 POP POP JUMP JUMPDEST PUSH2 0x11F6 PUSH2 0x122C JUMP JUMPDEST PUSH1 0x1 PUSH1 0x1 PUSH1 0xA0 SHL SUB DUP2 AND PUSH2 0x1220 JUMPI PUSH1 0x40 MLOAD PUSH4 0x1E4FBDF7 PUSH1 0xE0 SHL DUP2 MSTORE PUSH1 0x0 PUSH1 0x4 DUP3 ADD MSTORE PUSH1 0x24 ADD PUSH2 0x4C9 JUMP JUMPDEST PUSH2 0x1229 DUP2 PUSH2 0x1259 JUMP JUMPDEST POP JUMP JUMPDEST PUSH1 0x0 SLOAD PUSH1 0x1 PUSH1 0x1 PUSH1 0xA0 SHL SUB AND CALLER EQ PUSH2 0xA70 JUMPI PUSH1 0x40 MLOAD PUSH4 0x118CDAA7 PUSH1 0xE0 SHL DUP2 MSTORE CALLER PUSH1 0x4 DUP3 ADD MSTORE PUSH1 0x24 ADD PUSH2 0x4C9 JUMP JUMPDEST PUSH1 0x0 DUP1 SLOAD PUSH1 0x1 PUSH1 0x1 PUSH1 0xA0 SHL SUB DUP4 DUP2 AND PUSH1 0x1 PUSH1 0x1 PUSH1 0xA0 SHL SUB NOT DUP4 AND DUP2 OR DUP5 SSTORE PUSH1 0x40 MLOAD SWAP2 SWAP1 SWAP3 AND SWAP3 DUP4 SWAP2 PUSH32 0x8BE0079C531659141344CD1FD0A4F28419497F9722A3DAAFE3B4186F6B6457E0 SWAP2 SWAP1 LOG3 POP POP JUMP JUMPDEST PUSH1 0x40 MLOAD DUP1 PUSH2 0x140 ADD PUSH1 0x40 MSTORE DUP1 PUSH1 0x0 DUP2 MSTORE PUSH1 0x20 ADD PUSH1 0x0 PUSH1 0x1 PUSH1 0x1 PUSH1 0xA0 SHL SUB AND DUP2 MSTORE PUSH1 0x20 ADD PUSH1 0x60 DUP2 MSTORE PUSH1 0x20 ADD PUSH1 0x60 DUP2 MSTORE PUSH1 0x20 ADD PUSH1 0x0 PUSH1 0x3 DUP2 GT ISZERO PUSH2 0x12ED JUMPI PUSH2 0x12ED PUSH2 0x1375 JUMP JUMPDEST DUP2 MSTORE PUSH1 0x0 PUSH1 0x20 DUP3 ADD DUP2 SWAP1 MSTORE PUSH1 0x40 DUP3 ADD DUP2 SWAP1 MSTORE PUSH1 0x60 DUP3 ADD DUP2 SWAP1 MSTORE PUSH1 0x80 DUP3 ADD DUP2 SWAP1 MSTORE PUSH1 0xA0 SWAP1 SWAP2 ADD MSTORE SWAP1 JUMP JUMPDEST PUSH1 0x0 PUSH1 0x20 DUP3 DUP5 SUB SLT ISZERO PUSH2 0x1328 JUMPI PUSH1 0x0 DUP1 REVERT JUMPDEST POP CALLDATALOAD SWAP2 SWAP1 POP JUMP JUMPDEST PUSH1 0x0 DUP2 MLOAD DUP1 DUP5 MSTORE PUSH1 0x0 JUMPDEST DUP2 DUP2 LT ISZERO PUSH2 0x1355 JUMPI PUSH1 0x20 DUP2 DUP6 ADD DUP2 ADD MLOAD DUP7 DUP4 ADD DUP3 ADD MSTORE ADD PUSH2 0x1339 JUMP JUMPDEST POP PUSH1 0x0 PUSH1 0x20 DUP3 DUP7 ADD ADD MSTORE PUSH1 0x20 PUSH1 0x1F NOT PUSH1 0x1F DUP4 ADD AND DUP6 ADD ADD SWAP2 POP POP SWAP3 SWAP2 POP POP JUMP JUMPDEST PUSH4 0x4E487B71 PUSH1 0xE0 SHL PUSH1 0x0 MSTORE PUSH1 0x21 PUSH1 0x4 MSTORE PUSH1 0x24 PUSH1 0x0 REVERT JUMPDEST PUSH1 0x4 DUP2 LT PUSH2 0x139B JUMPI PUSH2 0x139B PUSH2 0x1375 JUMP JUMPDEST SWAP1 MSTORE JUMP JUMPDEST PUSH1 0x5 DUP2 LT PUSH2 0x139B JUMPI PUSH2 0x139B PUSH2 0x1375 JUMP JUMPDEST DUP11 DUP2 MSTORE PUSH1 0x1 PUSH1 0x1 PUSH1 0xA0 SHL SUB DUP11 DUP2 AND PUSH1 0x20 DUP4 ADD MSTORE PUSH2 0x140 PUSH1 0x40 DUP4 ADD DUP2 SWAP1 MSTORE PUSH1 0x0 SWAP2 PUSH2 0x13DB DUP5 DUP4 ADD DUP14 PUSH2 0x132F JUMP JUMPDEST SWAP2 POP DUP4 DUP3 SUB PUSH1 0x60 DUP6 ADD MSTORE PUSH2 0x13EF DUP3 DUP13 PUSH2 0x132F JUMP JUMPDEST SWAP3 POP PUSH2 0x13FE PUSH1 0x80 DUP6 ADD DUP12 PUSH2 0x138B JUMP JUMPDEST PUSH1 0xA0 DUP5 ADD DUP10 SWAP1 MSTORE DUP8 AND PUSH1 0xC0 DUP5 ADD MSTORE POP PUSH2 0x141A PUSH1 0xE0 DUP4 ADD DUP7 PUSH2 0x139F JUMP JUMPDEST PUSH2 0x100 DUP3 ADD SWAP4 SWAP1 SWAP4 MSTORE PUSH2 0x120 ADD MSTORE SWAP9 SWAP8 POP POP POP POP POP POP POP POP JUMP JUMPDEST PUSH1 0x0 PUSH1 0x20 DUP3 DUP5 SUB SLT ISZERO PUSH2 0x1446 JUMPI PUSH1 0x0 DUP1 REVERT JUMPDEST DUP2 CALLDATALOAD PUSH1 0x1 PUSH1 0x1 PUSH1 0xA0 SHL SUB DUP2 AND DUP2 EQ PUSH2 0x145D JUMPI PUSH1 0x0 DUP1 REVERT JUMPDEST SWAP4 SWAP3 POP POP POP JUMP JUMPDEST DUP1 CALLDATALOAD PUSH1 0x4 DUP2 LT PUSH2 0x1473 JUMPI PUSH1 0x0 DUP1 REVERT JUMPDEST SWAP2 SWAP1 POP JUMP JUMPDEST PUSH1 0x0 DUP1 PUSH1 0x40 DUP4 DUP6 SUB SLT ISZERO PUSH2 0x148B JUMPI PUSH1 0x0 DUP1 REVERT JUMPDEST PUSH2 0x1494 DUP4 PUSH2 0x1464 JUMP JUMPDEST SWAP5 PUSH1 0x20 SWAP4 SWAP1 SWAP4 ADD CALLDATALOAD SWAP4 POP POP POP JUMP JUMPDEST PUSH1 0x1 PUSH1 0x1 PUSH1 0xA0 SHL SUB DUP8 AND DUP2 MSTORE PUSH1 0xC0 DUP2 ADD PUSH2 0x14BF PUSH1 0x20 DUP4 ADD DUP9 PUSH2 0x138B JUMP JUMPDEST PUSH1 0x40 DUP3 ADD SWAP6 SWAP1 SWAP6 MSTORE SWAP3 ISZERO ISZERO PUSH1 0x60 DUP5 ADD MSTORE PUSH1 0x80 DUP4 ADD SWAP2 SWAP1 SWAP2 MSTORE PUSH1 0xA0 SWAP1 SWAP2 ADD MSTORE SWAP3 SWAP2 POP POP JUMP JUMPDEST PUSH1 0x0 DUP1 PUSH1 0x0 PUSH1 0x40 DUP5 DUP7 SUB SLT ISZERO PUSH2 0x14F8 JUMPI PUSH1 0x0 DUP1 REVERT JUMPDEST DUP4 CALLDATALOAD SWAP3 POP PUSH1 0x20 DUP5 ADD CALLDATALOAD PUSH8 0xFFFFFFFFFFFFFFFF DUP1 DUP3 GT ISZERO PUSH2 0x1517 JUMPI PUSH1 0x0 DUP1 REVERT JUMPDEST DUP2 DUP7 ADD SWAP2 POP DUP7 PUSH1 0x1F DUP4 ADD SLT PUSH2 0x152B JUMPI PUSH1 0x0 DUP1 REVERT JUMPDEST DUP2 CALLDATALOAD DUP2 DUP2 GT ISZERO PUSH2 0x153A JUMPI PUSH1 0x0 DUP1 REVERT JUMPDEST DUP8 PUSH1 0x20 DUP3 DUP6 ADD ADD GT ISZERO PUSH2 0x154C JUMPI PUSH1 0x0 DUP1 REVERT JUMPDEST PUSH1 0x20 DUP4 ADD SWAP5 POP DUP1 SWAP4 POP POP POP POP SWAP3 POP SWAP3 POP SWAP3 JUMP JUMPDEST PUSH4 0x4E487B71 PUSH1 0xE0 SHL PUSH1 0x0 MSTORE PUSH1 0x41 PUSH1 0x4 MSTORE PUSH1 0x24 PUSH1 0x0 REVERT JUMPDEST PUSH1 0x0 PUSH8 0xFFFFFFFFFFFFFFFF DUP1 DUP5 GT ISZERO PUSH2 0x1590 JUMPI PUSH2 0x1590 PUSH2 0x155F JUMP JUMPDEST PUSH1 0x40 MLOAD PUSH1 0x1F DUP6 ADD PUSH1 0x1F NOT SWAP1 DUP2 AND PUSH1 0x3F ADD AND DUP2 ADD SWAP1 DUP3 DUP3 GT DUP2 DUP4 LT OR ISZERO PUSH2 0x15B8 JUMPI PUSH2 0x15B8 PUSH2 0x155F JUMP JUMPDEST DUP2 PUSH1 0x40 MSTORE DUP1 SWAP4 POP DUP6 DUP2 MSTORE DUP7 DUP7 DUP7 ADD GT ISZERO PUSH2 0x15D1 JUMPI PUSH1 0x0 DUP1 REVERT JUMPDEST DUP6 DUP6 PUSH1 0x20 DUP4 ADD CALLDATACOPY PUSH1 0x0 PUSH1 0x20 DUP8 DUP4 ADD ADD MSTORE POP POP POP SWAP4 SWAP3 POP POP POP JUMP JUMPDEST PUSH1 0x0 DUP1 PUSH1 0x0 DUP1 PUSH1 0x80 DUP6 DUP8 SUB SLT ISZERO PUSH2 0x1601 JUMPI PUSH1 0x0 DUP1 REVERT JUMPDEST DUP5 CALLDATALOAD PUSH8 0xFFFFFFFFFFFFFFFF DUP1 DUP3 GT ISZERO PUSH2 0x1619 JUMPI PUSH1 0x0 DUP1 REVERT JUMPDEST DUP2 DUP8 ADD SWAP2 POP DUP8 PUSH1 0x1F DUP4 ADD SLT PUSH2 0x162D JUMPI PUSH1 0x0 DUP1 REVERT JUMPDEST PUSH2 0x163C DUP9 DUP4 CALLDATALOAD PUSH1 0x20 DUP6 ADD PUSH2 0x1575 JUMP JUMPDEST SWAP6 POP PUSH1 0x20 DUP8 ADD CALLDATALOAD SWAP2 POP DUP1 DUP3 GT ISZERO PUSH2 0x1652 JUMPI PUSH1 0x0 DUP1 REVERT JUMPDEST POP DUP6 ADD PUSH1 0x1F DUP2 ADD DUP8 SGT PUSH2 0x1664 JUMPI PUSH1 0x0 DUP1 REVERT JUMPDEST PUSH2 0x1673 DUP8 DUP3 CALLDATALOAD PUSH1 0x20 DUP5 ADD PUSH2 0x1575 JUMP JUMPDEST SWAP4 POP POP PUSH2 0x1682 PUSH1 0x40 DUP7 ADD PUSH2 0x1464 JUMP JUMPDEST SWAP4 SWAP7 SWAP3 SWAP6 POP SWAP3 SWAP4 PUSH1 0x60 ADD CALLDATALOAD SWAP3 POP POP JUMP JUMPDEST DUP2 MLOAD PUSH1 0x1 PUSH1 0x1 PUSH1 0xA0 SHL SUB AND DUP2 MSTORE PUSH1 0x20 DUP1 DUP4 ADD MLOAD PUSH1 0xC0 DUP4 ADD SWAP2 PUSH2 0x16B6 SWAP1 DUP5 ADD DUP3 PUSH2 0x138B JUMP JUMPDEST POP PUSH1 0x40 DUP4 ADD MLOAD PUSH1 0x40 DUP4 ADD MSTORE PUSH1 0x60 DUP4 ADD MLOAD ISZERO ISZERO PUSH1 0x60 DUP4 ADD MSTORE PUSH1 0x80 DUP4 ADD MLOAD PUSH1 0x80 DUP4 ADD MSTORE PUSH1 0xA0 DUP4 ADD MLOAD PUSH1 0xA0 DUP4 ADD MSTORE SWAP3 SWAP2 POP POP JUMP JUMPDEST PUSH1 0x20 DUP2 MSTORE DUP2 MLOAD PUSH1 0x20 DUP3 ADD MSTORE PUSH1 0x0 PUSH1 0x20 DUP4 ADD MLOAD PUSH2 0x170E PUSH1 0x40 DUP5 ADD DUP3 PUSH1 0x1 PUSH1 0x1 PUSH1 0xA0 SHL SUB AND SWAP1 MSTORE JUMP JUMPDEST POP PUSH1 0x40 DUP4 ADD MLOAD PUSH2 0x140 DUP1 PUSH1 0x60 DUP6 ADD MSTORE PUSH2 0x172B PUSH2 0x160 DUP6 ADD DUP4 PUSH2 0x132F JUMP JUMPDEST SWAP2 POP PUSH1 0x60 DUP6 ADD MLOAD PUSH1 0x1F NOT DUP6 DUP5 SUB ADD PUSH1 0x80 DUP7 ADD MSTORE PUSH2 0x1748 DUP4 DUP3 PUSH2 0x132F JUMP JUMPDEST SWAP3 POP POP PUSH1 0x80 DUP6 ADD MLOAD PUSH2 0x175D PUSH1 0xA0 DUP7 ADD DUP3 PUSH2 0x138B JUMP JUMPDEST POP PUSH1 0xA0 DUP6 ADD MLOAD PUSH1 0xC0 DUP6 ADD MSTORE PUSH1 0xC0 DUP6 ADD MLOAD PUSH2 0x1782 PUSH1 0xE0 DUP7 ADD DUP3 PUSH1 0x1 PUSH1 0x1 PUSH1 0xA0 SHL SUB AND SWAP1 MSTORE JUMP JUMPDEST POP PUSH1 0xE0 DUP6 ADD MLOAD PUSH2 0x100 PUSH2 0x1797 DUP2 DUP8 ADD DUP4 PUSH2 0x139F JUMP JUMPDEST DUP7 ADD MLOAD PUSH2 0x120 DUP7 DUP2 ADD SWAP2 SWAP1 SWAP2 MSTORE SWAP1 SWAP6 ADD MLOAD SWAP4 ADD SWAP3 SWAP1 SWAP3 MSTORE POP SWAP2 SWAP1 POP JUMP JUMPDEST PUSH1 0x1 DUP2 DUP2 SHR SWAP1 DUP3 AND DUP1 PUSH2 0x17C8 JUMPI PUSH1 0x7F DUP3 AND SWAP2 POP JUMPDEST PUSH1 0x20 DUP3 LT DUP2 SUB PUSH2 0x17E8 JUMPI PUSH4 0x4E487B71 PUSH1 0xE0 SHL PUSH1 0x0 MSTORE PUSH1 0x22 PUSH1 0x4 MSTORE PUSH1 0x24 PUSH1 0x0 REVERT JUMPDEST POP SWAP2 SWAP1 POP JUMP JUMPDEST PUSH1 0x40 DUP2 ADD PUSH2 0x17FC DUP3 DUP6 PUSH2 0x138B JUMP JUMPDEST DUP3 PUSH1 0x20 DUP4 ADD MSTORE SWAP4 SWAP3 POP POP POP JUMP JUMPDEST PUSH1 0x20 DUP1 DUP3 MSTORE PUSH1 0x12 SWAP1 DUP3 ADD MSTORE PUSH18 0x129BD888191BD95CC81B9BDD08195E1A5CDD PUSH1 0x72 SHL PUSH1 0x40 DUP3 ADD MSTORE PUSH1 0x60 ADD SWAP1 JUMP JUMPDEST PUSH1 0x20 DUP2 MSTORE DUP2 PUSH1 0x20 DUP3 ADD MSTORE DUP2 DUP4 PUSH1 0x40 DUP4 ADD CALLDATACOPY PUSH1 0x0 DUP2 DUP4 ADD PUSH1 0x40 SWAP1 DUP2 ADD SWAP2 SWAP1 SWAP2 MSTORE PUSH1 0x1F SWAP1 SWAP3 ADD PUSH1 0x1F NOT AND ADD ADD SWAP2 SWAP1 POP JUMP JUMPDEST PUSH4 0x4E487B71 PUSH1 0xE0 SHL PUSH1 0x0 MSTORE PUSH1 0x11 PUSH1 0x4 MSTORE PUSH1 0x24 PUSH1 0x0 REVERT JUMPDEST PUSH1 0x0 PUSH1 0x1 DUP3 ADD PUSH2 0x188C JUMPI PUSH2 0x188C PUSH2 0x1864 JUMP JUMPDEST POP PUSH1 0x1 ADD SWAP1 JUMP JUMPDEST PUSH1 0x1F DUP3 GT ISZERO PUSH2 0x18DD JUMPI PUSH1 0x0 DUP2 DUP2 MSTORE PUSH1 0x20 DUP2 KECCAK256 PUSH1 0x1F DUP6 ADD PUSH1 0x5 SHR DUP2 ADD PUSH1 0x20 DUP7 LT ISZERO PUSH2 0x18BA JUMPI POP DUP1 JUMPDEST PUSH1 0x1F DUP6 ADD PUSH1 0x5 SHR DUP3 ADD SWAP2 POP JUMPDEST DUP2 DUP2 LT ISZERO PUSH2 0x18D9 JUMPI DUP3 DUP2 SSTORE PUSH1 0x1 ADD PUSH2 0x18C6 JUMP JUMPDEST POP POP POP JUMPDEST POP POP POP JUMP JUMPDEST DUP2 MLOAD PUSH8 0xFFFFFFFFFFFFFFFF DUP2 GT ISZERO PUSH2 0x18FC JUMPI PUSH2 0x18FC PUSH2 0x155F JUMP JUMPDEST PUSH2 0x1910 DUP2 PUSH2 0x190A DUP5 SLOAD PUSH2 0x17B4 JUMP JUMPDEST DUP5 PUSH2 0x1893 JUMP JUMPDEST PUSH1 0x20 DUP1 PUSH1 0x1F DUP4 GT PUSH1 0x1 DUP2 EQ PUSH2 0x1945 JUMPI PUSH1 0x0 DUP5 ISZERO PUSH2 0x192D JUMPI POP DUP6 DUP4 ADD MLOAD JUMPDEST PUSH1 0x0 NOT PUSH1 0x3 DUP7 SWAP1 SHL SHR NOT AND PUSH1 0x1 DUP6 SWAP1 SHL OR DUP6 SSTORE PUSH2 0x18D9 JUMP JUMPDEST PUSH1 0x0 DUP6 DUP2 MSTORE PUSH1 0x20 DUP2 KECCAK256 PUSH1 0x1F NOT DUP7 AND SWAP2 JUMPDEST DUP3 DUP2 LT ISZERO PUSH2 0x1974 JUMPI DUP9 DUP7 ADD MLOAD DUP3 SSTORE SWAP5 DUP5 ADD SWAP5 PUSH1 0x1 SWAP1 SWAP2 ADD SWAP1 DUP5 ADD PUSH2 0x1955 JUMP JUMPDEST POP DUP6 DUP3 LT ISZERO PUSH2 0x1992 JUMPI DUP8 DUP6 ADD MLOAD PUSH1 0x0 NOT PUSH1 0x3 DUP9 SWAP1 SHL PUSH1 0xF8 AND SHR NOT AND DUP2 SSTORE JUMPDEST POP POP POP POP POP PUSH1 0x1 SWAP1 DUP2 SHL ADD SWAP1 SSTORE POP JUMP JUMPDEST PUSH1 0x20 DUP2 ADD PUSH2 0x19B0 DUP3 DUP5 PUSH2 0x138B JUMP JUMPDEST SWAP3 SWAP2 POP POP JUMP JUMPDEST DUP2 DUP2 SUB DUP2 DUP2 GT ISZERO PUSH2 0x19B0 JUMPI PUSH2 0x19B0 PUSH2 0x1864 JUMP INVALID LOG2 PUSH5 0x6970667358 0x22 SLT KECCAK256 0x29 0x4E CALLVALUE CHAINID 0xEC 0xB6 0xE5 SGT 0x5D 0x26 SDIV 0x2D PUSH32 0x74C56D6FD108E2CE0B280478E7EAA10CC641AB64736F6C634300081400330000 "},"methodIdentifiers":{"HEARTBEAT_TIMEOUT()":"2890e5a4","assignJobToNode(uint256)":"b2a49fb3","completeJob(uint256)":"a1c0d32f","failJob(uint256,string)":"5e39baaa","getJob(uint256)":"bf22c457","getJobCount()":"b02b4a2f","getMarketplaceNode(address)":"a096c311","heartbeat()":"3defb962","isNodeAlive(address)":"d8e84977","jobCounter()":"50355d76","jobs(uint256)":"180aedf3","marketplaceNodes(address)":"3ed8e7eb","owner()":"8da5cb5b","postJob(string,bytes,uint8,uint256)":"6d3561e4","registerMarketplaceNode(uint8,uint256)":"283700e7","registeredMarketplaceNodes(address)":"24239c61","renounceOwnership()":"715018a6","transferOwnership(address)":"f2fde38b"}}}}}