{"contracts/VInferenceAudit.sol":{"VInferenceAudit":{"abi":[{"inputs":[],"stateMutability":"nonpayable","type":"constructor"},{"anonymous":false,"inputs":[{"indexed":true,"internalType":"string","name":"jobId","type":"string"},{"indexed":false,"internalType":"bytes32","name":"proofHash","type":"bytes32"},{"indexed":true,"internalType":"address","name":"auditor","type":"address"},{"indexed":false,"internalType":"uint256","name":"timestamp","type":"uint256"}],"name":"AuditAnchored","type":"event"},{"anonymous":false,"inputs":[{"indexed":true,"internalType":"string","name":"jobId","type":"string"},{"indexed":false,"internalType":"bytes32","name":"proofHash","type":"bytes32"},{"indexed":false,"internalType":"bool","name":"valid","type":"bool"},{"indexed":true,"internalType":"address","name":"verifier","type":"address"}],"name":"AuditVerified","type":"event"},{"inputs":[],"name":"NAME","outputs":[{"internalType":"string","name":"","type":"string"}],"stateMutability":"view","type":"function"},{"inputs":[],"name":"VERSION","outputs":[{"internalType":"string","name":"","type":"string"}],"stateMutability":"view","type":"function"},{"inputs":[{"internalType":"bytes32","name":"proofHash","type":"bytes32"},{"internalType":"string","name":"jobId","type":"string"}],"name":"anchorAudit","outputs":[{"internalType":"bool","name":"success","type":"bool"}],"stateMutability":"nonpayable","type":"function"},{"inputs":[{"internalType":"string","name":"jobId","type":"string"}],"name":"auditExists","outputs":[{"internalType":"bool","name":"exists","type":"bool"}],"stateMutability":"view","type":"function"},{"inputs":[{"internalType":"string","name":"","type":"string"}],"name":"audits","outputs":[{"internalType":"bytes32","name":"proofHash","type":"bytes32"},{"internalType":"string","name":"jobId","type":"string"},{"internalType":"address","name":"auditor","type":"address"},{"internalType":"uint256","name":"timestamp","type":"uint256"},{"internalType":"uint256","name":"blockNumber","type":"uint256"},{"internalType":"bool","name":"exists","type":"bool"}],"stateMutability":"view","type":"function"},{"inputs":[{"internalType":"string","name":"jobId","type":"string"}],"name":"getAudit","outputs":[{"internalType":"bytes32","name":"proofHash","type":"bytes32"},{"internalType":"address","name":"auditor","type":"address"},{"internalType":"uint256","name":"timestamp","type":"uint256"},{"internalType":"uint256","name":"blockNumber","type":"uint256"},{"internalType":"bool","name":"exists","type":"bool"}],"stateMutability":"view","type":"function"},{"inputs":[],"name":"getAuditCount","outputs":[{"internalType":"uint256","name":"count","type":"uint256"}],"stateMutability":"view","type":"function"},{"inputs":[{"internalType":"uint256","name":"index","type":"uint256"}],"name":"getJobIdByIndex","outputs":[{"internalType":"string","name":"jobId","type":"string"}],"stateMutability":"view","type":"function"},{"inputs":[{"internalType":"uint256","name":"count","type":"uint256"}],"name":"getRecentAudits","outputs":[{"internalType":"string[]","name":"recentJobIds","type":"string[]"}],"stateMutability":"view","type":"function"},{"inputs":[{"internalType":"uint256","name":"","type":"uint256"}],"name":"jobIds","outputs":[{"internalType":"string","name":"","type":"string"}],"stateMutability":"view","type":"function"},{"inputs":[],"name":"owner","outputs":[{"internalType":"address","name":"","type":"address"}],"stateMutability":"view","type":"function"},{"inputs":[],"name":"totalAudits","outputs":[{"internalType":"uint256","name":"","type":"uint256"}],"stateMutability":"view","type":"function"},{"inputs":[{"internalType":"address","name":"newOwner","type":"address"}],"name":"transferOwnership","outputs":[],"stateMutability":"nonpayable","type":"function"},{"inputs":[{"internalType":"string","name":"jobId","type":"string"},{"internalType":"bytes32","name":"proofHash","type":"bytes32"}],"name":"verifyAudit","outputs":[{"internalType":"bool","name":"valid","type":"bool"},{"internalType":"bytes32","name":"onChainHash","type":"bytes32"}],"stateMutability":"nonpayable","type":"function"}],"evm":{"bytecode":{"linkReferences":{},"object":"608060405234801561001057600080fd5b50600080546001600160a01b03191633179055610f7d806100326000396000f3fe608060405234801561001057600080fd5b50600436106100ea5760003560e01c80639b506a041161008c578063d51b27b811610066578063d51b27b81461023c578063f2fde38b14610261578063fab7136c14610276578063ffa1ad74146102a057600080fd5b80639b506a04146101b45780639e0a4940146101c7578063a3f4df7e1461020c57600080fd5b80634a07147f116100c85780634a07147f146101575780636353bde61461016e5780637d9faabe146101765780638da5cb5b1461018957600080fd5b806322abbb67146100ef578063405286f3146101175780634162cc8814610137575b600080fd5b6101026100fd366004610b6a565b6102c4565b60405190151581526020015b60405180910390f35b61012a610125366004610ba7565b6102f2565b60405161010e9190610c10565b61014a610145366004610ba7565b610458565b60405161010e9190610c72565b61016060015481565b60405190815260200161010e565b600154610160565b61014a610184366004610ba7565b610504565b60005461019c906001600160a01b031681565b6040516001600160a01b03909116815260200161010e565b6101026101c2366004610c8c565b610600565b6101da6101d5366004610b6a565b610813565b604080519586526001600160a01b0390941660208601529284019190915260608301521515608082015260a00161010e565b61014a60405180604001604052806011815260200170158b525b99995c995b98d948105d591a5d607a1b81525081565b61024f61024a366004610b6a565b610871565b60405161010e96959493929190610cd3565b61027461026f366004610d1c565b610947565b005b610289610284366004610d45565b6109f7565b60408051921515835260208301919091520161010e565b61014a604051806040016040528060058152602001640312e302e360dc1b81525081565b60006002826040516102d69190610d8a565b9081526040519081900360200190206005015460ff1692915050565b60035460609060008184116103075783610309565b815b90508067ffffffffffffffff81111561032457610324610ac7565b60405190808252806020026020018201604052801561035757816020015b60608152602001906001900390816103425790505b50925060005b8181101561045057600381610373600186610dbc565b61037d9190610dbc565b8154811061038d5761038d610dcf565b9060005260206000200180546103a290610de5565b80601f01602080910402602001604051908101604052809291908181526020018280546103ce90610de5565b801561041b5780601f106103f05761010080835404028352916020019161041b565b820191906000526020600020905b8154815290600101906020018083116103fe57829003601f168201915b505050505084828151811061043257610432610dcf565b6020026020010181905250808061044890610e1f565b91505061035d565b505050919050565b6003818154811061046857600080fd5b90600052602060002001600091509050805461048390610de5565b80601f01602080910402602001604051908101604052809291908181526020018280546104af90610de5565b80156104fc5780601f106104d1576101008083540402835291602001916104fc565b820191906000526020600020905b8154815290600101906020018083116104df57829003601f168201915b505050505081565b60035460609082106105535760405162461bcd60e51b8152602060048201526013602482015272496e646578206f7574206f6620626f756e647360681b60448201526064015b60405180910390fd5b6003828154811061056657610566610dcf565b90600052602060002001805461057b90610de5565b80601f01602080910402602001604051908101604052809291908181526020018280546105a790610de5565b80156105f45780601f106105c9576101008083540402835291602001916105f4565b820191906000526020600020905b8154815290600101906020018083116105d757829003601f168201915b50505050509050919050565b60006002826040516106129190610d8a565b9081526040519081900360200190206005015460ff161561066c5760405162461bcd60e51b8152602060048201526014602482015273417564697420616c72656164792065786973747360601b604482015260640161054a565b826106ae5760405162461bcd60e51b8152602060048201526012602482015271092dcecc2d8d2c840e0e4dedecc40d0c2e6d60731b604482015260640161054a565b6040805160c081018252848152602081018490523381830152426060820152436080820152600160a082015290516002906106ea908590610d8a565b90815260405160209181900382019020825181559082015160018201906107119082610e87565b5060408201516002820180546001600160a01b0319166001600160a01b0390921691909117905560608201516003808301919091556080830151600483015560a0909201516005909101805460ff191691151591909117905580546001810182556000919091527fc2575a0e9e593c00f959f8c92f12db2869c3395a3b0502d05e2516446f71f85b016107a48382610e87565b50600180549060006107b583610e1f565b909155505060405133906107ca908490610d8a565b60408051918290038220868352426020840152917fe33032a18f6de3deb81407e9da129248e53ad8c0e68dfab6614df319d1d9f3f2910160405180910390a35060015b92915050565b60008060008060008060028760405161082c9190610d8a565b9081526040519081900360200190208054600282015460038301546004840154600590940154929b6001600160a01b039092169a50985091965060ff16945092505050565b80516020818301810180516002825292820191909301209152805460018201805491929161089e90610de5565b80601f01602080910402602001604051908101604052809291908181526020018280546108ca90610de5565b80156109175780601f106108ec57610100808354040283529160200191610917565b820191906000526020600020905b8154815290600101906020018083116108fa57829003601f168201915b5050505060028301546003840154600485015460059095015493946001600160a01b039092169390925060ff1686565b6000546001600160a01b0316331461098d5760405162461bcd60e51b81526020600482015260096024820152682737ba1037bbb732b960b91b604482015260640161054a565b6001600160a01b0381166109d55760405162461bcd60e51b815260206004820152600f60248201526e496e76616c6964206164647265737360881b604482015260640161054a565b600080546001600160a01b0319166001600160a01b0392909216919091179055565b6000806000600285604051610a0c9190610d8a565b908152604051908190036020019020600581015490915060ff16610a645760405162461bcd60e51b815260206004820152600f60248201526e105d591a5d081b9bdd08199bdd5b99608a1b604482015260640161054a565b805460405185821494509092503390610a7e908790610d8a565b604080519182900382208783528615156020840152917f72293e7521a284d6801ad5e68af99e04397981d7733d5251d9f6c5d7525633d0910160405180910390a3509250929050565b634e487b7160e01b600052604160045260246000fd5b600082601f830112610aee57600080fd5b813567ffffffffffffffff80821115610b0957610b09610ac7565b604051601f8301601f19908116603f01168101908282118183101715610b3157610b31610ac7565b81604052838152866020858801011115610b4a57600080fd5b836020870160208301376000602085830101528094505050505092915050565b600060208284031215610b7c57600080fd5b813567ffffffffffffffff811115610b9357600080fd5b610b9f84828501610add565b949350505050565b600060208284031215610bb957600080fd5b5035919050565b60005b83811015610bdb578181015183820152602001610bc3565b50506000910152565b60008151808452610bfc816020860160208601610bc0565b601f01601f19169290920160200192915050565b6000602080830181845280855180835260408601915060408160051b870101925083870160005b82811015610c6557603f19888603018452610c53858351610be4565b94509285019290850190600101610c37565b5092979650505050505050565b602081526000610c856020830184610be4565b9392505050565b60008060408385031215610c9f57600080fd5b82359150602083013567ffffffffffffffff811115610cbd57600080fd5b610cc985828601610add565b9150509250929050565b86815260c060208201526000610cec60c0830188610be4565b6001600160a01b039690961660408301525060608101939093526080830191909152151560a09091015292915050565b600060208284031215610d2e57600080fd5b81356001600160a01b0381168114610c8557600080fd5b60008060408385031215610d5857600080fd5b823567ffffffffffffffff811115610d6f57600080fd5b610d7b85828601610add565b95602094909401359450505050565b60008251610d9c818460208701610bc0565b9190910192915050565b634e487b7160e01b600052601160045260246000fd5b8181038181111561080d5761080d610da6565b634e487b7160e01b600052603260045260246000fd5b600181811c90821680610df957607f821691505b602082108103610e1957634e487b7160e01b600052602260045260246000fd5b50919050565b600060018201610e3157610e31610da6565b5060010190565b601f821115610e8257600081815260208120601f850160051c81016020861015610e5f5750805b601f850160051c820191505b81811015610e7e57828155600101610e6b565b5050505b505050565b815167ffffffffffffffff811115610ea157610ea1610ac7565b610eb581610eaf8454610de5565b84610e38565b602080601f831160018114610eea5760008415610ed25750858301515b600019600386901b1c1916600185901b178555610e7e565b600085815260208120601f198616915b82811015610f1957888601518255948401946001909101908401610efa565b5085821015610f375787850151600019600388901b60f8161c191681555b5050505050600190811b0190555056fea2646970667358221220d512f265f31d2be9d38db24a3c165a7fbde776c0379fbbad3db31b514797c8eb64736f6c63430008140033","opcodes":"PUSH1 0x80 PUSH1 0x40 MSTORE CALLVALUE DUP1 ISZERO PUSH2 0x10 JUMPI PUSH1 0x0 DUP1 REVERT JUMPDEST POP PUSH1 0x0 DUP1 SLOAD PUSH1 0x1 PUSH1 0x1 PUSH1 0xA0 SHL SUB NOT AND CALLER OR SWAP1 SSTORE PUSH2 0xF7D DUP1 PUSH2 0x32 PUSH1 0x0 CODECOPY PUSH1 0x0 RETURN INVALID PUSH1 0x80 PUSH1 0x40 MSTORE CALLVALUE DUP1 ISZERO PUSH2 0x10 JUMPI PUSH1 0x0 DUP1 REVERT JUMPDEST POP PUSH1 0x4 CALLDATASIZE LT PUSH2 0xEA JUMPI PUSH1 0x0 CALLDATALOAD PUSH1 0xE0 SHR DUP1 PUSH4 0x9B506A04 GT PUSH2 0x8C JUMPI DUP1 PUSH4 0xD51B27B8 GT PUSH2 0x66 JUMPI DUP1 PUSH4 0xD51B27B8 EQ PUSH2 0x23C JUMPI DUP1 PUSH4 0xF2FDE38B EQ PUSH2 0x261 JUMPI DUP1 PUSH4 0xFAB7136C EQ PUSH2 0x276 JUMPI DUP1 PUSH4 0xFFA1AD74 EQ PUSH2 0x2A0 JUMPI PUSH1 0x0 DUP1 REVERT JUMPDEST DUP1 PUSH4 0x9B506A04 EQ PUSH2 0x1B4 JUMPI DUP1 PUSH4 0x9E0A4940 EQ PUSH2 0x1C7 JUMPI DUP1 PUSH4 0xA3F4DF7E EQ PUSH2 0x20C JUMPI PUSH1 0x0 DUP1 REVERT JUMPDEST DUP1 PUSH4 0x4A07147F GT PUSH2 0xC8 JUMPI DUP1 PUSH4 0x4A07147F EQ PUSH2 0x157 JUMPI DUP1 PUSH4 0x6353BDE6 EQ PUSH2 0x16E JUMPI DUP1 PUSH4 0x7D9FAABE EQ PUSH2 0x176 JUMPI DUP1 PUSH4 0x8DA5CB5B EQ PUSH2 0x189 JUMPI PUSH1 0x0 DUP1 REVERT JUMPDEST DUP1 PUSH4 0x22ABBB67 EQ PUSH2 0xEF JUMPI DUP1 PUSH4 0x405286F3 EQ PUSH2 0x117 JUMPI DUP1 PUSH4 0x4162CC88 EQ PUSH2 0x137 JUMPI JUMPDEST PUSH1 0x0 DUP1 REVERT JUMPDEST PUSH2 0x102 PUSH2 0xFD CALLDATASIZE PUSH1 0x4 PUSH2 0xB6A JUMP JUMPDEST PUSH2 0x2C4 JUMP JUMPDEST PUSH1 0x40 MLOAD SWAP1 ISZERO ISZERO DUP2 MSTORE PUSH1 0x20 ADD JUMPDEST PUSH1 0x40 MLOAD DUP1 SWAP2 SUB SWAP1 RETURN JUMPDEST PUSH2 0x12A PUSH2 0x125 CALLDATASIZE PUSH1 0x4 PUSH2 0xBA7 JUMP JUMPDEST PUSH2 0x2F2 JUMP JUMPDEST PUSH1 0x40 MLOAD PUSH2 0x10E SWAP2 SWAP1 PUSH2 0xC10 JUMP JUMPDEST PUSH2 0x14A PUSH2 0x145 CALLDATASIZE PUSH1 0x4 PUSH2 0xBA7 JUMP JUMPDEST PUSH2 0x458 JUMP JUMPDEST PUSH1 0x40 MLOAD PUSH2 0x10E SWAP2 SWAP1 PUSH2 0xC72 JUMP JUMPDEST PUSH2 0x160 PUSH1 0x1 SLOAD DUP2 JUMP JUMPDEST PUSH1 0x40 MLOAD SWAP1 DUP2 MSTORE PUSH1 0x20 ADD PUSH2 0x10E JUMP JUMPDEST PUSH1 0x1 SLOAD PUSH2 0x160 JUMP JUMPDEST PUSH2 0x14A PUSH2 0x184 CALLDATASIZE PUSH1 0x4 PUSH2 0xBA7 JUMP JUMPDEST PUSH2 0x504 JUMP JUMPDEST PUSH1 0x0 SLOAD PUSH2 0x19C SWAP1 PUSH1 0x1 PUSH1 0x1 PUSH1 0xA0 SHL SUB AND DUP2 JUMP JUMPDEST PUSH1 0x40 MLOAD PUSH1 0x1 PUSH1 0x1 PUSH1 0xA0 SHL SUB SWAP1 SWAP2 AND DUP2 MSTORE PUSH1 0x20 ADD PUSH2 0x10E JUMP JUMPDEST PUSH2 0x102 PUSH2 0x1C2 CALLDATASIZE PUSH1 0x4 PUSH2 0xC8C JUMP JUMPDEST PUSH2 0x600 JUMP JUMPDEST PUSH2 0x1DA PUSH2 0x1D5 CALLDATASIZE PUSH1 0x4 PUSH2 0xB6A JUMP JUMPDEST PUSH2 0x813 JUMP JUMPDEST PUSH1 0x40 DUP1 MLOAD SWAP6 DUP7 MSTORE PUSH1 0x1 PUSH1 0x1 PUSH1 0xA0 SHL SUB SWAP1 SWAP5 AND PUSH1 0x20 DUP7 ADD MSTORE SWAP3 DUP5 ADD SWAP2 SWAP1 SWAP2 MSTORE PUSH1 0x60 DUP4 ADD MSTORE ISZERO ISZERO PUSH1 0x80 DUP3 ADD MSTORE PUSH1 0xA0 ADD PUSH2 0x10E JUMP JUMPDEST PUSH2 0x14A PUSH1 0x40 MLOAD DUP1 PUSH1 0x40 ADD PUSH1 0x40 MSTORE DUP1 PUSH1 0x11 DUP2 MSTORE PUSH1 0x20 ADD PUSH17 0x158B525B99995C995B98D948105D591A5D PUSH1 0x7A SHL DUP2 MSTORE POP DUP2 JUMP JUMPDEST PUSH2 0x24F PUSH2 0x24A CALLDATASIZE PUSH1 0x4 PUSH2 0xB6A JUMP JUMPDEST PUSH2 0x871 JUMP JUMPDEST PUSH1 0x40 MLOAD PUSH2 0x10E SWAP7 SWAP6 SWAP5 SWAP4 SWAP3 SWAP2 SWAP1 PUSH2 0xCD3 JUMP JUMPDEST PUSH2 0x274 PUSH2 0x26F CALLDATASIZE PUSH1 0x4 PUSH2 0xD1C JUMP JUMPDEST PUSH2 0x947 JUMP JUMPDEST STOP JUMPDEST PUSH2 0x289 PUSH2 0x284 CALLDATASIZE PUSH1 0x4 PUSH2 0xD45 JUMP JUMPDEST PUSH2 0x9F7 JUMP JUMPDEST PUSH1 0x40 DUP1 MLOAD SWAP3 ISZERO ISZERO DUP4 MSTORE PUSH1 0x20 DUP4 ADD SWAP2 SWAP1 SWAP2 MSTORE ADD PUSH2 0x10E JUMP JUMPDEST PUSH2 0x14A PUSH1 0x40 MLOAD DUP1 PUSH1 0x40 ADD PUSH1 0x40 MSTORE DUP1 PUSH1 0x5 DUP2 MSTORE PUSH1 0x20 ADD PUSH5 0x312E302E3 PUSH1 0xDC SHL DUP2 MSTORE POP DUP2 JUMP JUMPDEST PUSH1 0x0 PUSH1 0x2 DUP3 PUSH1 0x40 MLOAD PUSH2 0x2D6 SWAP2 SWAP1 PUSH2 0xD8A JUMP JUMPDEST SWAP1 DUP2 MSTORE PUSH1 0x40 MLOAD SWAP1 DUP2 SWAP1 SUB PUSH1 0x20 ADD SWAP1 KECCAK256 PUSH1 0x5 ADD SLOAD PUSH1 0xFF AND SWAP3 SWAP2 POP POP JUMP JUMPDEST PUSH1 0x3 SLOAD PUSH1 0x60 SWAP1 PUSH1 0x0 DUP2 DUP5 GT PUSH2 0x307 JUMPI DUP4 PUSH2 0x309 JUMP JUMPDEST DUP2 JUMPDEST SWAP1 POP DUP1 PUSH8 0xFFFFFFFFFFFFFFFF DUP2 GT ISZERO PUSH2 0x324 JUMPI PUSH2 0x324 PUSH2 0xAC7 JUMP JUMPDEST PUSH1 0x40 MLOAD SWAP1 DUP1 DUP3 MSTORE DUP1 PUSH1 0x20 MUL PUSH1 0x20 ADD DUP3 ADD PUSH1 0x40 MSTORE DUP1 ISZERO PUSH2 0x357 JUMPI DUP2 PUSH1 0x20 ADD JUMPDEST PUSH1 0x60 DUP2 MSTORE PUSH1 0x20 ADD SWAP1 PUSH1 0x1 SWAP1 SUB SWAP1 DUP2 PUSH2 0x342 JUMPI SWAP1 POP JUMPDEST POP SWAP3 POP PUSH1 0x0 JUMPDEST DUP2 DUP2 LT ISZERO PUSH2 0x450 JUMPI PUSH1 0x3 DUP2 PUSH2 0x373 PUSH1 0x1 DUP7 PUSH2 0xDBC JUMP JUMPDEST PUSH2 0x37D SWAP2 SWAP1 PUSH2 0xDBC JUMP JUMPDEST DUP2 SLOAD DUP2 LT PUSH2 0x38D JUMPI PUSH2 0x38D PUSH2 0xDCF JUMP JUMPDEST SWAP1 PUSH1 0x0 MSTORE PUSH1 0x20 PUSH1 0x0 KECCAK256 ADD DUP1 SLOAD PUSH2 0x3A2 SWAP1 PUSH2 0xDE5 JUMP JUMPDEST DUP1 PUSH1 0x1F ADD PUSH1 0x20 DUP1 SWAP2 DIV MUL PUSH1 0x20 ADD PUSH1 0x40 MLOAD SWAP1 DUP2 ADD PUSH1 0x40 MSTORE DUP1 SWAP3 SWAP2 SWAP1 DUP2 DUP2 MSTORE PUSH1 0x20 ADD DUP3 DUP1 SLOAD PUSH2 0x3CE SWAP1 PUSH2 0xDE5 JUMP JUMPDEST DUP1 ISZERO PUSH2 0x41B JUMPI DUP1 PUSH1 0x1F LT PUSH2 0x3F0 JUMPI PUSH2 0x100 DUP1 DUP4 SLOAD DIV MUL DUP4 MSTORE SWAP2 PUSH1 0x20 ADD SWAP2 PUSH2 0x41B JUMP JUMPDEST DUP3 ADD SWAP2 SWAP1 PUSH1 0x0 MSTORE PUSH1 0x20 PUSH1 0x0 KECCAK256 SWAP1 JUMPDEST DUP2 SLOAD DUP2 MSTORE SWAP1 PUSH1 0x1 ADD SWAP1 PUSH1 0x20 ADD DUP1 DUP4 GT PUSH2 0x3FE JUMPI DUP3 SWAP1 SUB PUSH1 0x1F AND DUP3 ADD SWAP2 JUMPDEST POP POP POP POP POP DUP5 DUP3 DUP2 MLOAD DUP2 LT PUSH2 0x432 JUMPI PUSH2 0x432 PUSH2 0xDCF JUMP JUMPDEST PUSH1 0x20 MUL PUSH1 0x20 ADD ADD DUP2 SWAP1 MSTORE POP DUP1 DUP1 PUSH2 0x448 SWAP1 PUSH2 0xE1F JUMP JUMPDEST SWAP2 POP POP PUSH2 0x35D JUMP JUMPDEST POP POP POP SWAP2 SWAP1 POP JUMP JUMPDEST PUSH1 0x3 DUP2 DUP2 SLOAD DUP2 LT PUSH2 0x468 JUMPI PUSH1 0x0 DUP1 REVERT JUMPDEST SWAP1 PUSH1 0x0 MSTORE PUSH1 0x20 PUSH1 0x0 KECCAK256 ADD PUSH1 0x0 SWAP2 POP SWAP1 POP DUP1 SLOAD PUSH2 0x483 SWAP1 PUSH2 0xDE5 JUMP JUMPDEST DUP1 PUSH1 0x1F ADD PUSH1 0x20 DUP1 SWAP2 DIV MUL PUSH1 0x20 ADD PUSH1 0x40 MLOAD SWAP1 DUP2 ADD PUSH1 0x40 MSTORE DUP1 SWAP3 SWAP2 SWAP1 DUP2 DUP2 MSTORE PUSH1 0x20 ADD DUP3 DUP1 SLOAD PUSH2 0x4AF SWAP1 PUSH2 0xDE5 JUMP JUMPDEST DUP1 ISZERO PUSH2 0x4FC JUMPI DUP1 PUSH1 0x1F LT PUSH2 0x4D1 JUMPI PUSH2 0x100 DUP1 DUP4 SLOAD DIV MUL DUP4 MSTORE SWAP2 PUSH1 0x20 ADD SWAP2 PUSH2 0x4FC JUMP JUMPDEST DUP3 ADD SWAP2 SWAP1 PUSH1 0x0 MSTORE PUSH1 0x20 PUSH1 0x0 KECCAK256 SWAP1 JUMPDEST DUP2 SLOAD DUP2 MSTORE SWAP1 PUSH1 0x1 ADD SWAP1 PUSH1 0x20 ADD DUP1 DUP4 GT PUSH2 0x4DF JUMPI DUP3 SWAP1 SUB PUSH1 0x1F AND DUP3 ADD SWAP2 JUMPDEST POP POP POP POP POP DUP2 JUMP JUMPDEST PUSH1 0x3 SLOAD PUSH1 0x60 SWAP1 DUP3 LT PUSH2 0x553 JUMPI PUSH1 0x40 MLOAD PUSH3 0x461BCD PUSH1 0xE5 SHL DUP2 MSTORE PUSH1 0x20 PUSH1 0x4 DUP3 ADD MSTORE PUSH1 0x13 PUSH1 0x24 DUP3 ADD MSTORE PUSH19 0x496E646578206F7574206F6620626F756E6473 PUSH1 0x68 SHL PUSH1 0x44 DUP3 ADD MSTORE PUSH1 0x64 ADD JUMPDEST PUSH1 0x40 MLOAD DUP1 SWAP2 SUB SWAP1 REVERT JUMPDEST PUSH1 0x3 DUP3 DUP2 SLOAD DUP2 LT PUSH2 0x566 JUMPI PUSH2 0x566 PUSH2 0xDCF JUMP JUMPDEST SWAP1 PUSH1 0x0 MSTORE PUSH1 0x20 PUSH1 0x0 KECCAK256 ADD DUP1 SLOAD PUSH2 0x57B SWAP1 PUSH2 0xDE5 JUMP JUMPDEST DUP1 PUSH1 0x1F ADD PUSH1 0x20 DUP1 SWAP2 DIV MUL PUSH1 0x20 ADD PUSH1 0x40 MLOAD SWAP1 DUP2 ADD PUSH1 0x40 MSTORE DUP1 SWAP3 SWAP2 SWAP1 DUP2 DUP2 MSTORE PUSH1 0x20 ADD DUP3 DUP1 SLOAD PUSH2 0x5A7 SWAP1 PUSH2 0xDE5 JUMP JUMPDEST DUP1 ISZERO PUSH2 0x5F4 JUMPI DUP1 PUSH1 0x1F LT PUSH2 0x5C9 JUMPI PUSH2 0x100 DUP1 DUP4 SLOAD DIV MUL DUP4 MSTORE SWAP2 PUSH1 0x20 ADD SWAP2 PUSH2 0x5F4 JUMP JUMPDEST DUP3 ADD SWAP2 SWAP1 PUSH1 0x0 MSTORE PUSH1 0x20 PUSH1 0x0 KECCAK256 SWAP1 JUMPDEST DUP2 SLOAD DUP2 MSTORE SWAP1 PUSH1 0x1 ADD SWAP1 PUSH1 0x20 ADD DUP1 DUP4 GT PUSH2 0x5D7 JUMPI DUP3 SWAP1 SUB PUSH1 0x1F AND DUP3 ADD SWAP2 JUMPDEST POP POP POP POP POP SWAP1 POP SWAP2 SWAP1 POP JUMP JUMPDEST PUSH1 0x0 PUSH1 0x2 DUP3 PUSH1 0x40 MLOAD PUSH2 0x612 SWAP2 SWAP1 PUSH2 0xD8A JUMP JUMPDEST SWAP1 DUP2 MSTORE PUSH1 0x40 MLOAD SWAP1 DUP2 SWAP1 SUB PUSH1 0x20 ADD SWAP1 KECCAK256 PUSH1 0x5 ADD SLOAD PUSH1 0xFF AND ISZERO PUSH2 0x66C JUMPI PUSH1 0x40 MLOAD PUSH3 0x461BCD PUSH1 0xE5 SHL DUP2 MSTORE PUSH1 0x20 PUSH1 0x4 DUP3 ADD MSTORE PUSH1 0x14 PUSH1 0x24 DUP3 ADD MSTORE PUSH20 0x417564697420616C726561647920657869737473 PUSH1 0x60 SHL PUSH1 0x44 DUP3 ADD MSTORE PUSH1 0x64 ADD PUSH2 0x54A JUMP JUMPDEST DUP3 PUSH2 0x6AE JUMPI PUSH1 0x40 MLOAD PUSH3 0x461BCD PUSH1 0xE5 SHL DUP2 MSTORE PUSH1 0x20 PUSH1 0x4 DUP3 ADD MSTORE PUSH1 0x12 PUSH1 0x24 DUP3 ADD MSTORE PUSH18 0x92DCECC2D8D2C840E0E4DEDECC40D0C2E6D PUSH1 0x73 SHL PUSH1 0x44 DUP3 ADD MSTORE PUSH1 0x64 ADD PUSH2 0x54A JUMP JUMPDEST PUSH1 0x40 DUP1 MLOAD PUSH1 0xC0 DUP2 ADD DUP3 MSTORE DUP5 DUP2 MSTORE PUSH1 0x20 DUP2 ADD DUP5 SWAP1 MSTORE CALLER DUP2 DUP4 ADD MSTORE TIMESTAMP PUSH1 0x60 DUP3 ADD MSTORE NUMBER PUSH1 0x80 DUP3 ADD MSTORE PUSH1 0x1 PUSH1 0xA0 DUP3 ADD MSTORE SWAP1 MLOAD PUSH1 0x2 SWAP1 PUSH2 0x6EA SWAP1 DUP6 SWAP1 PUSH2 0xD8A JUMP JUMPDEST SWAP1 DUP2 MSTORE PUSH1 0x40 MLOAD PUSH1 0x20 SWAP2 DUP2 SWAP1 SUB DUP3 ADD SWAP1 KECCAK256 DUP3 MLOAD DUP2 SSTORE SWAP1 DUP3 ADD MLOAD PUSH1 0x1 DUP3 ADD SWAP1 PUSH2 0x711 SWAP1 DUP3 PUSH2 0xE87 JUMP JUMPDEST POP PUSH1 0x40 DUP3 ADD MLOAD PUSH1 0x2 DUP3 ADD DUP1 SLOAD PUSH1 0x1 PUSH1 0x1 PUSH1 0xA0 SHL SUB NOT AND PUSH1 0x1 PUSH1 0x1 PUSH1 0xA0 SHL SUB SWAP1 SWAP3 AND SWAP2 SWAP1 SWAP2 OR SWAP1 SSTORE PUSH1 0x60 DUP3 ADD MLOAD PUSH1 0x3 DUP1 DUP4 ADD SWAP2 SWAP1 SWAP2 SSTORE PUSH1 0x80 DUP4 ADD MLOAD PUSH1 0x4 DUP4 ADD SSTORE PUSH1 0xA0 SWAP1 SWAP3 ADD MLOAD PUSH1 0x5 SWAP1 SWAP2 ADD DUP1 SLOAD PUSH1 0xFF NOT AND SWAP2 ISZERO ISZERO SWAP2 SWAP1 SWAP2 OR SWAP1 SSTORE DUP1 SLOAD PUSH1 0x1 DUP2 ADD DUP3 SSTORE PUSH1 0x0 SWAP2 SWAP1 SWAP2 MSTORE PUSH32 0xC2575A0E9E593C00F959F8C92F12DB2869C3395A3B0502D05E2516446F71F85B ADD PUSH2 0x7A4 DUP4 DUP3 PUSH2 0xE87 JUMP JUMPDEST POP PUSH1 0x1 DUP1 SLOAD SWAP1 PUSH1 0x0 PUSH2 0x7B5 DUP4 PUSH2 0xE1F JUMP JUMPDEST SWAP1 SWAP2 SSTORE POP POP PUSH1 0x40 MLOAD CALLER SWAP1 PUSH2 0x7CA SWAP1 DUP5 SWAP1 PUSH2 0xD8A JUMP JUMPDEST PUSH1 0x40 DUP1 MLOAD SWAP2 DUP3 SWAP1 SUB DUP3 KECCAK256 DUP7 DUP4 MSTORE TIMESTAMP PUSH1 0x20 DUP5 ADD MSTORE SWAP2 PUSH32 0xE33032A18F6DE3DEB81407E9DA129248E53AD8C0E68DFAB6614DF319D1D9F3F2 SWAP2 ADD PUSH1 0x40 MLOAD DUP1 SWAP2 SUB SWAP1 LOG3 POP PUSH1 0x1 JUMPDEST SWAP3 SWAP2 POP POP JUMP JUMPDEST PUSH1 0x0 DUP1 PUSH1 0x0 DUP1 PUSH1 0x0 DUP1 PUSH1 0x2 DUP8 PUSH1 0x40 MLOAD PUSH2 0x82C SWAP2 SWAP1 PUSH2 0xD8A JUMP JUMPDEST SWAP1 DUP2 MSTORE PUSH1 0x40 MLOAD SWAP1 DUP2 SWAP1 SUB PUSH1 0x20 ADD SWAP1 KECCAK256 DUP1 SLOAD PUSH1 0x2 DUP3 ADD SLOAD PUSH1 0x3 DUP4 ADD SLOAD PUSH1 0x4 DUP5 ADD SLOAD PUSH1 0x5 SWAP1 SWAP5 ADD SLOAD SWAP3 SWAP12 PUSH1 0x1 PUSH1 0x1 PUSH1 0xA0 SHL SUB SWAP1 SWAP3 AND SWAP11 POP SWAP9 POP SWAP2 SWAP7 POP PUSH1 0xFF AND SWAP5 POP SWAP3 POP POP POP JUMP JUMPDEST DUP1 MLOAD PUSH1 0x20 DUP2 DUP4 ADD DUP2 ADD DUP1 MLOAD PUSH1 0x2 DUP3 MSTORE SWAP3 DUP3 ADD SWAP2 SWAP1 SWAP4 ADD KECCAK256 SWAP2 MSTORE DUP1 SLOAD PUSH1 0x1 DUP3 ADD DUP1 SLOAD SWAP2 SWAP3 SWAP2 PUSH2 0x89E SWAP1 PUSH2 0xDE5 JUMP JUMPDEST DUP1 PUSH1 0x1F ADD PUSH1 0x20 DUP1 SWAP2 DIV MUL PUSH1 0x20 ADD PUSH1 0x40 MLOAD SWAP1 DUP2 ADD PUSH1 0x40 MSTORE DUP1 SWAP3 SWAP2 SWAP1 DUP2 DUP2 MSTORE PUSH1 0x20 ADD DUP3 DUP1 SLOAD PUSH2 0x8CA SWAP1 PUSH2 0xDE5 JUMP JUMPDEST DUP1 ISZERO PUSH2 0x917 JUMPI DUP1 PUSH1 0x1F LT PUSH2 0x8EC JUMPI PUSH2 0x100 DUP1 DUP4 SLOAD DIV MUL DUP4 MSTORE SWAP2 PUSH1 0x20 ADD SWAP2 PUSH2 0x917 JUMP JUMPDEST DUP3 ADD SWAP2 SWAP1 PUSH1 0x0 MSTORE PUSH1 0x20 PUSH1 0x0 KECCAK256 SWAP1 JUMPDEST DUP2 SLOAD DUP2 MSTORE SWAP1 PUSH1 0x1 ADD SWAP1 PUSH1 0x20 ADD DUP1 DUP4 GT PUSH2 0x8FA JUMPI DUP3 SWAP1 SUB PUSH1 0x1F AND DUP3 ADD SWAP2 JUMPDEST POP POP POP POP PUSH1 0x2 DUP4 ADD SLOAD PUSH1 0x3 DUP5 ADD SLOAD PUSH1 0x4 DUP6 ADD SLOAD PUSH1 0x5 SWAP1 SWAP6 ADD SLOAD SWAP4 SWAP5 PUSH1 0x1 PUSH1 0x1 PUSH1 0xA0 SHL SUB SWAP1 SWAP3 AND SWAP4 SWAP1 SWAP3 POP PUSH1 0xFF AND DUP7 JUMP JUMPDEST PUSH1 0x0 SLOAD PUSH1 0x1 PUSH1 0x1 PUSH1 0xA0 SHL SUB AND CALLER EQ PUSH2 0x98D JUMPI PUSH1 0x40 MLOAD PUSH3 0x461BCD PUSH1 0xE5 SHL DUP2 MSTORE PUSH1 0x20 PUSH1 0x4 DUP3 ADD MSTORE PUSH1 0x9 PUSH1 0x24 DUP3 ADD MSTORE PUSH9 0x2737BA1037BBB732B9 PUSH1 0xB9 SHL PUSH1 0x44 DUP3 ADD MSTORE PUSH1 0x64 ADD PUSH2 0x54A JUMP JUMPDEST PUSH1 0x1 PUSH1 0x1 PUSH1 0xA0 SHL SUB DUP2 AND PUSH2 0x9D5 JUMPI PUSH1 0x40 MLOAD PUSH3 0x461BCD PUSH1 0xE5 SHL DUP2 MSTORE PUSH1 0x20 PUSH1 0x4 DUP3 ADD MSTORE PUSH1 0xF PUSH1 0x24 DUP3 ADD MSTORE PUSH15 0x496E76616C69642061646472657373 PUSH1 0x88 SHL PUSH1 0x44 DUP3 ADD MSTORE PUSH1 0x64 ADD PUSH2 0x54A JUMP JUMPDEST PUSH1 0x0 DUP1 SLOAD PUSH1 0x1 PUSH1 0x1 PUSH1 0xA0 SHL SUB NOT AND PUSH1 0x1 PUSH1 0x1 PUSH1 0xA0 SHL SUB SWAP3 SWAP1 SWAP3 AND SWAP2 SWAP1 SWAP2 OR SWAP1 SSTORE JUMP JUMPDEST PUSH1 0x0 DUP1 PUSH1 0x0 PUSH1 0x2 DUP6 PUSH1 0x40 MLOAD PUSH2 0xA0C SWAP2 SWAP1 PUSH2 0xD8A JUMP JUMPDEST SWAP1 DUP2 MSTORE PUSH1 0x40 MLOAD SWAP1 DUP2 SWAP1 SUB PUSH1 0x20 ADD SWAP1 KECCAK256 PUSH1 0x5 DUP2 ADD SLOAD SWAP1 SWAP2 POP PUSH1 0xFF AND PUSH2 0xA64 JUMPI PUSH1 0x40 MLOAD PUSH3 0x461BCD PUSH1 0xE5 SHL DUP2 MSTORE PUSH1 0x20 PUSH1 0x4 DUP3 ADD MSTORE PUSH1 0xF PUSH1 0x24 DUP3 ADD MSTORE PUSH15 0x105D591A5D081B9BDD08199BDD5B99 PUSH1 0x8A SHL PUSH1 0x44 DUP3 ADD MSTORE PUSH1 0x64 ADD PUSH2 0x54A JUMP JUMPDEST DUP1 SLOAD PUSH1 0x40 MLOAD DUP6 DUP3 EQ SWAP5 POP SWAP1 SWAP3 POP CALLER SWAP1 PUSH2 0xA7E SWAP1 DUP8 SWAP1 PUSH2 0xD8A JUMP JUMPDEST PUSH1 0x40 DUP1 MLOAD SWAP2 DUP3 SWAP1 SUB DUP3 KECCAK256 DUP8 DUP4 MSTORE DUP7 ISZERO ISZERO PUSH1 0x20 DUP5 ADD MSTORE SWAP2 PUSH32 0x72293E7521A284D6801AD5E68AF99E04397981D7733D5251D9F6C5D7525633D0 SWAP2 ADD PUSH1 0x40 MLOAD DUP1 SWAP2 SUB SWAP1 LOG3 POP SWAP3 POP SWAP3 SWAP1 POP JUMP JUMPDEST PUSH4 0x4E487B71 PUSH1 0xE0 SHL PUSH1 0x0 MSTORE PUSH1 0x41 PUSH1 0x4 MSTORE PUSH1 0x24 PUSH1 0x0 REVERT JUMPDEST PUSH1 0x0 DUP3 PUSH1 0x1F DUP4 ADD SLT PUSH2 0xAEE JUMPI PUSH1 0x0 DUP1 REVERT JUMPDEST DUP2 CALLDATALOAD PUSH8 0xFFFFFFFFFFFFFFFF DUP1 DUP3 GT ISZERO PUSH2 0xB09 JUMPI PUSH2 0xB09 PUSH2 0xAC7 JUMP JUMPDEST PUSH1 0x40 MLOAD PUSH1 0x1F DUP4 ADD PUSH1 0x1F NOT SWAP1 DUP2 AND PUSH1 0x3F ADD AND DUP2 ADD SWAP1 DUP3 DUP3 GT DUP2 DUP4 LT OR ISZERO PUSH2 0xB31 JUMPI PUSH2 0xB31 PUSH2 0xAC7 JUMP JUMPDEST DUP2 PUSH1 0x40 MSTORE DUP4 DUP2 MSTORE DUP7 PUSH1 0x20 DUP6 DUP9 ADD ADD GT ISZERO PUSH2 0xB4A JUMPI PUSH1 0x0 DUP1 REVERT JUMPDEST DUP4 PUSH1 0x20 DUP8 ADD PUSH1 0x20 DUP4 ADD CALLDATACOPY PUSH1 0x0 PUSH1 0x20 DUP6 DUP4 ADD ADD MSTORE DUP1 SWAP5 POP POP POP POP POP SWAP3 SWAP2 POP POP JUMP JUMPDEST PUSH1 0x0 PUSH1 0x20 DUP3 DUP5 SUB SLT ISZERO PUSH2 0xB7C JUMPI PUSH1 0x0 DUP1 REVERT JUMPDEST DUP2 CALLDATALOAD PUSH8 0xFFFFFFFFFFFFFFFF DUP2 GT ISZERO PUSH2 0xB93 JUMPI PUSH1 0x0 DUP1 REVERT JUMPDEST PUSH2 0xB9F DUP5 DUP3 DUP6 ADD PUSH2 0xADD JUMP JUMPDEST SWAP5 SWAP4 POP POP POP POP JUMP JUMPDEST PUSH1 0x0 PUSH1 0x20 DUP3 DUP5 SUB SLT ISZERO PUSH2 0xBB9 JUMPI PUSH1 0x0 DUP1 REVERT JUMPDEST POP CALLDATALOAD SWAP2 SWAP1 POP JUMP JUMPDEST PUSH1 0x0 JUMPDEST DUP4 DUP2 LT ISZERO PUSH2 0xBDB JUMPI DUP2 DUP2 ADD MLOAD DUP4 DUP3 ADD MSTORE PUSH1 0x20 ADD PUSH2 0xBC3 JUMP JUMPDEST POP POP PUSH1 0x0 SWAP2 ADD MSTORE JUMP JUMPDEST PUSH1 0x0 DUP2 MLOAD DUP1 DUP5 MSTORE PUSH2 0xBFC DUP2 PUSH1 0x20 DUP7 ADD PUSH1 0x20 DUP7 ADD PUSH2 0xBC0 JUMP JUMPDEST PUSH1 0x1F ADD PUSH1 0x1F NOT AND SWAP3 SWAP1 SWAP3 ADD PUSH1 0x20 ADD SWAP3 SWAP2 POP POP JUMP JUMPDEST PUSH1 0x0 PUSH1 0x20 DUP1 DUP4 ADD DUP2 DUP5 MSTORE DUP1 DUP6 MLOAD DUP1 DUP4 MSTORE PUSH1 0x40 DUP7 ADD SWAP2 POP PUSH1 0x40 DUP2 PUSH1 0x5 SHL DUP8 ADD ADD SWAP3 POP DUP4 DUP8 ADD PUSH1 0x0 JUMPDEST DUP3 DUP2 LT ISZERO PUSH2 0xC65 JUMPI PUSH1 0x3F NOT DUP9 DUP7 SUB ADD DUP5 MSTORE PUSH2 0xC53 DUP6 DUP4 MLOAD PUSH2 0xBE4 JUMP JUMPDEST SWAP5 POP SWAP3 DUP6 ADD SWAP3 SWAP1 DUP6 ADD SWAP1 PUSH1 0x1 ADD PUSH2 0xC37 JUMP JUMPDEST POP SWAP3 SWAP8 SWAP7 POP POP POP POP POP POP POP JUMP JUMPDEST PUSH1 0x20 DUP2 MSTORE PUSH1 0x0 PUSH2 0xC85 PUSH1 0x20 DUP4 ADD DUP5 PUSH2 0xBE4 JUMP JUMPDEST SWAP4 SWAP3 POP POP POP JUMP JUMPDEST PUSH1 0x0 DUP1 PUSH1 0x40 DUP4 DUP6 SUB SLT ISZERO PUSH2 0xC9F JUMPI PUSH1 0x0 DUP1 REVERT JUMPDEST DUP3 CALLDATALOAD SWAP2 POP PUSH1 0x20 DUP4 ADD CALLDATALOAD PUSH8 0xFFFFFFFFFFFFFFFF DUP2 GT ISZERO PUSH2 0xCBD JUMPI PUSH1 0x0 DUP1 REVERT JUMPDEST PUSH2 0xCC9 DUP6 DUP3 DUP7 ADD PUSH2 0xADD JUMP JUMPDEST SWAP2 POP POP SWAP3 POP SWAP3 SWAP1 POP JUMP JUMPDEST DUP7 DUP2 MSTORE PUSH1 0xC0 PUSH1 0x20 DUP3 ADD MSTORE PUSH1 0x0 PUSH2 0xCEC PUSH1 0xC0 DUP4 ADD DUP9 PUSH2 0xBE4 JUMP JUMPDEST PUSH1 0x1 PUSH1 0x1 PUSH1 0xA0 SHL SUB SWAP7 SWAP1 SWAP7 AND PUSH1 0x40 DUP4 ADD MSTORE POP PUSH1 0x60 DUP2 ADD SWAP4 SWAP1 SWAP4 MSTORE PUSH1 0x80 DUP4 ADD SWAP2 SWAP1 SWAP2 MSTORE ISZERO ISZERO PUSH1 0xA0 SWAP1 SWAP2 ADD MSTORE SWAP3 SWAP2 POP POP JUMP JUMPDEST PUSH1 0x0 PUSH1 0x20 DUP3 DUP5 SUB SLT ISZERO PUSH2 0xD2E JUMPI PUSH1 0x0 DUP1 REVERT JUMPDEST DUP2 CALLDATALOAD PUSH1 0x1 PUSH1 0x1 PUSH1 0xA0 SHL SUB DUP2 AND DUP2 EQ PUSH2 0xC85 JUMPI PUSH1 0x0 DUP1 REVERT JUMPDEST PUSH1 0x0 DUP1 PUSH1 0x40 DUP4 DUP6 SUB SLT ISZERO PUSH2 0xD58 JUMPI PUSH1 0x0 DUP1 REVERT JUMPDEST DUP3 CALLDATALOAD PUSH8 0xFFFFFFFFFFFFFFFF DUP2 GT ISZERO PUSH2 0xD6F JUMPI PUSH1 0x0 DUP1 REVERT JUMPDEST PUSH2 0xD7B DUP6 DUP3 DUP7 ADD PUSH2 0xADD JUMP JUMPDEST SWAP6 PUSH1 0x20 SWAP5 SWAP1 SWAP5 ADD CALLDATALOAD SWAP5 POP POP POP POP JUMP JUMPDEST PUSH1 0x0 DUP3 MLOAD PUSH2 0xD9C DUP2 DUP5 PUSH1 0x20 DUP8 ADD PUSH2 0xBC0 JUMP JUMPDEST SWAP2 SWAP1 SWAP2 ADD SWAP3 SWAP2 POP POP JUMP JUMPDEST PUSH4 0x4E487B71 PUSH1 0xE0 SHL PUSH1 0x0 MSTORE PUSH1 0x11 PUSH1 0x4 MSTORE PUSH1 0x24 PUSH1 0x0 REVERT JUMPDEST DUP2 DUP2 SUB DUP2 DUP2 GT ISZERO PUSH2 0x80D JUMPI PUSH2 0x80D PUSH2 0xDA6 JUMP JUMPDEST PUSH4 0x4E487B71 PUSH1 0xE0 SHL PUSH1 0x0 MSTORE PUSH1 0x32 PUSH1 0x4 MSTORE PUSH1 0x24 PUSH1 0x0 REVERT JUMPDEST PUSH1 0x1 DUP2 DUP2 SHR SWAP1 DUP3 AND DUP1 PUSH2 0xDF9 JUMPI PUSH1 0x7F DUP3 AND SWAP2 POP JUMPDEST PUSH1 0x20 DUP3 LT DUP2 SUB PUSH2 0xE19 JUMPI PUSH4 0x4E487B71 PUSH1 0xE0 SHL PUSH1 0x0 MSTORE PUSH1 0x22 PUSH1 0x4 MSTORE PUSH1 0x24 PUSH1 0x0 REVERT JUMPDEST POP SWAP2 SWAP1 POP JUMP JUMPDEST PUSH1 0x0 PUSH1 0x1 DUP3 ADD PUSH2 0xE31 JUMPI PUSH2 0xE31 PUSH2 0xDA6 JUMP JUMPDEST POP PUSH1 0x1 ADD SWAP1 JUMP JUMPDEST PUSH1 0x1F DUP3 GT ISZERO PUSH2 0xE82 JUMPI PUSH1 0x0 DUP2 DUP2 MSTORE PUSH1 0x20 DUP2 KECCAK256 PUSH1 0x1F DUP6 ADD PUSH1 0x5 SHR DUP2 ADD PUSH1 0x20 DUP7 LT ISZERO PUSH2 0xE5F JUMPI POP DUP1 JUMPDEST PUSH1 0x1F DUP6 ADD PUSH1 0x5 SHR DUP3 ADD SWAP2 POP JUMPDEST DUP2 DUP2 LT ISZERO PUSH2 0xE7E JUMPI DUP3 DUP2 SSTORE PUSH1 0x1 ADD PUSH2 0xE6B JUMP JUMPDEST POP POP POP JUMPDEST POP POP POP JUMP JUMPDEST DUP2 MLOAD PUSH8 0xFFFFFFFFFFFFFFFF DUP2 GT ISZERO PUSH2 0xEA1 JUMPI PUSH2 0xEA1 PUSH2 0xAC7 JUMP JUMPDEST PUSH2 0xEB5 DUP2 PUSH2 0xEAF DUP5 SLOAD PUSH2 0xDE5 JUMP JUMPDEST DUP5 PUSH2 0xE38 JUMP JUMPDEST PUSH1 0x20 DUP1 PUSH1 0x1F DUP4 GT PUSH1 0x1 DUP2 EQ PUSH2 0xEEA JUMPI PUSH1 0x0 DUP5 ISZERO PUSH2 0xED2 JUMPI POP DUP6 DUP4 ADD MLOAD JUMPDEST PUSH1 0x0 NOT PUSH1 0x3 DUP7 SWAP1 SHL SHR NOT AND PUSH1 0x1 DUP6 SWAP1 SHL OR DUP6 SSTORE PUSH2 0xE7E JUMP JUMPDEST PUSH1 0x0 DUP6 DUP2 MSTORE PUSH1 0x20 DUP2 KECCAK256 PUSH1 0x1F NOT DUP7 AND SWAP2 JUMPDEST DUP3 DUP2 LT ISZERO PUSH2 0xF19 JUMPI DUP9 DUP7 ADD MLOAD DUP3 SSTORE SWAP5 DUP5 ADD SWAP5 PUSH1 0x1 SWAP1 SWAP2 ADD SWAP1 DUP5 ADD PUSH2 0xEFA JUMP JUMPDEST POP DUP6 DUP3 LT ISZERO PUSH2 0xF37 JUMPI DUP8 DUP6 ADD MLOAD PUSH1 0x0 NOT PUSH1 0x3 DUP9 SWAP1 SHL PUSH1 0xF8 AND SHR NOT AND DUP2 SSTORE JUMPDEST POP POP POP POP POP PUSH1 0x1 SWAP1 DUP2 SHL ADD SWAP1 SSTORE POP JUMP INVALID LOG2 PUSH5 0x6970667358 0x22 SLT KECCAK256 0xD5 SLT CALLCODE PUSH6 0xF31D2BE9D38D 0xB2 0x4A EXTCODECOPY AND GAS PUSH32 0xBDE776C0379FBBAD3DB31B514797C8EB64736F6C634300081400330000000000 "},"methodIdentifiers":{"NAME()":"a3f4df7e","VERSION()":"ffa1ad74","anchorAudit(bytes32,string)":"9b506a04","auditExists(string)":"22abbb67","audits(string)":"d51b27b8","getAudit(string)":"9e0a4940","getAuditCount()":"6353bde6","getJobIdByIndex(uint256)":"7d9faabe","getRecentAudits(uint256)":"405286f3","jobIds(uint256)":"4162cc88","owner()":"8da5cb5b","totalAudits()":"4a07147f","transferOwnership(address)":"f2fde38b","verifyAudit(string,bytes32)":"fab7136c"}}}}}