{
  "_format": "hh-sol-artifact-1",
  "contractName": "VInferenceAudit",
  "sourceName": "contracts/VInferenceAudit.sol",
  "abi": [
    {
      "inputs": [],
      "stateMutability": "nonpayable",
      "type": "constructor"
    },
    {
      "anonymous": false,
      "inputs": [
        {
          "indexed": true,
          "internalType": "string",
          "name": "jobId",
          "type": "string"
        },
        {
          "indexed": false,
          "internalType": "bytes32",
          "name": "proofHash",
          "type": "bytes32"
        },
        {
          "indexed": true,
          "internalType": "address",
          "name": "auditor",
          "type": "address"
        },
        {
          "indexed": false,
          "internalType": "uint256",
          "name": "timestamp",
          "type": "uint256"
        }
      ],
      "name": "AuditAnchored",
      "type": "event"
    },
    {
      "anonymous": false,
      "inputs": [
        {
          "indexed": true,
          "internalType": "string",
          "name": "jobId",
          "type": "string"
        },
        {
          "indexed": false,
          "internalType": "bytes32",
          "name": "proofHash",
          "type": "bytes32"
        },
        {
          "indexed": false,
          "internalType": "bool",
          "name": "valid",
          "type": "bool"
        },
        {
          "indexed": true,
          "internalType": "address",
          "name": "verifier",
          "type": "address"
        }
      ],
      "name": "AuditVerified",
      "type": "event"
    },
    {
      "inputs": [],
      "name": "NAME",
      "outputs": [
        {
          "internalType": "string",
          "name": "",
          "type": "string"
        }
      ],
      "stateMutability": "view",
      "type": "function"
    },
    {
      "inputs": [],
      "name": "VERSION",
      "outputs": [
        {
          "internalType": "string",
          "name": "",
          "type": "string"
        }
      ],
      "stateMutability": "view",
      "type": "function"
    },
    {
      "inputs": [
        {
          "internalType": "bytes32",
          "name": "proofHash",
          "type": "bytes32"
        },
        {
          "internalType": "string",
          "name": "jobId",
          "type": "string"
        }
      ],
      "name": "anchorAudit",
      "outputs": [
        {
          "internalType": "bool",
          "name": "success",
          "type": "bool"
        }
      ],
      "stateMutability": "nonpayable",
      "type": "function"
    },
    {
      "inputs": [
        {
          "internalType": "string",
          "name": "jobId",
          "type": "string"
        }
      ],
      "name": "auditExists",
      "outputs": [
        {
          "internalType": "bool",
          "name": "exists",
          "type": "bool"
        }
      ],
      "stateMutability": "view",
      "type": "function"
    },
    {
      "inputs": [
        {
          "internalType": "string",
          "name": "",
          "type": "string"
        }
      ],
      "name": "audits",
      "outputs": [
        {
          "internalType": "bytes32",
          "name": "proofHash",
          "type": "bytes32"
        },
        {
          "internalType": "string",
          "name": "jobId",
          "type": "string"
        },
        {
          "internalType": "address",
          "name": "auditor",
          "type": "address"
        },
        {
          "internalType": "uint256",
          "name": "timestamp",
          "type": "uint256"
        },
        {
          "internalType": "uint256",
          "name": "blockNumber",
          "type": "uint256"
        },
        {
          "internalType": "bool",
          "name": "exists",
          "type": "bool"
        }
      ],
      "stateMutability": "view",
      "type": "function"
    },
    {
      "inputs": [
        {
          "internalType": "string",
          "name": "jobId",
          "type": "string"
        }
      ],
      "name": "getAudit",
      "outputs": [
        {
          "internalType": "bytes32",
          "name": "proofHash",
          "type": "bytes32"
        },
        {
          "internalType": "address",
          "name": "auditor",
          "type": "address"
        },
        {
          "internalType": "uint256",
          "name": "timestamp",
          "type": "uint256"
        },
        {
          "internalType": "uint256",
          "name": "blockNumber",
          "type": "uint256"
        },
        {
          "internalType": "bool",
          "name": "exists",
          "type": "bool"
        }
      ],
      "stateMutability": "view",
      "type": "function"
    },
    {
      "inputs": [],
      "name": "getAuditCount",
      "outputs": [
        {
          "internalType": "uint256",
          "name": "count",
          "type": "uint256"
        }
      ],
      "stateMutability": "view",
      "type": "function"
    },
    {
      "inputs": [
        {
          "internalType": "uint256",
          "name": "index",
          "type": "uint256"
        }
      ],
      "name": "getJobIdByIndex",
      "outputs": [
        {
          "internalType": "string",
          "name": "jobId",
          "type": "string"
        }
      ],
      "stateMutability": "view",
      "type": "function"
    },
    {
      "inputs": [
        {
          "internalType": "uint256",
          "name": "count",
          "type": "uint256"
        }
      ],
      "name": "getRecentAudits",
      "outputs": [
        {
          "internalType": "string[]",
          "name": "recentJobIds",
          "type": "string[]"
        }
      ],
      "stateMutability": "view",
      "type": "function"
    },
    {
      "inputs": [
        {
          "internalType": "uint256",
          "name": "",
          "type": "uint256"
        }
      ],
      "name": "jobIds",
      "outputs": [
        {
          "internalType": "string",
          "name": "",
          "type": "string"
        }
      ],
      "stateMutability": "view",
      "type": "function"
    },
    {
      "inputs": [],
      "name": "owner",
      "outputs": [
        {
          "internalType": "address",
          "name": "",
          "type": "address"
        }
      ],
      "stateMutability": "view",
      "type": "function"
    },
    {
      "inputs": [],
      "name": "totalAudits",
      "outputs": [
        {
          "internalType": "uint256",
          "name": "",
          "type": "uint256"
        }
      ],
      "stateMutability": "view",
      "type": "function"
    },
    {
      "inputs": [
        {
          "internalType": "address",
          "name": "newOwner",
          "type": "address"
        }
      ],
      "name": "transferOwnership",
      "outputs": [],
      "stateMutability": "nonpayable",
      "type": "function"
    },
    {
      "inputs": [
        {
          "internalType": "string",
          "name": "jobId",
          "type": "string"
        },
        {
          "internalType": "bytes32",
          "name": "proofHash",
          "type": "bytes32"
        }
      ],
      "name": "verifyAudit",
      "outputs": [
        {
          "internalType": "bool",
          "name": "valid",
          "type": "bool"
        },
        {
          "internalType": "bytes32",
          "name": "onChainHash",
          "type": "bytes32"
        }
      ],
      "stateMutability": "nonpayable",
      "type": "function"
    }
  ],
  "bytecode": "0x608060405234801561001057600080fd5b50600080546001600160a01b03191633179055610f7d806100326000396000f3fe608060405234801561001057600080fd5b50600436106100ea5760003560e01c80639b506a041161008c578063d51b27b811610066578063d51b27b81461023c578063f2fde38b14610261578063fab7136c14610276578063ffa1ad74146102a057600080fd5b80639b506a04146101b45780639e0a4940146101c7578063a3f4df7e1461020c57600080fd5b80634a07147f116100c85780634a07147f146101575780636353bde61461016e5780637d9faabe146101765780638da5cb5b1461018957600080fd5b806322abbb67146100ef578063405286f3146101175780634162cc8814610137575b600080fd5b6101026100fd366004610b6a565b6102c4565b60405190151581526020015b60405180910390f35b61012a610125366004610ba7565b6102f2565b60405161010e9190610c10565b61014a610145366004610ba7565b610458565b60405161010e9190610c72565b61016060015481565b60405190815260200161010e565b600154610160565b61014a610184366004610ba7565b610504565b60005461019c906001600160a01b031681565b6040516001600160a01b03909116815260200161010e565b6101026101c2366004610c8c565b610600565b6101da6101d5366004610b6a565b610813565b604080519586526001600160a01b0390941660208601529284019190915260608301521515608082015260a00161010e565b61014a60405180604001604052806011815260200170158b525b99995c995b98d948105d591a5d607a1b81525081565b61024f61024a366004610b6a565b610871565b60405161010e96959493929190610cd3565b61027461026f366004610d1c565b610947565b005b610289610284366004610d45565b6109f7565b60408051921515835260208301919091520161010e565b61014a604051806040016040528060058152602001640312e302e360dc1b81525081565b60006002826040516102d69190610d8a565b9081526040519081900360200190206005015460ff1692915050565b60035460609060008184116103075783610309565b815b90508067ffffffffffffffff81111561032457610324610ac7565b60405190808252806020026020018201604052801561035757816020015b60608152602001906001900390816103425790505b50925060005b8181101561045057600381610373600186610dbc565b61037d9190610dbc565b8154811061038d5761038d610dcf565b9060005260206000200180546103a290610de5565b80601f01602080910402602001604051908101604052809291908181526020018280546103ce90610de5565b801561041b5780601f106103f05761010080835404028352916020019161041b565b820191906000526020600020905b8154815290600101906020018083116103fe57829003601f168201915b505050505084828151811061043257610432610dcf565b6020026020010181905250808061044890610e1f565b91505061035d565b505050919050565b6003818154811061046857600080fd5b90600052602060002001600091509050805461048390610de5565b80601f01602080910402602001604051908101604052809291908181526020018280546104af90610de5565b80156104fc5780601f106104d1576101008083540402835291602001916104fc565b820191906000526020600020905b8154815290600101906020018083116104df57829003601f168201915b505050505081565b60035460609082106105535760405162461bcd60e51b8152602060048201526013602482015272496e646578206f7574206f6620626f756e647360681b60448201526064015b60405180910390fd5b6003828154811061056657610566610dcf565b90600052602060002001805461057b90610de5565b80601f01602080910402602001604051908101604052809291908181526020018280546105a790610de5565b80156105f45780601f106105c9576101008083540402835291602001916105f4565b820191906000526020600020905b8154815290600101906020018083116105d757829003601f168201915b50505050509050919050565b60006002826040516106129190610d8a565b9081526040519081900360200190206005015460ff161561066c5760405162461bcd60e51b8152602060048201526014602482015273417564697420616c72656164792065786973747360601b604482015260640161054a565b826106ae5760405162461bcd60e51b8152602060048201526012602482015271092dcecc2d8d2c840e0e4dedecc40d0c2e6d60731b604482015260640161054a565b6040805160c081018252848152602081018490523381830152426060820152436080820152600160a082015290516002906106ea908590610d8a565b90815260405160209181900382019020825181559082015160018201906107119082610e87565b5060408201516002820180546001600160a01b0319166001600160a01b0390921691909117905560608201516003808301919091556080830151600483015560a0909201516005909101805460ff191691151591909117905580546001810182556000919091527fc2575a0e9e593c00f959f8c92f12db2869c3395a3b0502d05e2516446f71f85b016107a48382610e87565b50600180549060006107b583610e1f565b909155505060405133906107ca908490610d8a565b60408051918290038220868352426020840152917fe33032a18f6de3deb81407e9da129248e53ad8c0e68dfab6614df319d1d9f3f2910160405180910390a35060015b92915050565b60008060008060008060028760405161082c9190610d8a565b9081526040519081900360200190208054600282015460038301546004840154600590940154929b6001600160a01b039092169a50985091965060ff16945092505050565b80516020818301810180516002825292820191909301209152805460018201805491929161089e90610de5565b80601f01602080910402602001604051908101604052809291908181526020018280546108ca90610de5565b80156109175780601f106108ec57610100808354040283529160200191610917565b820191906000526020600020905b8154815290600101906020018083116108fa57829003601f168201915b5050505060028301546003840154600485015460059095015493946001600160a01b039092169390925060ff1686565b6000546001600160a01b0316331461098d5760405162461bcd60e51b81526020600482015260096024820152682737ba1037bbb732b960b91b604482015260640161054a565b6001600160a01b0381166109d55760405162461bcd60e51b815260206004820152600f60248201526e496e76616c6964206164647265737360881b604482015260640161054a565b600080546001600160a01b0319166001600160a01b0392909216919091179055565b6000806000600285604051610a0c9190610d8a565b908152604051908190036020019020600581015490915060ff16610a645760405162461bcd60e51b815260206004820152600f60248201526e105d591a5d081b9bdd08199bdd5b99608a1b604482015260640161054a565b805460405185821494509092503390610a7e908790610d8a565b604080519182900382208783528615156020840152917f72293e7521a284d6801ad5e68af99e04397981d7733d5251d9f6c5d7525633d0910160405180910390a3509250929050565b634e487b7160e01b600052604160045260246000fd5b600082601f830112610aee57600080fd5b813567ffffffffffffffff80821115610b0957610b09610ac7565b604051601f8301601f19908116603f01168101908282118183101715610b3157610b31610ac7565b81604052838152866020858801011115610b4a57600080fd5b836020870160208301376000602085830101528094505050505092915050565b600060208284031215610b7c57600080fd5b813567ffffffffffffffff811115610b9357600080fd5b610b9f84828501610add565b949350505050565b600060208284031215610bb957600080fd5b5035919050565b60005b83811015610bdb578181015183820152602001610bc3565b50506000910152565b60008151808452610bfc816020860160208601610bc0565b601f01601f19169290920160200192915050565b6000602080830181845280855180835260408601915060408160051b870101925083870160005b82811015610c6557603f19888603018452610c53858351610be4565b94509285019290850190600101610c37565b5092979650505050505050565b602081526000610c856020830184610be4565b9392505050565b60008060408385031215610c9f57600080fd5b82359150602083013567ffffffffffffffff811115610cbd57600080fd5b610cc985828601610add565b9150509250929050565b86815260c060208201526000610cec60c0830188610be4565b6001600160a01b039690961660408301525060608101939093526080830191909152151560a09091015292915050565b600060208284031215610d2e57600080fd5b81356001600160a01b0381168114610c8557600080fd5b60008060408385031215610d5857600080fd5b823567ffffffffffffffff811115610d6f57600080fd5b610d7b85828601610add565b95602094909401359450505050565b60008251610d9c818460208701610bc0565b9190910192915050565b634e487b7160e01b600052601160045260246000fd5b8181038181111561080d5761080d610da6565b634e487b7160e01b600052603260045260246000fd5b600181811c90821680610df957607f821691505b602082108103610e1957634e487b7160e01b600052602260045260246000fd5b50919050565b600060018201610e3157610e31610da6565b5060010190565b601f821115610e8257600081815260208120601f850160051c81016020861015610e5f5750805b601f850160051c820191505b81811015610e7e57828155600101610e6b565b5050505b505050565b815167ffffffffffffffff811115610ea157610ea1610ac7565b610eb581610eaf8454610de5565b84610e38565b602080601f831160018114610eea5760008415610ed25750858301515b600019600386901b1c1916600185901b178555610e7e565b600085815260208120601f198616915b82811015610f1957888601518255948401946001909101908401610efa565b5085821015610f375787850151600019600388901b60f8161c191681555b5050505050600190811b0190555056fea2646970667358221220d512f265f31d2be9d38db24a3c165a7fbde776c0379fbbad3db31b514797c8eb64736f6c63430008140033",
  "linkReferences": {},
  "deployedLinkReferences": {}
}